S00E00006472697665722E737265638A
S11300000C9438000C9455000C9455000C94550035
S11300100C9455000C9455000C9455000C94550008
S11300200C9455000C9455000C9455000C945500F8
S11300300C9455000C9455000C9455000C945500E8
S11300400C9455000C9455000C9455000C945500D8
S11300500C9455000C9455000C9455000C945500C8
S11300600C9455000C9455000C9455000C945500B8
S113007011241FBECFEFD4E0DEBFCDBF11E0A0E05E
S1130080B1E0EEE8F4E002C005900D92A633B107AA
S1130090D9F721E0A6E3B1E001C01D92A034B20774
S11300A0E1F70E9471000C9445020C9400005D9BE2
S11300B0FECF8CB908958BB18CB1089520B5922BE5
S11300C090BD99B1892B89B98AB188618AB980B503
S11300D08E6880BD6BE570E087E590E00E94830048
S11300E008958FE190E00E945E0086E091E00E9416
S11300F0CE002FEF8FEF9EE0215080409040E1F73B
S113010000C00000F2CF0F931F93CF93DF93EC0155
S11301108B01009731F46115710519F480E090E0CA
S113012038C06EE070E081E090E00E94FB00FC01CA
S11301300097A1F380E883830115110571F01387FB
S1130140028781E883838091360190913701892B5E
S113015021F4F0933701E09336012097C9F0D18759
S1130160C0878381826083838091380190913901B3
S1130170892B71F4F0933901E093380180913A01AD
S113018090913B01892B21F4F0933B01E0933A01D8
S1130190CF01DF91CF911F910F9108950F931F937A
S11301A0CF93DF93E0913801F0913901238121FF4E
S11301B01BC0EC0100E010E089916091380170915E
S11301C03901DB011896ED91FC911997882331F0E0
S11301D00995892B89F30FEF1FEFEECF8AE009957C
S11301E0892B11F4C80102C08FEF9FEFDF91CF91EB
S11301F01F910F9108950F931F93CF93DF93869FC1
S11302008001879F100D969F100D1124C8010E9434
S11302101701EC01009729F0A80160E070E00E944A
S11302203E02CE01DF91CF911F910F910895CF939C
S1130230DF938230910510F482E090E0E0913E017A
S1130240F0913F0120E030E0A0E0B0E0309739F1D8
S11302504081518148175907B8F04817590771F47C
S113026082819381109729F013969C938E93129711
S11302702CC090933F0180933E0127C02115310586
S113028031F04217530718F0A901DB0101C0EF0157
S11302909A01BD01DF010280F381E02DD7CF211542
S11302A03105F9F0281B390B2430310580F48A819B
S11302B09B816115710521F0FB019383828304C046
S11302C090933F0180933E01FE01329644C0FE01AB
S11302D0E20FF31F819391932250310939832883CC
S11302E03AC020913C0130913D01232B41F42091EF
S11302F002013091030130933D0120933C01209190
S11303000001309101012115310541F42DB73EB7AB
S11303104091040150910501241B350BE0913C01EF
S1130320F0913D01E217F307A0F42E1B3F0B2817B1
S1130330390778F0AC014E5F5F4F2417350748F05A
S11303404E0F5F1F50933D0140933C018193919365
S113035002C0E0E0F0E0CF01DF91CF910895CF93A8
S1130360DF93009709F487C0FC013297138212824D
S1130370C0913E01D0913F01209781F420813181C9
S1130380280F391F80913C0190913D0182179307FA
S113039079F5F0933D01E0933C016DC0DE0120E06E
S11303A030E0AE17BF0750F412964D915C9113974D
S11303B09D014115510509F1DA01F3CFB383A283FD
S11303C040815181840F951F8A179B0771F48D9189
S11303D09C911197840F951F0296918380831296A6
S11303E08D919C911397938382832115310529F470
S11303F0F0933F01E0933E013EC0D9011396FC9374
S1130400EE9312974D915D91A40FB51FEA17FB0768
S113041079F480819181840F951F0296D9011196F8
S11304209C938E938281938113969C938E931297BF
S1130430E0E0F0E08A819B81009719F0FE01EC0175
S1130440F9CFCE01029628813981820F931F209122
S11304503C0130913D012817390769F4309729F49C
S113046010923F0110923E0102C013821282D09377
S11304703D01C0933C01DF91CF910895DC0101C09F
S11104806D9341505040E0F70895F894FFCF7B
S113048E0000400120006A65672076696C20736F56
S113049E766520277A7A7A7A7A7A7A270A312073DD
S11304AE61752C2032207361752C20332073617595
S10904BE202E2E2E0A0080
S9030000FC
