S019000065786572636973655F315F365F746573742E737265636F
S11300000C9438000C9442000C9442000C9442006E
S11300100C9442000C9442000C9442000C94420054
S11300200C9442000C9442000C9442000C94420044
S11300300C9442000C9442000C9442000C94420034
S11300400C9442000C9442000C9442000C94420024
S11300500C9442000C9442000C9442000C94420014
S11300600C9442000C9442000C9442000C94420004
S113007011241FBECFEFD4E0DEBFCDBF0E944400E9
S11300800C945B000C94000081E08ABBD89A2FEF9B
S11300908FEF9EE0215080409040E1F700C00000C7
S11300A0D8982FEF8FEF9EE0215080409040E1F7E9
S10D00B000C00000EBCFF894FFCF6E
S9030000FC
