S00D00006C617463682E737265630B
S11300000C9438000C9442000C9442000C9442006E
S11300100C9442000C9442000C9442000C94420054
S11300200C9442000C9442000C9442000C94420044
S11300300C9442000C9442000C9442000C94420034
S11300400C9442000C9442000C9442000C94420024
S11300500C9442000C9442000C9442000C94420014
S11300600C9442000C9442000C9442000C94420004
S113007011241FBECFEFD4E0DEBFCDBF0E944400E9
S11300800C9465000C9400008FEF8ABB86B9399AF2
S11300909BB38BBB2FEF3FEF9EE02150304090404D
S11300A0E1F700C00000D898D998DA98DB98DC987A
S11300B0DD98DE98DF982FEF3FEF9EE0215030402F
S11100C09040E1F700C00000E3CFF894FFCFBA
S9030000FC
