S011000041546D6567613136322E737265634B
S11300000C9438000C94D2000C9455000C945500B8
S11300100C9455000C9455000C9455000C94550008
S11300200C9455000C9455000C9455000C945500F8
S11300300C9455000C9455000C9455000C945500E8
S11300400C9455000C9455000C9455000C945500D8
S11300500C9455000C9455000C9455000C945500C8
S11300600C9455000C9455000C9455000C945500B8
S113007011241FBECFEFD4E0DEBFCDBF11E0A0E05E
S1130080B1E0ECE3FFE002C005900D92A63DB1079C
S1130090D9F721E0A6EDB1E001C01D92AF3EB20751
S11300A0E1F70E94F4020C949C070C94000040E6D3
S11300B060E680E60E946A0140E660E680E70E940E
S11300C06A0144E064E080E60E946A0144E064E07E
S11300D080E70E946A0140E060EE8FE00E946A01BE
S11300E08EE00E941C01807E39F086E091E00E943F
S11300F0760381E090E0089563E08BE20E9443017F
S113010085B7826085BF8BB780648BBF80E090E049
S11301100895EF92FF920F931F93CF93DF937C0187
S1130120FC016081718176956795769567957695E2
S1130130679581E30E944301F70160816295660F30
S1130140607E82E30E94430160E083E30E944301F6
S113015060E084E30E944301F701628185E30E9429
S11301604301F7018281882399F087010D5F1F4FB6
S1130170C0E0D0E0F80161918F018C2F8A5C0E946D
S113018043012196F701228130E0C217D30794F38B
S113019081E80E945B01DF91CF911F910F91FF9045
S11301A0EF9008951F920F920FB60F9211242F9380
S11301B03F934F935F936F937F938F939F93AF93EB
S11301C0BF93EF93FF938CE20E941C0180FF09C050
S11301D081E08093D60140E061E08CE20E946A01F4
S11301E00AC081FF08C082E08093D60140E062E04B
S11301F08CE20E946A01FF91EF91BF91AF919F91B0
S11302008F917F916F915F914F913F912F910F90BB
S11302100FBE0F901F90189580E090E00E94980107
S113022080EC0E948F0182E48A95F1F700C081E09E
S113023090E00E9498010895CF93C82F80E090E049
S11302400E94980183E00E948F018C2F0E948F01ED
S113025080E00E948F01C82F81E090E00E94980105
S11302608C2FCF9108950E940C018EE00E941C01F6
S1130270807E803831F083E391E00E94760381E050
S1130280089580E00895CF93DF93D82FC62F80E0A0
S113029090E00E94980182E00E948F018D2F0E94BD
S11302A08F018C2F0E948F0181E090E00E949801C1
S11302B0DF91CF910895CF93C82F80E090E00E9402
S11302C098018C2F0E948F0181E090E00E94980198
S11302D0CF9108951F93CF93DF93182FD62FC42F58
S11302E080E090E00E94980185E00E948F01812FB8
S11302F00E948F018D2F0E948F018C2F0E948F01ED
S113030081E090E00E949801DF91CF911F910895C0
S113031087B3806B87BB81E18DB96E9A08958FB9DD
S1130320779BFECF82E48A95F1F700C08FB10895E0
S11303308130910511F4C49A0895892B09F4C49865
S113034008955D9BFECF8CB908955F9BFECF8CB161
S1130350089520B5922B90BD99B1892B89B98AB1A2
S113036088618AB980B58E6880BD65EA71E081EAEA
S113037091E00E941703089585B7806885BF80B710
S1130380806280BF8B9880E090E00895843070F4A0
S11303908460809300148399FECF85EF90E00197E9
S11303A0F1F700C0000080910014089580E00895E2
S11303B0CF92DF92EF92FF92CF93DF93CDB7DEB768
S11303C02B970FB6F894DEBF0FBECDBF0E94A902D3
S11303D06B017C018091DF019091E0018E159F05F6
S11303E009F181E090E09A8389831C82ED8282E0A6
S11303F08B83CE0101960E9489008D811F928F9379
S113040084E691E09F938F930E946203C092DD0182
S1130410D092DE01E092DF01F092E0010F900F90A4
S11304200F900F902B960FB6F894DEBF0FBECDBF82
S1130430DF91CF91FF90EF90DF90CF900895CF920E
S1130440DF92EF92FF92CF93DF93CDB7DEB72B9776
S11304500FB6F894DEBF0FBECDBF0E94F1026B0150
S11304607C018091DB019091DC018E159F0511F1D7
S113047081E090E09A83898383E08C83ED8282E03B
S11304808B83CE0101960E9489008D811F928F93E8
S113049089E891E09F938F930E946203C092D901EF
S11304A0D092DA01E092DB01F092DC010F900F9020
S11304B00F900F902B960FB6F894DEBF0FBECDBFF2
S11304C0DF91CF91FF90EF90DF90CF9008950F933D
S11304D01F93CF93DF93CDB7DEB72B970FB6F89466
S11304E0DEBF0FBECDBF0E94D1028C0181309105C9
S11304F009F58091D7019091D801892BD9F481E035
S113050090E09A83898384E08C8381E08D8382E008
S11305108B83CE0101960E9489008D811F928F9357
S113052088EA91E09F938F930E9462030F900F904B
S11305300F900F901093D8010093D7012B960FB60C
S1130540F894DEBF0FBECDBFDF91CF911F910F9105
S11305500895CF9380E00E94C601C82F8CEC94E0EC
S11305600197F1F700C0000081E00E94C601282F26
S11305706C2F70E0822F90E0CF9108950E94A90221
S11305806093E1017093E2018093E3019093E401AD
S113059008950E94BE02B898C09A0895B998BA986E
S11305A00895B19906C086B382FB882780F990E04C
S11305B0089581E090E00895CF9383E00E94C601FE
S11305C0C82F8CEC94E00197F1F700C0000082E0A2
S11305D00E94C601282F6C2F70E0822F90E0CF91EB
S11305E008950E94DC020895F8948FE190E00E943F
S11305F0A9010E94BC010E94C9020E94CE020E946D
S113060088010E9433010E94570088EC91E00E9407
S1130610760378940E94D8010E941F020E94670208
S11306208CEC94E00197F1F700C00000F3CF0F9336
S11306301F93CF93DF93EC018B01009731F4611585
S1130640710519F480E090E038C06EE070E081E05C
S113065090E00E947505FC010097A1F380E8838374
S11306600115110571F01387028781E88383809156
S1130670E5019091E601892B21F4F093E601E093E2
S1130680E5012097C9F0D187C08783818260838385
S11306908091E7019091E801892B71F4F093E801CE
S11306A0E093E7018091E9019091EA01892B21F41B
S11306B0F093EA01E093E901CF01DF91CF911F911B
S11306C00F910895A0E0B0E0E8E6F3E00C9475071C
S11306D0FE01359661917191AF018091E70190918E
S11306E0E8010E94A303E2E00C9491070F931F9387
S11306F0CF93DF93E091E701F091E801238121FF9B
S11307001BC0EC0100E010E089916091E701709159
S1130710E801DB011896ED91FC911997882331F0DB
S11307200995892B89F30FEF1FEFEECF8AE0099526
S1130730892B11F4C80102C08FEF9FEFDF91CF9195
S11307401F910F910895ACE0B0E0E9EAF3E00C9456
S113075065077C016B018A01FC0117821682838183
S113076081FFBDC1CE0101964C01F7019381F601D1
S113077093FD859193FF81916F01882309F4ABC1A7
S1130780853239F493FD859193FF81916F01853210
S113079029F4B70190E00E94D506E7CF512C312C03
S11307A020E02032A0F48B3269F030F4803259F02A
S11307B0833269F420612CC08D3239F0803339F4EE
S11307C0216026C02260246023C0286021C027FD48
S11307D027C030ED380F3A3078F426FF06C0FAE02F
S11307E05F9E300D1124532E13C08AE0389E300DC5
S11307F01124332E20620CC08E3221F426FD6BC1ED
S1130800206406C08C3611F4206802C0883641F496
S1130810F60193FD859193FF81916F018111C1CF01
S1130820982F9F7D9554933028F40C5F1F4FFFE35E
S1130830F9830DC0833631F0833771F0833509F0C5
S11308405BC022C0F801808189830E5F1F4F44245E
S11308504394512C540115C03801F2E06F0E711C01
S1130860F801A080B18026FF03C0652D70E002C0AE
S11308706FEF7FEFC5012C870E94CA062C0183010C
S11308802C852F77222E17C03801F2E06F0E711CD1
S1130890F801A080B18026FF03C0652D70E002C07E
S11308A06FEF7FEFC5012C870E94B8062C012C85C1
S11308B02068222E830123FC1BC0832D90E0481660
S11308C05906B0F4B70180E290E00E94D5063A944C
S11308D0F4CFF50127FC859127FE81915F01B701D3
S11308E090E00E94D50631103A94F1E04F1A510875
S11308F04114510471F7E5C0843611F0893639F595
S1130900F80127FF07C060817181828193810C5FA8
S11309101F4F08C060817181882777FD8095982FCB
S11309200E5F1F4F2F76B22E97FF09C090958095CA
S1130930709561957F4F8F4F9F4F2068B22E2AE0AC
S113094030E0A4010E940707A82EA81844C08537E8
S113095029F42F7EB22E2AE030E025C0F22FF97F51
S1130960BF2E8F36C1F018F4883579F0B4C08037C3
S113097019F0883721F0AFC02F2F2061B22EB4FEBA
S11309800DC08B2D8460B82E09C024FF0AC09F2F90
S11309909660B92E06C028E030E005C020E130E0C2
S11309A002C020E132E0F801B7FE07C06081718126
S11309B0828193810C5F1F4F06C06081718180E04A
S11309C090E00E5F1F4FA4010E940707A82EA818ED
S11309D0FB2DFF77BF2EB6FE0BC02B2D2E7FA5144B
S11309E050F4B4FE0AC0B2FC08C02B2D2E7E05C004
S11309F07A2C2B2D03C07A2C01C0752C24FF0DC03A
S1130A00FE01EA0DF11D8081803311F4297E09C0B5
S1130A1022FF06C07394739404C0822F867809F071
S1130A20739423FD13C020FF06C05A2C731418F4CA
S1130A30530C5718732C731468F4B70180E290E0D8
S1130A402C870E94D50673942C85F5CF731410F46B
S1130A50371801C0312C24FF12C0B70180E390E0A5
S1130A602C870E94D5062C8522FF17C021FF03C0C6
S1130A7088E590E002C088E790E0B7010CC0822FBF
S1130A80867859F021FD02C080E201C08BE227FD87
S1130A908DE2B70190E00E94D506A51438F4B701A1
S1130AA080E390E00E94D5065A94F7CFAA94F4010B
S1130AB0EA0DF11D8081B70190E00E94D506A110D6
S1130AC0F5CF332009F451CEB70180E290E00E94C3
S1130AD0D5063A94F6CFF7018681978102C08FEF4D
S1130AE09FEF2C96E2E10C9481070F931F93CF9311
S1130AF0DF93869F8001879F100D969F100D112410
S1130B00C8010E949105EC01009729F0A80160E05A
S1130B1070E00E94C306CE01DF91CF911F910F9127
S1130B200895CF93DF938230910510F482E090E032
S1130B30E091ED01F091EE0120E030E0A0E0B0E0C2
S1130B40309739F14081518148175907B8F0481757
S1130B50590771F482819381109729F013969C931D
S1130B608E9312972CC09093EE018093ED0127C0D1
S1130B702115310531F04217530718F0A901DB01A3
S1130B8001C0EF019A01BD01DF010280F381E02D74
S1130B90D7CF21153105F9F0281B390B2430310545
S1130BA080F48A819B816115710521F0FB01938397
S1130BB0828304C09093EE018093ED01FE0132968E
S1130BC044C0FE01E20FF31F819391932250310937
S1130BD0398328833AC02091EB013091EC01232B17
S1130BE041F420910201309103013093EC012093F0
S1130BF0EB0120910001309101012115310541F4EF
S1130C002DB73EB74091040150910501241B350BCB
S1130C10E091EB01F091EC01E217F307A0F42E1B35
S1130C203F0B2817390778F0AC014E5F5F4F24174C
S1130C30350748F04E0F5F1F5093EC014093EB01D2
S1130C408193919302C0E0E0F0E0CF01DF91CF9176
S1130C500895CF93DF93009709F487C0FC0132977E
S1130C6013821282C091ED01D091EE01209781F49C
S1130C7020813181280F391F8091EB019091EC0183
S1130C808217930779F5F093EC01E093EB016DC0C3
S1130C90DE0120E030E0AE17BF0750F412964D910C
S1130CA05C9113979D014115510509F1DA01F3CFC8
S1130CB0B383A28340815181840F951F8A179B07B8
S1130CC071F48D919C911197840F951F02969183D5
S1130CD0808312968D919C9113979383828321151F
S1130CE0310529F4F093EE01E093ED013EC0D90102
S1130CF01396FC93EE9312974D915D91A40FB51F3B
S1130D00EA17FB0779F480819181840F951F02967D
S1130D10D90111969C938E938281938113969C930F
S1130D208E931297E0E0F0E08A819B81009719F09E
S1130D30FE01EC01F9CFCE01029628813981820FA0
S1130D40931F2091EB013091EC012817390769F4C6
S1130D50309729F41092EE011092ED0102C0138233
S1130D601282D093EC01C093EB01DF91CF910895EF
S1130D70FC010590615070400110D8F78095909562
S1130D808E0F9F1F0895DC0101C06D9341505040A8
S1130D90E0F70895FC016150704001900110D8F70C
S1130DA0809590958E0F9F1F08950F931F93CF9357
S1130DB0DF93182F092FEB018B8181FD03C08FEF87
S1130DC09FEF20C082FF10C04E815F812C813D8146
S1130DD0421753077CF4E881F9819F012F5F3F4F4D
S1130DE039832883108306C0E885F985812F099506
S1130DF0892B29F72E813F812F5F3F4F3F832E831D
S1130E00812F902FDF91CF911F910F910895FA01B7
S1130E10AA27283051F1203181F1E8946F936E7F35
S1130E206E5F7F4F8F4F9F4FAF4FB1E03ED0B4E026
S1130E303CD0670F781F891F9A1FA11D680F791F67
S1130E408A1F911DA11D6A0F711D811D911DA11D78
S1130E5020D009F468943F912AE0269F1124301988
S1130E60305D3193DEF6CF010895462F4770405D23
S1130E704193B3E00FD0C9F7F6CF462F4F70405DD2
S1130E804A3318F0495D31FD4052419302D0A9F72D
S1130E90EACFB4E0A6959795879577956795BA9527
S1130EA0C9F700976105710508959B01AC010A2EED
S1130EB006945795479537952795BA95C9F7620FC4
S1130EC0731F841F951FA01D08952F923F924F9268
S1130ED05F926F927F928F929F92AF92BF92CF92C6
S1130EE0DF92EF92FF920F931F93CF93DF93CDB7CF
S1130EF0DEB7CA1BDB0B0FB6F894DEBF0FBECDBF47
S1130F0009942A88398848885F846E847D848C8417
S1130F109B84AA84B984C884DF80EE80FD800C8120
S1130F201B81AA81B981CE0FD11D0FB6F894DEBF03
S10F0F300FBECDBFED010895F894FFCF73
S1130F3C0000EF0120004D435032353135206973E8
S1130F4C204E4F5420696E206E6F726D616C206D53
S1130F5C6F64652061667465722043414E20696E2E
S1130F6C6974004D435032353135206973204E4F2E
S1130F7C5420696E20636F6E66696775726174695B
S1130F8C6F6E206D6F646520616674657220726586
S1130F9C736574000A0A53656E74206A6F797374EE
S1130FAC69636B20706F736974696F6E202878297C
S1130FBC3A2028256429200A000A0A53656E7420F5
S1130FCC736C6964657220706F736974696F6E3ABF
S1130FDC2028256429200A000A0A53656E742062AD
S1130FEC7574746F6E207072657373202878293A47
S1130FFC2028256429200A000A0A0A496E697420EB
S109100C646F6E65000034
S9030000FC
