S011000041546D6567613136322E737265634B
S11300000C9438000C9455000C9455000C94550035
S11300100C9455000C9455000C9455000C94550008
S11300200C9455000C9455000C9455000C945500F8
S11300300C9455000C9455000C9455000C945500E8
S11300400C9455000C9455000C9455000C945500D8
S11300500C9455000C9455000C9455000C945500C8
S11300600C9455000C9455000C9455000C945500B8
S113007011241FBECFEFD4E0DEBFCDBF11E0A0E05E
S1130080B1E0E6EEF6E002C005900D92AA30B107A9
S1130090D9F721E0AAE0B1E001C01D92A831B2076E
S11300A0E1F70E94CB010C9471030C94000085B716
S11300B0806885BF80B7806280BF8B9880E090E0C5
S11300C00895843040F48460809300148399FECFB3
S11300D080910014089580E00895CF9380E00E94F9
S11300E06100C82F8CEC94E00197F1F700C0000088
S11300F081E00E946100282F6C2F70E0822F90E035
S1130100CF9108950E946D0060930A0170930B01D2
S113011080930C0190930D0108950E948200B89879
S1130120C09A0895E0910801F091090191E2908349
S1130130E0910801F09109018083E0910801F091B8
S113014009018FE780830895E0910801F091090186
S113015092E29083E0910801F09109018083E0919B
S11301600801F091090187E080830895CF93C62F99
S11301700E94A4008C2F0E949200CF91089560E009
S113018080E00E94B600089560E00E94B60080E01E
S1130190E0910601F091070110828F5F8038C1F76A
S11301A00895CF93C0E08C2F0E94C400CF5FC83065
S11301B0D1F70E94BF00CF910895E0910801F0911A
S11301C009018EEA8083E0910801F091090181EA36
S11301D08083E0910801F09109018AED8083E09128
S11301E00801F091090182E18083E0910801F09116
S11301F0090188EC8083E0910801F091090188EA03
S11302008083E0910801F09109018FE38083E091FC
S11302100801F091090185ED8083E0910801F091D6
S1130220090180E88083E0910801F091090181E8E7
S11302308083E0910801F091090180E58083E091D9
S11302400801F091090189ED8083E0910801F091A2
S1130250090181E28083E0910801F091090180E2C3
S11302608083E0910801F09109011082E091080176
S1130270F09109018BED8083E0910801F09109016F
S113028080E38083E0910801F09109018DEA808385
S1130290E0910801F09109011082E0910801F091C8
S11302A0090184EA8083E0910801F091090186EA5A
S11302B08083E0910801F09109018FEA80830E9414
S11302C0D100089560E282E00E94B6008AE090E0E6
S11302D02FEFE0910601F091070120830197009729
S11302E0C1F765E582E00E94B6008AE090E02FEF56
S11302F0E0910601F0910701208301970097C1F76F
S113030060E284E00E94B6008FE390E020EFE09189
S11303100601F0910701208301970097C1F76AE273
S113032085E00E94B6008BE290E02FEFE091060199
S1130330F0910701208301970097C1F769E386E0F4
S11303400E94B6008DE090E02FEFE0910601F0915D
S11303500701208301970097C1F70895B998BA98C7
S113036008955D9BFECF8CB908958BB18CB108952F
S113037020B5922B90BD99B1892B89B98AB1886136
S11303808AB980B58E6880BD65EB71E081EB91E040
S11303900E94DC0108958FE190E00E94B8010E9460
S11303A057000E948D000E94AE010E94DD000E9451
S11303B0620180E090E008950F931F93CF93DF9341
S11303C0EC018B01009731F46115710519F480E09B
S11303D090E038C06EE070E081E090E00E94270277
S11303E0FC010097A1F380E883830115110571F0E6
S11303F01387028781E8838380910E0190910F0116
S1130400892B21F4F0930F01E0930E012097C9F09A
S1130410D187C0878381826083838091100190910A
S11304201101892B71F4F0931101E0931001809173
S1130430120190911301892B21F4F0931301E0939D
S11304401201CF01DF91CF911F910F9108950F9366
S11304501F93CF93DF93869F8001879F100D969FF4
S1130460100D1124C8010E944302EC01009729F0E9
S1130470A80160E070E00E946A03CE01DF91CF9191
S11304801F910F910895CF93DF938230910510F45B
S113049082E090E0E0911601F091170120E030E055
S11304A0A0E0B0E0309739F14081518148175907F5
S11304B0B8F04817590771F482819381109729F095
S11304C013969C938E9312972CC09093170180934C
S11304D0160127C02115310531F04217530718F0D2
S11304E0A901DB0101C0EF019A01BD01DF01028016
S11304F0F381E02DD7CF21153105F9F0281B390BF5
S11305002430310580F48A819B816115710521F0C5
S1130510FB019383828304C0909317018093160197
S1130520FE01329644C0FE01E20FF31F81939193C2
S113053022503109398328833AC020911401309123
S11305401501232B41F420910201309103013093D2
S1130550150120931401209100013091010121150E
S1130560310541F42DB73EB7409104015091050186
S1130570241B350BE0911401F0911501E217F307E8
S1130580A0F42E1B3F0B2817390778F0AC014E5FFF
S11305905F4F2417350748F04E0F5F1F5093150126
S11305A0409314018193919302C0E0E0F0E0CF0105
S11305B0DF91CF910895CF93DF93009709F487C01B
S11305C0FC01329713821282C0911601D091170157
S11305D0209781F420813181280F391F80911401E3
S11305E0909115018217930779F5F0931501E09323
S11305F014016DC0DE0120E030E0AE17BF0750F4F7
S113060012964D915C9113979D014115510509F185
S1130610DA01F3CFB383A28340815181840F951F04
S11306208A179B0771F48D919C911197840F951FE4
S113063002969183808312968D919C911397938354
S113064082832115310529F4F0931701E0931601F3
S11306503EC0D9011396FC93EE9312974D915D9190
S1130660A40FB51FEA17FB0779F480819181840FE9
S1130670951F0296D90111969C938E938281938142
S113068013969C938E931297E0E0F0E08A819B810D
S1130690009719F0FE01EC01F9CFCE0102962881F2
S11306A03981820F931F209114013091150128176D
S11306B0390769F4309729F4109217011092160142
S11306C002C013821282D0931501C0931401DF91EA
S11306D0CF910895DC0101C06D9341505040E0F783
S10906E00895F894FFCF19
S10D06E600001801200000120010AB
S9030000FC
