S011000041546D6567613136322E737265634B
S11300000C9426010C94C0010C9443010C944301FC
S11300100C9443010C9443010C9443010C9443014C
S11300200C9443010C9443010C9443010C9443013C
S11300300C9443010C9443010C9443010C9443012C
S11300400C9443010C9443010C9443010C9443011C
S11300500C9443010C9443010C9443010C9443010C
S11300600C9443010C9443010C9443010C944301FC
S1130070000000000000005F0000000700070014FB
S11300807F147F14242A7F2A1223130864623649BA
S11300905522500005030000001C224100004122AB
S11300A01C00082A1C2A0808083E080800503000D2
S11300B00008080808080060600000201008040216
S11300C03E5149453E00427F40004261514946212C
S11300D041454B311814127F1027454545393C4A98
S11300E049493001710905033649494936064949E8
S11300F0291E00363600000056360000000814227F
S11301004114141414144122140800020151090664
S1130110324979413E7E1111117E7F494949363E6B
S1130120414141227F4141221C7F494949417F0984
S11301300901013E414151327F0808087F00417F97
S113014041002040413F017F081422417F4040404C
S1130150407F0204027F7F0408107F3E4141413EFC
S11301607F090909063E4151215E7F091929464646
S11301704949493101017F01013F4040403F1F206F
S113018040201F7F2018207F631408146303047821
S11301900403615149454300007F414102040810B2
S11301A02041417F000004020102044040404040DD
S11301B0000102040020545454787F4844443838E1
S11301C044444420384444487F3854545418087EE6
S11301D0090102081454543C7F0804047800447D47
S11301E040002040443D00007F10284400417F40EF
S11301F0007C041804787C080404783844444438A7
S11302007C14141408081414187C7C08040408488A
S113021054545420043F4440203C4040207C1C2043
S113022040201C3C4030403C44281028440C505092
S1130230503C4464544C44000836410000007F00A4
S113024000004136080002010302010011241FBE10
S1130250CFEFD4E0DEBFCDBF13E0A0E0B1E0E6EF26
S1130260F8E102C005900D92A035B107D9F723E05B
S1130270A0E5B3E001C01D92A437B207E1F70E94E4
S1130280F2050C94790C0C94000040E660E680E6DC
S11302900E94580240E660E680E70E94580244E06B
S11302A064E080E60E94580244E064E080E70E9433
S11302B0580240E060EE8FE00E9458028EE00E94F7
S11302C00A02807E39F08EE092E00E94530881E0B9
S11302D090E0089563E08BE20E94310285B782606A
S11302E085BF8BB780648BBF80E090E00895EF9268
S11302F0FF920F931F93CF93DF937C01FC016081E6
S1130300718176956795769567957695679581E37E
S11303100E943102F70160816295660F607E82E37C
S11303200E94310260E083E30E94310260E084E3D2
S11303300E943102F701628185E30E943102F701D4
S11303408281882399F087010D5F1F4FC0E0D0E0C0
S1130350F80161918F018C2F8A5C0E9431022196F1
S1130360F701228130E0C217D30794F381E80E9499
S11303704902DF91CF911F910F91FF90EF90089563
S11303801F920F920FB60F9211242F933F934F9306
S11303905F936F937F938F939F93AF93BF93EF93E9
S11303A0FF938CE20E940A0280FF09C081E08093DF
S11303B0500340E061E08CE20E9458020AC081FFD1
S11303C008C082E08093500340E062E08CE20E9427
S11303D05802FF91EF91BF91AF919F918F917F91BF
S11303E06F915F914F913F912F910F900FBE0F909E
S11303F01F90189580E090E00E94860280EC0E9495
S11304007D0282E48A95F1F700C081E090E00E94C9
S113041086020895CF93C82F80E090E00E94860260
S113042083E00E947D028C2F0E947D0280E00E9466
S11304307D02C82F81E090E00E9486028C2FCF912C
S113044008950E94FA018EE00E940A02807E80389C
S113045031F08BE392E00E94530881E0089580E03C
S11304600895CF93DF93D82FC62F80E090E00E94A9
S1130470860282E00E947D028D2F0E947D028C2FD5
S11304800E947D0281E090E00E948602DF91CF917C
S11304900895CF93C82F80E090E00E9486028C2FAD
S11304A00E947D0281E090E00E948602CF9108952F
S11304B01F93CF93DF93182FD62FC42F80E090E0A3
S11304C00E94860285E00E947D02812F0E947D02A7
S11304D08D2F0E947D028C2F0E947D0281E090E08E
S11304E00E948602DF91CF911F91089587B3806B9C
S11304F087BB81E18DB96E9A08958FB9779BFECF42
S113050082E48A95F1F700C08FB108958130910596
S113051011F4C49A0895892B09F4C49808955D9B35
S1130520FECF8CB908955F9BFECF8CB1089520B5A2
S1130530922B90BD99B1892B89B98AB188618AB906
S113054080B58E6880BD63E972E08FE892E00E9416
S1130550F407089585B7806885BF80B7806280BF3F
S11305608B9880E090E00895843070F484608093E8
S113057000148399FECF85EF90E00197F1F700C056
S1130580000080910014089580E00895CF92DF92D6
S1130590EF92FF92CF93DF93CDB7DEB72B970FB6D1
S11305A0F894DEBF0FBECDBF0E94CF036B017C0168
S11305B08091590390915A039701281B390BC90163
S11305C0992324F488279927821B930B06970CF10F
S11305D081E090E09A8389831C82ED8282E08B83A0
S11305E0CE0101960E9477018D811F928F938CE634
S11305F092E09F938F930E943F08C0925703D0923A
S11306005803E0925903F0925A030F900F900F9001
S11306100F902B960FB6F894DEBF0FBECDBFDF91BF
S1130620CF91FF90EF90DF90CF900895CF92DF921B
S1130630EF92FF92CF93DF93CDB7DEB72B970FB630
S1130640F894DEBF0FBECDBF0E94EF056B017C01A5
S113065080915503909156039701281B390BC901CA
S1130660992324F488279927821B930B069714F166
S113067081E090E09A83898383E08C83ED8282E039
S11306808B83CE0101960E9477018D811F928F93F7
S113069081E992E09F938F930E943F08C092530395
S11306A0D0925403E0925503F09256030F900F90AA
S11306B00F900F902B960FB6F894DEBF0FBECDBFF0
S11306C0DF91CF91FF90EF90DF90CF9008950F933B
S11306D01F93CF93DF93CDB7DEB72B970FB6F89464
S11306E0DEBF0FBECDBF0E94CF058C0181309105C6
S11306F009F58091510390915203892BD9F481E03B
S113070090E09A83898384E08C8381E08D8382E006
S11307108B83CE0101960E9477018D811F928F9366
S113072080EB92E09F938F930E943F080F900F906D
S11307300F900F9010935203009351032B960FB612
S1130740F894DEBF0FBECDBFDF91CF911F910F9103
S11307500895CF93DF93CDB7DEB72B970FB6F894F8
S1130760DEBF0FBECDBF21E030E03A83298396E09F
S11307709C838D8382E08B83CE0101960E94770156
S11307802B960FB6F894DEBF0FBECDBFDF91CF918D
S1130790089596B381E08927817090E00895CF93FE
S11307A080E00E94B402C82F8CEC94E00197F1F72A
S11307B000C0000081E00E94B402282F6C2F70E07A
S11307C0822F90E0CF9108950E94CF0360935D0340
S11307D070935E0380935F039093600308950E9477
S11307E0E403B898C09A08950F931F93CF930E947F
S11307F0CF038B019C0160915D0370915E03A8019E
S1130800461B570BE4E6E49FC001E59F900D1124BD
S11308100E94CC07C62FF72F60915F03709160038D
S1130820261B370BE29FC001E39F900D11240E9409
S1130830CC079B016C394FEF740714F42CE93FEF9C
S11308408C2F9F2F8C394FEF940714F48CE99FEF72
S1130850AC018536910514F044E650E0BA01253622
S1130860310514F024E630E0C901CF911F910F91B6
S113087008950E94F4039B01AC01FC017D96FB9753
S113088020F4FB017D96FB97D8F0DC01552324F47A
S1130890AA27BB27A81BB90BFB01332324F4EE279B
S11308A0FF27E61BF70BEA17FB072CF414161506B3
S11308B04CF482E008951216130634F483E008958C
S11308C080E0089581E0089584E00895E0910801AE
S11308D0F091090180830895E0910801F0910901E4
S11308E091E29083E0910801F09109018083E09105
S11308F00801F09109018FE780830895E0910801D0
S1130900F091090192E29083E0910801F0910901CC
S11309108083E0910801F091090187E080830895C4
S1130920CF93C62F0E947E048C2F0E946C04CF911B
S1130930089560E080E00E949004089560E00E94C1
S1130940900480E0E0910601F091070110828F5F2E
S11309508038C1F70895CF93C0E08C2F0E949E0485
S1130960CF5FC830D1F70E949904CF910895E091E8
S11309700801F09109018EEA8083E0910801F09169
S1130980090181EA8083E0910801F09109018AED6F
S11309908083E0910801F091090182E18083E09174
S11309A00801F091090188EC8083E0910801F0913D
S11309B0090188EA8083E0910801F09109018FE33D
S11309C08083E0910801F091090185ED8083E09135
S11309D00801F091090180E88083E0910801F09119
S11309E0090181E88083E0910801F091090180E523
S11309F08083E0910801F091090189ED8083E09101
S1130A000801F091090181E28083E0910801F091ED
S1130A10090180E28083E0910801F09109011082CC
S1130A20E0910801F09109018BED8083E0910801C8
S1130A30F091090180E38083E0910801F0910901BC
S1130A408DEA8083E0910801F09109011082E09120
S1130A500801F091090184EA8083E0910801F09192
S1130A60090186EA8083E0910801F09109018FEA87
S1130A7080830E94AB04E0910801F091090183EDA9
S1130A808083E0910801F091090110820895E091BA
S1130A900801F091090191E89083E0910801F09137
S1130AA0090180830895CF93DF93EC01862F988109
S1130AB09A3029F460E08F5F0E9490041CC020E00B
S1130AC030E0488150E040525109FA01EE0FFF1F17
S1130AD0EE0FFF1FE40FF51FE20FF31FE059FF4F66
S1130AE0E491A0910601B0910701EC932F5F3F4F71
S1130AF02530310531F7DF91CF9108951F93CF93BE
S1130B00DF93162FFC012081222359F0EC0121965A
S1130B10612F0E945305CE012196FC0120812111F1
S1130B20F7CFDF91CF911F910895E0910601F091E5
S1130B30070188E18083E0910601F0910701808339
S1130B40E0910601F09107018083E0910601F091A4
S1130B5007018083E0910601F09107018083E09111
S1130B600601F09107019FEF9083E0910601F09157
S1130B7007019EE79083E0910601F09107019CE351
S1130B809083E0910601F09107018083E0910601D2
S1130B90F091070110820895B998BA980895B1990F
S1130BA006C086B382FB882780F990E0089581E02F
S1130BB090E00895CF9383E00E94B402C82F8CEC98
S1130BC094E00197F1F700C0000082E00E94B402B3
S1130BD0282F6C2F70E0822F90E0CF9108950E940F
S1130BE0DA050895F8948FE190E00E9497020E943C
S1130BF0AA020E94EF030E94CC050E94B7040E943F
S1130C009F070E9476020E9421020E94450180ED06
S1130C1092E00E94530880E00E94BC0778940E94EE
S1130C20BF07813049F018F0823069F013C00E9488
S1130C30A2060E942B0711C00E94C7070E94A903A5
S1130C4082E00E94BC070E94C6020E9416030E9412
S1130C50670303C080E00E94BC078CEC94E001971A
S1130C60F1F700C00000DBCFCF93DF93E091630383
S1130C70F09164038289938901960297B4F0C1E0EC
S1130C80D0E060E08C2F0E9490046C2F8DED92E0F8
S1130C900E947E052196E0916303F09164038289AA
S1130CA093890196C817D90764F360E080916103C2
S1130CB00E9490040E949505DF91CF910895CF93EF
S1130CC0DF930E94AB04E0916303F091640360E05E
S1130CD0808191810E947E058091650390916603D5
S1130CE0892B11F00E943406E0916303F0916403B0
S1130CF0828993891816190614F5C0E0D0E08AE0B9
S1130D000E946C046C2F6F5F809163039091640365
S1130D10FE013296EE0FFF1FE80FF91F0190F081DC
S1130D20E02D808191810E947E052196E0916303EC
S1130D30F091640382899389C817D90704F3DF917A
S1130D40CF9108950E94C903892B29F40E94390484
S1130D50823009F07FC0E0916503F091660330971B
S1130D6009F478C084819581009789F0F093640335
S1130D70E0936303909366038093650381E090E0BE
S1130D8090936203809361030E945F065BC081E0DD
S1130D90EE36F80709F456C081E0E233F80721F48F
S1130DA080E10E9447054EC081E0EE31F80721F44E
S1130DB080E50E94470546C081E0EA30F80721F447
S1130DC080EF0E9447053EC081E0E634F807C1F495
S1130DD080915B0390915C03892B51F487EA0E9414
S1130DE0660481E090E090935C0380935B032AC0E7
S1130DF086EA0E94660410925C0310925B0322C090
S1130E0081E0EA3AF80741F481E090E00E94C207E9
S1130E1081E00E94BC0716C081E0E639F80741F47E
S1130E2082E090E00E94C20781E00E94BC070AC0F1
S1130E30E258F14039F483E090E00E94C20781E077
S1130E400E94BC070E94C903892BE1F70E94390460
S1130E508230C1F308950E943904833039F184301B
S1130E6009F447C0813009F069C00E943904813017
S1130E70E1F3E0916303F09164030280F381E02DD8
S1130E80309709F45BC081E090E090936203809313
S1130E906103F0936403E0936303848195819093E9
S1130EA06603809365030E945F0608950E943904D7
S1130EB08330E1F380916103909162038230910564
S1130EC0ECF19C01215031093093620320936103BA
S1130ED0E0916303F0916403880F991FE80FF91FF1
S1130EE08081918190936603809365030E94340608
S1130EF008950E9439048430E1F3E0916303F09192
S1130F00640380916103909162032289338982177B
S1130F109307A4F49C012F5F3F4F30936203209307
S1130F2061030296880F991FE80FF91F8081918150
S1130F3090936603809365030E94340608958AEFB4
S1130F4091E090936403809363038091FE019091F8
S1130F50FF01909366038093650381E090E0909392
S1130F606203809361030E945F060E9434060E941C
S1130F70A2060E942B070895809367030895809129
S1130F80670308959093690380936803089580919B
S1130F90680390916903089597FB072E16F4009453
S1130FA007D077FD09D00E94E00707FC05D03EF486
S1130FB0909581959F4F0895709561957F4F089501
S1130FC0AA1BBB1B51E107C0AA1FBB1FA617B7076B
S1130FD010F0A61BB70B881F991F5A95A9F7809587
S1130FE09095BC01CD0108950F931F93CF93DF9388
S1130FF0EC018B01009731F46115710519F480E05F
S113100090E038C06EE070E081E090E00E94520A07
S1131010FC010097A1F380E883830115110571F0A9
S11310201387028781E8838380916A0390916B031D
S1131030892B21F4F0936B03E0936A032097C9F0A2
S1131040D187C08783818260838380916C03909170
S11310506D03892B71F4F0936D03E0936C0380911D
S11310606E0390916F03892B21F4F0936F03E09347
S11310706E03CF01DF91CF911F910F910895A0E0EE
S1131080B0E0E5E4F8E00C94520CFE013596619171
S11310907191AF0180916C0390916D030E9480085F
S11310A0E2E00C946E0C0F931F93CF93DF93E091C7
S11310B06C03F0916D03238121FF1BC0EC0100E060
S11310C010E0899160916C0370916D03DB011896B7
S11310D0ED91FC911997882331F00995892B89F3B7
S11310E00FEF1FEFEECF8AE00995892B11F4C801A9
S11310F002C08FEF9FEFDF91CF911F910F91089561
S1131100ACE0B0E0E6E8F8E00C94420C7C016B0142
S11311108A01FC0117821682838181FFBDC1CE0141
S113112001964C01F7019381F60193FD859193FF9C
S113113081916F01882309F4ABC1853239F493FDA1
S1131140859193FF81916F01853229F4B70190E075
S11311500E94B20BE7CF512C312C20E02032A0F4B6
S11311608B3269F030F4803259F0833269F42061B3
S11311702CC08D3239F0803339F4216026C02260CE
S1131180246023C0286021C027FD27C030ED380F1C
S11311903A3078F426FF06C0FAE05F9E300D112441
S11311A0532E13C08AE0389E300D1124332E206252
S11311B00CC08E3221F426FD6BC1206406C08C362F
S11311C011F4206802C0883641F4F60193FD85913C
S11311D093FF81916F018111C1CF982F9F7D955409
S11311E0933028F40C5F1F4FFFE3F9830DC083365F
S11311F031F0833771F0833509F05BC022C0F80108
S1131200808189830E5F1F4F44244394512C5401E1
S113121015C03801F2E06F0E711CF801A080B18096
S113122026FF03C0652D70E002C06FEF7FEFC5019C
S11312302C870E94A70B2C0183012C852F77222E4B
S113124017C03801F2E06F0E711CF801A080B18064
S113125026FF03C0652D70E002C06FEF7FEFC5016C
S11312602C870E94950B2C012C852068222E83014B
S113127023FC1BC0832D90E048165906B0F4B70137
S113128080E290E00E94B20B3A94F4CFF50127FC7F
S1131290859127FE81915F01B70190E00E94B20B16
S11312A031103A94F1E04F1A51084114510471F786
S11312B0E5C0843611F0893639F5F80127FF07C0F7
S11312C060817181828193810C5F1F4F08C06081AE
S11312D07181882777FD8095982F0E5F1F4F2F7699
S11312E0B22E97FF09C090958095709561957F4FB8
S11312F08F4F9F4F2068B22E2AE030E0A4010E9455
S1131300E40BA82EA81844C0853729F42F7EB22EEA
S11313102AE030E025C0F22FF97FBF2E8F36C1F0CE
S113132018F4883579F0B4C0803719F0883721F083
S1131330AFC02F2F2061B22EB4FE0DC08B2D846060
S1131340B82E09C024FF0AC09F2F9660B92E06C08C
S113135028E030E005C020E130E002C020E132E0C6
S1131360F801B7FE07C060817181828193810C5FAF
S11313701F4F06C06081718180E090E00E5F1F4FB7
S1131380A4010E94E40BA82EA818FB2DFF77BF2E02
S1131390B6FE0BC02B2D2E7FA51450F4B4FE0AC04C
S11313A0B2FC08C02B2D2E7E05C07A2C2B2D03C039
S11313B07A2C01C0752C24FF0DC0FE01EA0DF11D2D
S11313C08081803311F4297E09C022FF06C0739402
S11313D0739404C0822F867809F0739423FD13C09C
S11313E020FF06C05A2C731418F4530C5718732C8E
S11313F0731468F4B70180E290E02C870E94B20B6A
S113140073942C85F5CF731410F4371801C0312C64
S113141024FF12C0B70180E390E02C870E94B20B36
S11314202C8522FF17C021FF03C088E590E002C08D
S113143088E790E0B7010CC0822F867859F021FD2F
S113144002C080E201C08BE227FD8DE2B70190E08B
S11314500E94B20BA51438F4B70180E390E00E9417
S1131460B20B5A94F7CFAA94F401EA0DF11D8081CE
S1131470B70190E00E94B20BA110F5CF332009F41C
S113148051CEB70180E290E00E94B20B3A94F6CFBD
S1131490F7018681978102C08FEF9FEF2C96E2E1DE
S11314A00C945E0C0F931F93CF93DF93869F800160
S11314B0879F100D969F100D1124C8010E946E0A7B
S11314C0EC01009729F0A80160E070E00E94A00BF5
S11314D0CE01DF91CF911F910F910895CF93DF93A8
S11314E08230910510F482E090E0E0917203F09173
S11314F0730320E030E0A0E0B0E0309739F14081A0
S1131500518148175907B8F04817590771F4828177
S11315109381109729F013969C938E9312972CC065
S1131520909373038093720327C02115310531F022
S11315304217530718F0A901DB0101C0EF019A011A
S1131540BD01DF010280F381E02DD7CF21153105E4
S1131550F9F0281B390B2430310580F48A819B81F2
S11315606115710521F0FB019383828304C090937C
S1131570730380937203FE01329644C0FE01E20FAE
S1131580F31F8193919322503109398328833AC000
S11315902091700330917103232B41F420910201B7
S11315A03091030130937103209370032091000163
S11315B0309101012115310541F42DB73EB7409119
S11315C0040150910501241B350BE0917003F09147
S11315D07103E217F307A0F42E1B3F0B28173907FA
S11315E078F0AC014E5F5F4F2417350748F04E0F7B
S11315F05F1F50937103409370038193919302C0D2
S1131600E0E0F0E0CF01DF91CF910895CF93DF9335
S1131610009709F487C0FC01329713821282C091AB
S11316207203D0917303209781F420813181280FB4
S1131630391F80917003909171038217930779F594
S1131640F0937103E09370036DC0DE0120E030E09D
S1131650AE17BF0750F412964D915C9113979D01FC
S11316604115510509F1DA01F3CFB383A283408117
S11316705181840F951F8A179B0771F48D919C915A
S11316801197840F951F02969183808312968D91F2
S11316909C911397938382832115310529F4F09348
S11316A07303E09372033EC0D9011396FC93EE9347
S11316B012974D915D91A40FB51FEA17FB0779F4BA
S11316C080819181840F951F0296D90111969C9374
S11316D08E938281938113969C938E931297E0E06C
S11316E0F0E08A819B81009719F0FE01EC01F9CFAB
S11316F0CE01029628813981820F931F20917003B5
S1131700309171032817390769F4309729F410923E
S113171073031092720302C013821282D093710376
S1131720C0937003DF91CF910895FC01059061503F
S113173070400110D8F7809590958E0F9F1F0895E3
S1131740DC0101C06D9341505040E0F70895FC0165
S11317506150704001900110D8F7809590958E0FDC
S11317609F1F08950F931F93CF93DF93182F092F73
S1131770EB018B8181FD03C08FEF9FEF20C082FFBF
S113178010C04E815F812C813D81421753077CF448
S1131790E881F9819F012F5F3F4F398328831083AC
S11317A006C0E885F985812F0995892B29F72E81B3
S11317B03F812F5F3F4F3F832E83812F902FDF91F7
S11317C0CF911F910F910895FA01AA27283051F162
S11317D0203181F1E8946F936E7F6E5F7F4F8F4F5E
S11317E09F4FAF4FB1E03ED0B4E03CD0670F781FBD
S11317F0891F9A1FA11D680F791F8A1F911DA11DA2
S11318006A0F711D811D911DA11D20D009F46894DA
S11318103F912AE0269F11243019305D3193DEF682
S1131820CF010895462F4770405D4193B3E00FD038
S1131830C9F7F6CF462F4F70405D4A3318F0495D23
S113184031FD4052419302D0A9F7EACFB4E0A69506
S11318509795879577956795BA95C9F70097610528
S1131860710508959B01AC010A2E0694579547957E
S113187037952795BA95C9F7620F731F841F951F73
S1131880A01D08952F923F924F925F926F927F9284
S11318908F929F92AF92BF92CF92DF92EF92FF927C
S11318A00F931F93CF93DF93CDB7DEB7CA1BDB0B28
S11318B00FB6F894DEBF0FBECDBF09942A883988CD
S11318C048885F846E847D848C849B84AA84B984D4
S11318D0C884DF80EE80FD800C811B81AA81B981E0
S11318E0CE0FD11D0FB6F894DEBF0FBECDBFED01F4
S10918F00895F894FFCFF7
S11318F600007403200000120010E0025A010000E8
S11319060000000000000000000000000000E602E5
S11319165A01000000000000000000000000000062
S11319260000EE025A010000000000000000000062
S1131936000000000000F302BE01000000000000E9
S1131946000000000000000000000203BE01320196
S11319561E010A010000000000000000030012033B
S1131966BE010000000000000000000000000000AE
S113197600002403E601000000000000000000004F
S1131986000000000000E602E6010000000000007E
S1131996000000000000000000002A03E601000029
S11319A600000000000000000000000000003003FA
S11319B6FA016E015A014601000000000000000011
S11319C603001803FA0100000000000000000000F4
S11319D60000000000003A03FA01AA019601820100
S11319E60000000000000000030045030000E601BB
S11319F6D201BE01000000000000000003004D43B8
S1131A065032353135206973204E4F5420696E208B
S1131A166E6F726D616C206D6F64652061667465AE
S1131A26722043414E20696E6974004D435032352D
S1131A363135206973204E4F5420696E20636F6ED2
S1131A4666696775726174696F6E206D6F6465206F
S1131A566166746572207265736574000A0A53655B
S1131A666E74206A6F79737469636B20706F73691F
S1131A7674696F6E202878293A2028256429200A5B
S1131A86000A0A53656E7420736C6964657220706B
S1131A966F736974696F6E3A2028256429200A00D9
S1131AA60A0A53656E7420627574746F6E207072C0
S1131AB6657373202878293A2028256429200A008A
S1131AC60A0A0A496E697420646F6E650020200054
S1131AD6486967680A004D656469756D0A004C6F4C
S1131AE6770A00496E766572742073637265656E53
S1131AF60A00436F6E7472617374206C6576656C4C
S1131B060A00436C656172204869676873636F7283
S1131B1665730A00466173740A00536C6F770A0092
S1131B2653657474696E67730A00506C6179206733
S1131B36616D650A004D61696E206D656E750A00FA
S9030000FC
