S011000041546D6567613136322E737265634B
S11300000C9426010C942E020C9443010C9443018D
S11300100C9443010C9443010C9443010C9443014C
S11300200C9443010C9443010C9443010C9443013C
S11300300C9443010C9458060C9443010C94430112
S11300400C9443010C9443010C9443010C9443011C
S11300500C9443010C9443010C9443010C9443010C
S11300600C9443010C9443010C9443010C944301FC
S1130070000000000000005F0000000700070014FB
S11300807F147F14242A7F2A1223130864623649BA
S11300905522500005030000001C224100004122AB
S11300A01C00082A1C2A0808083E080800503000D2
S11300B00008080808080060600000201008040216
S11300C03E5149453E00427F40004261514946212C
S11300D041454B311814127F1027454545393C4A98
S11300E049493001710905033649494936064949E8
S11300F0291E00363600000056360000000814227F
S11301004114141414144122140800020151090664
S1130110324979413E7E1111117E7F494949363E6B
S1130120414141227F4141221C7F494949417F0984
S11301300901013E414151327F0808087F00417F97
S113014041002040413F017F081422417F4040404C
S1130150407F0204027F7F0408107F3E4141413EFC
S11301607F090909063E4151215E7F091929464646
S11301704949493101017F01013F4040403F1F206F
S113018040201F7F2018207F631408146303047821
S11301900403615149454300007F414102040810B2
S11301A02041417F000004020102044040404040DD
S11301B0000102040020545454787F4844443838E1
S11301C044444420384444487F3854545418087EE6
S11301D0090102081454543C7F0804047800447D47
S11301E040002040443D00007F10284400417F40EF
S11301F0007C041804787C080404783844444438A7
S11302007C14141408081414187C7C08040408488A
S113021054545420043F4440203C4040207C1C2043
S113022040201C3C4030403C44281028440C505092
S1130230503C4464544C44000836410000007F00A4
S113024000004136080002010302010011241FBE10
S1130250CFEFD4E0DEBFCDBF13E0A0E0B1E0E8E033
S1130260FCE102C005900D92AC3AB107D9F723E046
S1130270ACEAB3E001C01D92A33DB207E1F70E94CE
S1130280A5060C94020E0C9400000E948F0240E616
S113029060E680E60E94C80240E660E680E70E94CD
S11302A0C80244E064E080E60E94C80244E064E0DE
S11302B080E70E94C80240E060EE8FE00E94C8021E
S11302C08EE00E947802807E39F08CE192E00E94F8
S11302D0DC0981E090E0089563E08BE20E94A102D2
S11302E085B785BF8BB780648BBF80E090E00895AD
S11302F0EF92FF920F931F93CF93DF937C01FC0146
S11303006081718176956795769567957695679501
S113031081E30E94A102F70160816295660F607E0D
S113032082E30E94A10260E083E30E94A10260E0F4
S113033084E30E94A102F701628185E30E94A10285
S1130340F7018281882399F087010D5F1F4FC0E078
S1130350D0E0F80161918F018C2F8A5C0E94A10288
S11303602196F701228130E0C217D30794F381E884
S11303700E94B902DF91CF911F910F91FF90EF90EE
S11303800895CF92DF92EF92FF920F931F93CF9332
S1130390DF937C01C62F81E0860F0E947802D82F5C
S11303A082E08C0F0E947802482F42954695477050
S11303B02D2F30E0C901880F991F880F991F880FCE
S11303C0991F842BF7019183808385E08C0F0E9411
S11303D078028F70F70182838823F9F00F2EF6E0FC
S11303E0DF2EF02DDC0E87010D5F1F4F0F2EFEE078
S11303F0CF2EF02DCC0EC0E0D0E08D2D0E947802DF
S1130400F80181938F012196F701228130E0C21710
S1130410D3071CF4D394DC10F0CFDF91CF911F915C
S11304200F91FF90EF90DF90CF9008952091AC034F
S1130430213041F018F0223059F008952AE0FC01EF
S11304402383089560E60E94C1011092AC030895CD
S113045060E70E94C1011092AC0308951F920F92AD
S11304600FB60F9211242F933F934F935F936F9383
S11304707F938F939F93AF93BF93EF93FF938CE2FC
S11304800E94780280FF09C081E08093AC0340E0C1
S113049061E08CE20E94C8020AC081FF08C082E0C9
S11304A08093AC0340E062E08CE20E94C802FF91BA
S11304B0EF91BF91AF919F918F917F916F915F91D8
S11304C04F913F912F910F900FBE0F901F90189551
S11304D080E090E00E94F80280EC0E94ED0282E449
S11304E08A95F1F700C081E090E00E94F802089537
S11304F0CF93C82F80E090E00E94F80283E00E942E
S1130500ED028C2F0E94ED0280E00E94ED02C82FC4
S113051081E090E00E94F8028C2FCF9108950E9410
S1130520E6020E9468028EE00E947802807E803893
S113053031F089E492E00E94DC0981E0089580E0D2
S11305400895CF93DF93D82FC62F80E090E00E94C8
S1130550F80282E00E94ED028D2F0E94ED028C2FA2
S11305600E94ED0281E090E00E94F802DF91CF91B9
S11305700895CF93C82F80E090E00E94F8028C2F5A
S11305800E94ED0281E090E00E94F802CF9108956C
S11305901F93CF93DF93182FD62FC42F80E090E0C2
S11305A00E94F80285E00E94ED02812F0E94ED0274
S11305B08D2F0E94ED028C2F0E94ED0281E090E0CD
S11305C00E94F802DF91CF911F91089587B3806B49
S11305D087BB81E18DB96E9A08958FB9779BFECF61
S11305E085EF90E00197F1F700C000008FB1089506
S11305F08130910511F4C49A0895892B09F4C498A3
S113060008955D9BFECF8CB908955F9BFECF8CB19E
S1130610089520B5922B90BD99B1892B89B98AB1DF
S113062088618AB980B58E6880BD65E073E081E039
S113063093E00E947D09089585B7806885BF80B7DF
S1130640806280BF8B9880E090E00895843070F4DD
S11306508460809300148399FECF85EF90E0019726
S1130660F1F700C0000080910014089580E008951F
S1130670CF92DF92EF92FF92CF93DF93CDB7DEB7A5
S11306802B970FB6F894DEBF0FBECDBF0E94410476
S11306906B017C018091B5039091B6039701281BEF
S11306A0390BC901992324F488279927821B930BBA
S11306B006970CF181E090E09A8389831C82ED8295
S11306C082E08B83CE0101960E9478018D811F9276
S11306D08F938AE792E09F938F930E94C809C092F8
S11306E0B303D092B403E092B503F092B6030F9033
S11306F00F900F900F902B960FB6F894DEBF0FBE9D
S1130700CDBFDF91CF91FF90EF90DF90CF90089510
S1130710CF92DF92EF92FF92CF93DF93CDB7DEB704
S11307202B970FB6F894DEBF0FBECDBF0E94A20672
S11307306B017C018091B1039091B2039701281B56
S1130740390BC901992324F488279927821B930B19
S1130750069714F181E090E09A83898383E08C8387
S1130760ED8282E08B83CE0101960E9478018D8117
S11307701F928F938FE992E09F938F930E94C809F1
S1130780C092AF03D092B003E092B103F092B203EF
S11307900F900F900F900F902B960FB6F894DEBF2A
S11307A00FBECDBFDF91CF91FF90EF90DF90CF9040
S11307B008950F931F93CF93DF93CDB7DEB72B9795
S11307C00FB6F894DEBF0FBECDBF0E9482068C0127
S11307D08130910509F58091AD039091AE03892B89
S11307E0D9F481E090E09A83898384E08C8381E06A
S11307F08D8382E08B83CE0101960E9478018D81E6
S11308001F928F938EEB92E09F938F930E94C8095F
S11308100F900F900F900F901093AE030093AD03C1
S11308202B960FB6F894DEBF0FBECDBFDF91CF91EC
S11308301F910F910895CF93DF93CDB7DEB72B9718
S11308400FB6F894DEBF0FBECDBF21E030E03A838F
S1130850298396E09C838D8382E08B83CE0101966D
S11308600E9478012B960FB6F894DEBF0FBECDBF61
S1130870DF91CF91089596B381E08927817090E04C
S11308800895CF9380E00E942603C82F8CEC94E057
S11308900197F1F700C0000081E00E942603282F91
S11308A06C2F70E0822F90E0CF9108950E94410454
S11308B06093BC037093BD038093BE039093BF0306
S11308C008950E945604B898C09A08950F931F93F0
S11308D0CF930E9441048B019C016091BC037091F1
S11308E0BD03A801461B570BE4E6E49FC001E59F46
S11308F0900D11240E945509C62FF72F6091BE0355
S11309007091BF03261B370BE29FC001E39F900D3C
S113091011240E9455099B016C394FEF740714F49C
S11309202CE93FEF8C2F9F2F8C394FEF940714F451
S11309308CE99FEFAC018536910514F044E650E054
S1130940BA012536310514F024E630E0C901CF910F
S11309501F910F9108950E9466049B01AC01FC0154
S11309607D96FB9720F4FB017D96FB97D8F0DC0184
S1130970552324F4AA27BB27A81BB90BFB01332357
S113098024F4EE27FF27E61BF70BEA17FB072CF4EA
S1130990141615064CF482E008951216130634F466
S11309A083E0089580E0089581E0089584E0089547
S11309B088238CF0E0911601F091170191E2908365
S11309C0E0911601F09117018083E0911601F091F6
S11309D017018FE780830895883098F4E091160119
S11309E0F091170192E290838093B903E09116018C
S11309F0F09117018083E0911601F091170187E0CF
S1130A0080830895CF93C62F0E94EC048C2F0E94FC
S1130A10D804CF9108958A3039F48091B90360E005
S1130A208F5F0E9402050895E82FF0E0B097CF0190
S1130A30880F991F880F991FE80FF91FE059FF4F7E
S1130A4080E090E02491A0911401B09115012C93C1
S1130A500196319685309105A9F7089560E080E00C
S1130A600E940205089560E00E94020580E0E09182
S1130A701401F091150110828F5F8038C1F7089539
S1130A80CF93C0E08C2F0E943305CF5FC830D1F7DD
S1130A900E942E05CF910895E0911601F09117015F
S1130AA08EEA8083E0911601F091170181EA808338
S1130AB0E0911601F09117018AED8083E09116010F
S1130AC0F091170182E18083E0911601F091170102
S1130AD088EC8083E0911601F091170188EA808305
S1130AE0E0911601F09117018FE38083E0911601E4
S1130AF0F091170185ED8083E0911601F0911701C3
S1130B0080E88083E0911601F091170181E88083E9
S1130B10E0911601F091170180E58083E0911601C0
S1130B20F091170189ED8083E0911601F09117018E
S1130B3081E28083E0911601F091170180E28083C5
S1130B40E0911601F09117011082E0911601F091E5
S1130B5017018BED8083E0911601F091170180E37A
S1130B608083E0911601F09117018DEA8083E09172
S1130B701601F09117011082E0911601F09117010E
S1130B8084EA8083E0911601F091170186EA80835C
S1130B90E0911601F09117018FEA80830E944005CD
S1130BA0E0911601F091170183ED8083E091160125
S1130BB0F091170110820895E0911601F091170148
S1130BC091E89083E0911601F091170180830895D4
S1130BD08091B7039091B803892B69F4E0911601D1
S1130BE0F091170187EA808381E090E09093B80345
S1130BF08093B7030895E0911601F091170186EAF6
S1130C0080831092B8031092B7030895CF93DF93B3
S1130C10CDB7DEB7FE01359661917191AF0186E0E3
S1130C2091E00E94090ADF91CF910895E0911401A7
S1130C30F091150188E18083E0911401F091150190
S1130C408083E0911401F09115018083E0911401F7
S1130C50F09115018083E0911401F09115018083D6
S1130C60E0911401F09115019FEF9083E09114013C
S1130C70F09115019EE79083E0911401F091150124
S1130C809CE39083E0911401F09115018083E0913D
S1130C901401F0911501108208958EB588608EBDFF
S1130CA08EB584608EBD80E09BE49BBD8ABD0895B3
S1130CB01F920F920FB60F9211248F939F938091DE
S1130CC0BA039091BB0301969093BB038093BA033C
S1130CD09F918F910F900FBE0F901F90189589B719
S1130CE0806489BF1092BB031092BA03089589B738
S1130CF08F7B89BF8091BA039091BB030895B99803
S1130D00BA980895B19906C086B382FB882780F902
S1130D1090E0089581E090E00895CF9383E00E94ED
S1130D202603C82F8CEC94E00197F1F700C0000073
S1130D3082E00E942603282F6C2F70E0822F90E01F
S1130D40CF9108950E948D060895CF93DF93CDB778
S1130D50DEB72B970FB6F894DEBF0FBECDBFF89465
S1130D608FE190E00E9409030E941C030E94610429
S1130D700E947F060E94D1080E9445010E944D06F0
S1130D808EED92E00E94DC0980E00E94450978948F
S1130D90E12CF12CA12CB12C0F2EF3E0CF2EF02D51
S1130DA0D12C0E944809823001F128F4882341F0B3
S1130DB0813059F03FC08330F9F0843049F13AC0B2
S1130DC00E94D4070E945D0838C00E9450090E9406
S1130DD01B040E9415090E946F0682E00E944509C7
S1130DE0EA2CFB2C0C2D1D2D28C00E9438030E94D8
S1130DF088030E94D90321C00E943B04892BE9F097
S1130E0082E00E9445090E9415090E946F0615C0E0
S1130E10C7010E9424092FEF8FEF9AE421508040EC
S1130E209040E1F700C0000080E00E9445090E9464
S1130E30D10803C080E00E944509CE0101960E94BA
S1130E4016028C818530F9F4023011058CF00E9471
S1130E504809823069F40E947706E80EF91E0150B1
S1130E60110983E00E944509C8010E94F0080BC0E3
S1130E700E944809823039F40E947706E80EF91E70
S1130E8084E00E9445098CEC94E00197F1F700C0DE
S1130E90000087CF0F931F93CF93DF93E091C2039A
S1130EA0F091C3038289938901960297CCF0C1E043
S1130EB0D0E008EE12E060E08C2F0E9402051F9340
S1130EC00F930E9406062196E091C203F091C3039A
S1130ED08289938901960F900F90C817D9075CF304
S1130EE060E08091C0030E9402050E941606DF9113
S1130EF0CF911F910F9108950F931F93CF93DF9379
S1130F000E944005E091C203F091C30381818F9355
S1130F1080818F938BEE92E09F938F930E940606BD
S1130F200F900F900F900F908091C4039091C50380
S1130F30892B11F00E944A07E091C203F091C30388
S1130F40828993891816190654F5C0E0D0E00BEE97
S1130F5012E08AE00E94D8048091C2039091C303F6
S1130F60FE013296EE0FFF1FE80FF91F0190F0818A
S1130F70E02D81818F9380818F931F930F930E9423
S1130F8006062196E091C203F091C3030F900F90DF
S1130F900F900F9082899389C817D907D4F2DF91F3
S1130FA0CF911F910F9108950E943B04892B29F43E
S1130FB00E94AB04823009F07FC0E091C403F09139
S1130FC0C503309709F478C084819581009789F02E
S1130FD0F093C303E093C2039093C5038093C403C7
S1130FE081E090E09093C1038093C0030E947C074A
S1130FF05BC081E0EC37F80709F456C081E0E034C7
S1131000F80721F480E10E94DC054EC081E0EC3257
S1131010F80721F480E50E94DC0546C081E0E83150
S1131020F80721F480EF0E94DC053EC081E0E4353E
S1131030F80719F40E94E80537C081E0E83BF80797
S113104041F481E090E00E944B0981E00E9445094F
S11310502BC081E0E43AF80741F482E090E00E947A
S11310604B0981E00E9445091FC081E0E039F8077F
S113107041F483E090E00E944B0981E00E9445091D
S113108013C0E05EF14081F480EE91E09093C303DD
S11310908093C2031092C5031092C40381E090E0D0
S11310A09093C1038093C0030E943B04892BE1F712
S11310B00E94AB048230C1F308950E94AB048330D4
S11310C039F1843009F447C0813009F069C00E94C5
S11310D0AB048130E1F3E091C203F091C3030280D9
S11310E0F381E02D309709F45BC081E090E09093A8
S11310F0C1038093C003F093C303E093C2038481CC
S113110095819093C5038093C4030E947C0708953E
S11311100E94AB048330E1F38091C0039091C1033A
S113112082309105ECF19C01215031093093C103C7
S11311302093C003E091C203F091C303880F991F69
S1131140E80FF91F808191819093C5038093C403B4
S11311500E944A0708950E94AB048430E1F3E091B1
S1131160C203F091C3038091C0039091C10322890B
S1131170338982179307A4F49C012F5F3F4F309368
S1131180C1032093C0030296880F991FE80FF91F2B
S1131190808191819093C5038093C4030E944A0780
S11311A008950E944C0588E092E09093C3038093D5
S11311B0C20380910C0290910D029093C503809319
S11311C0C40381E090E09093C1038093C0030E9424
S11311D07C070E944A070E94D4070E945D08089574
S11311E0CF93DF93C82FD92F0E94400564E183E099
S11311F00E940205DF93CF938FEE92E09F938F932B
S11312000E94060664E185E00E94020587E093E0FF
S11312109F938F930E9406060F900F900F900F904C
S11312200F900F90DF91CF9108950E9440056EE1D9
S113123083E00E94020586E193E09F938F930E94CE
S113124006060F900F900895CF93DF93C82FD92FE0
S11312500E9440056EE183E00E94020523E233E030
S11312603F932F930E940606DF93CF9381E393E08D
S11312709F938F930E9406060F900F900F900F90EC
S11312800F900F90DF91CF9108958093C603089536
S11312908091C60308959093C8038093C70308956B
S11312A08091C7039091C803089597FB072E16F405
S11312B0009407D077FD09D00E94690907FC05D086
S11312C03EF4909581959F4F0895709561957F4F59
S11312D00895AA1BBB1B51E107C0AA1FBB1FA61779
S11312E0B70710F0A61BB70B881F991F5A95A9F7CB
S11312F080959095BC01CD0108950F931F93CF93D2
S1131300DF93EC018B01009731F46115710519F439
S113131080E090E038C06EE070E081E090E00E94F0
S1131320DB0BFC010097A1F380E883830115110511
S113133071F01387028781E883838091C9039091B8
S1131340CA03892B21F4F093CA03E093C9032097BD
S1131350C9F0D187C0878381826083838091CB0366
S11313609091CC03892B71F4F093CC03E093CB03DD
S11313708091CD039091CE03892B21F4F093CE0379
S1131380E093CD03CF01DF91CF911F910F91089589
S1131390A0E0B0E0EEECF9E00C94DB0DFE01359634
S11313A061917191AF018091CB039091CC030E9424
S11313B0090AE2E00C94F70D0F931F93CF93DF9388
S11313C0E091CB03F091CC03238121FF1BC0EC01FE
S11313D000E010E089916091CB037091CC03DB01B4
S11313E01896ED91FC911997882331F00995892B72
S11313F089F30FEF1FEFEECF8AE00995892B11F4E3
S1131400C80102C08FEF9FEFDF91CF911F910F9121
S11314100895ACE0B0E0EFE0FAE00C94CB0D7C0171
S11314206B018A01FC0117821682838181FFBDC191
S1131430CE0101964C01F7019381F60193FD85914C
S113144093FF81916F01882309F4ABC1853239F48C
S113145093FD859193FF81916F01853229F4B70142
S113146090E00E943B0DE7CF512C312C20E020323C
S1131470A0F48B3269F030F4803259F0833269F48D
S113148020612CC08D3239F0803339F4216026C0BC
S11314902260246023C0286021C027FD27C030EDCE
S11314A0380F3A3078F426FF06C0FAE05F9E300D1C
S11314B01124532E13C08AE0389E300D1124332E8C
S11314C020620CC08E3221F426FD6BC1206406C05C
S11314D08C3611F4206802C0883641F4F60193FD7D
S11314E0859193FF81916F018111C1CF982F9F7DC9
S11314F09554933028F40C5F1F4FFFE3F9830DC01C
S1131500833631F0833771F0833509F05BC022C034
S1131510F801808189830E5F1F4F44244394512C2A
S1131520540115C03801F2E06F0E711CF801A0805F
S1131530B18026FF03C0652D70E002C06FEF7FEF1E
S1131540C5012C870E94300D2C0183012C852F7737
S1131550222E17C03801F2E06F0E711CF801A08032
S1131560B18026FF03C0652D70E002C06FEF7FEFEE
S1131570C5012C870E941E0D2C012C852068222E6B
S1131580830123FC1BC0832D90E048165906B0F458
S1131590B70180E290E00E943B0D3A94F4CFF5014C
S11315A027FC859127FE81915F01B70190E00E949D
S11315B03B0D31103A94F1E04F1A51084114510493
S11315C071F7E5C0843611F0893639F5F80127FF43
S11315D007C060817181828193810C5F1F4F08C0B5
S11315E060817181882777FD8095982F0E5F1F4F4A
S11315F02F76B22E97FF09C09095809570956195CE
S11316007F4F8F4F9F4F2068B22E2AE030E0A40115
S11316100E946D0DA82EA81844C0853729F42F7E8A
S1131620B22E2AE030E025C0F22FF97FBF2E8F368C
S1131630C1F018F4883579F0B4C0803719F08837D0
S113164021F0AFC02F2F2061B22EB4FE0DC08B2D20
S11316508460B82E09C024FF0AC09F2F9660B92E5B
S113166006C028E030E005C020E130E002C020E1FF
S113167032E0F801B7FE07C06081718182819381F5
S11316800C5F1F4F06C06081718180E090E00E5FA7
S11316901F4FA4010E946D0DA82EA818FB2DFF77E3
S11316A0BF2EB6FE0BC02B2D2E7FA51450F4B4FE16
S11316B00AC0B2FC08C02B2D2E7E05C07A2C2B2D1F
S11316C003C07A2C01C0752C24FF0DC0FE01EA0D65
S11316D0F11D8081803311F4297E09C022FF06C0E8
S11316E07394739404C0822F867809F0739423FD55
S11316F013C020FF06C05A2C731418F4530C571847
S1131700732C731468F4B70180E290E02C870E9474
S11317103B0D73942C85F5CF731410F4371801C066
S1131720312C24FF12C0B70180E390E02C870E9483
S11317303B0D2C8522FF17C021FF03C088E590E0F4
S113174002C088E790E0B7010CC0822F867859F078
S113175021FD02C080E201C08BE227FD8DE2B701CA
S113176090E00E943B0DA51438F4B70180E390E0AB
S11317700E943B0D5A94F7CFAA94F401EA0DF11D8F
S11317808081B70190E00E943B0DA110F5CF33207A
S113179009F451CEB70180E290E00E943B0D3A94E7
S11317A0F6CFF7018681978102C08FEF9FEF2C96C9
S11317B0E2E10C94E70D0F931F93CF93DF93869F81
S11317C08001879F100D969F100D1124C8010E945F
S11317D0F70BEC01009729F0A80160E070E00E948B
S11317E0290DCE01DF91CF911F910F910895CF93D1
S11317F0DF938230910510F482E090E0E091D10310
S1131800F091D20320E030E0A0E0B0E0309739F16D
S11318104081518148175907B8F04817590771F4A6
S113182082819381109729F013969C938E9312973B
S11318302CC09093D2038093D10327C02115310586
S113184031F04217530718F0A901DB0101C0EF0181
S11318509A01BD01DF010280F381E02DD7CF21156C
S11318603105F9F0281B390B2430310580F48A81C5
S11318709B816115710521F0FB019383828304C070
S11318809093D2038093D103FE01329644C0FE01AB
S1131890E20FF31F819391932250310939832883F6
S11318A03AC02091CF033091D003232B41F42091EF
S11318B00201309103013093D0032093CF03209190
S11318C00001309101012115310541F42DB73EB7D6
S11318D04091040150910501241B350BE091CF0385
S11318E0F091D003E217F307A0F42E1B3F0B281747
S11318F0390778F0AC014E5F5F4F2417350748F085
S11319004E0F5F1F5093D0034093CF038193919365
S113191002C0E0E0F0E0CF01DF91CF910895CF93D2
S1131920DF93009709F487C0FC0132971382128277
S1131930C091D103D091D203209781F420813181C9
S1131940280F391F8091CF039091D00382179307FA
S113195079F5F093D003E093CF036DC0DE0120E06E
S113196030E0AE17BF0750F412964D915C91139777
S11319709D014115510509F1DA01F3CFB383A28327
S113198040815181840F951F8A179B0771F48D91B3
S11319909C911197840F951F0296918380831296D0
S11319A08D919C911397938382832115310529F49A
S11319B0F093D203E093D1033EC0D9011396FC9374
S11319C0EE9312974D915D91A40FB51FEA17FB0793
S11319D079F480819181840F951F0296D901119623
S11319E09C938E938281938113969C938E931297EA
S11319F0E0E0F0E08A819B81009719F0FE01EC01A0
S1131A00F9CFCE01029628813981820F931F20914C
S1131A10CF033091D0032817390769F4309729F49C
S1131A201092D2031092D10302C013821282D09377
S1131A30D003C093CF03DF91CF910895FC010590AB
S1131A40615070400110D8F7809590958E0F9F1FBC
S1131A500895DC0101C06D9341505040E0F70895B2
S1131A60FC016150704001900110D8F78095909569
S1131A708E0F9F1F08950F931F93CF93DF93182FFB
S1131A80092FEB018B8181FD03C08FEF9FEF20C0F5
S1131A9082FF10C04E815F812C813D814217530724
S1131AA07CF4E881F9819F012F5F3F4F39832883BC
S1131AB0108306C0E885F985812F0995892B29F7BC
S1131AC02E813F812F5F3F4F3F832E83812F902FA5
S1131AD0DF91CF911F910F910895FA01AA27283021
S1131AE051F1203181F1E8946F936E7F6E5F7F4FE7
S1131AF08F4F9F4FAF4FB1E03ED0B4E03CD0670F63
S1131B00781F891F9A1FA11D680F791F8A1F911DB5
S1131B10A11D6A0F711D811D911DA11D20D009F405
S1131B2068943F912AE0269F11243019305D319347
S1131B30DEF6CF010895462F4770405D4193B3E030
S1131B400FD0C9F7F6CF462F4F70405D4A3318F0D7
S1131B50495D31FD4052419302D0A9F7EACFB4E088
S1131B60A6959795879577956795BA95C9F7009740
S1131B706105710508959B01AC010A2E06945795E1
S1131B80479537952795BA95C9F7620F731F841F38
S1131B90951FA01D08952F923F924F925F926F92CE
S1131BA07F928F929F92AF92BF92CF92DF92EF92E9
S1131BB0FF920F931F93CF93DF93CDB7DEB7CA1B6A
S1131BC0DB0B0FB6F894DEBF0FBECDBF09942A8895
S1131BD0398848885F846E847D848C849B84AA843D
S1131BE0B984C884DF80EE80FD800C811B81AA81CA
S1131BF0B981CE0FD11D0FB6F894DEBF0FBECDBF95
S10B1C00ED010895F894FFCFF3
S1131C080000D303200000000002000000000B05C0
S1131C1800000000001200104703680100000000E3
S1131C280000000000000000000000004C036801F0
S1131C380000000000000000000000000000000098
S1131C4853036801000000000000000000000000C9
S1131C58000000005703CC01000000000000000051
S1131C6800000000000000006503CC0140012C01C5
S1131C781801000000000000000003007403CC01F8
S1131C880000000000000000000000000000000048
S1131C988503F401000000000000000000000000BB
S1131CA8000000004C03F4010000000000000000E4
S1131CB800000000000000008A03F4010000000096
S1131CC80000000000000000000000008F0308026C
S1131CD87C016801540100000000000000000300BA
S1131CE87A03080200000000000000000000000061
S1131CF80000000098030802B801A4019001000044
S1131D080000000000000300A2030000F401E00149
S1131D18CC01000000000000000003004D435032D5
S1131D28353135206973204E4F5420696E206E6F0B
S1131D38726D616C206D6F646520616674657220D4
S1131D4843414E20696E6974004D43503235313534
S1131D58206973204E4F5420696E20636F6E666944
S1131D686775726174696F6E206D6F646520616652
S1131D78746572207265736574000A0A53656E741B
S1131D88206A6F79737469636B20706F73697469FF
S1131D986F6E202878293A2028256429200A000A09
S1131DA80A53656E7420736C6964657220706F736E
S1131DB86974696F6E3A2028256429200A000A0A82
S1131DC853656E7420627574746F6E2070726573D7
S1131DD873202878293A2028256429200A00496E86
S1131DE8697420646F6E650020200025730A005909
S1131DF86F752068617665202564206C6976657343
S1131E08206C6566740A005072657373206A6F7972
S1131E18737469636B00506C61792067616D652028
S1131E283A440047616D65206F7665722E2E2E0A3E
S1131E3800596F75206C6173746564202564207380
S1131E4865636F6E64730048696768004D6564690B
S1131E58756D004C6F7700496E76657274207363F4
S1131E687265656E00436F6E7472617374206C657D
S1131E7876656C00436C65617220486967687363B2
S1131E886F726573004661737400536C6F77005307
S1131E98657474696E677300506C61792067616D4D
S10F1EA865004D61696E206D656E75006B
S9030000FC
