S011000041546D6567613136322E737265634B
S11300000C9426010C942E020C9443010C9443018D
S11300100C9443010C9443010C9443010C9443014C
S11300200C9443010C9443010C9443010C9443013C
S11300300C9443010C9442060C9443010C94430128
S11300400C9443010C9443010C9443010C9443011C
S11300500C9443010C9443010C9443010C9443010C
S11300600C9443010C9443010C9443010C944301FC
S1130070000000000000005F0000000700070014FB
S11300807F147F14242A7F2A1223130864623649BA
S11300905522500005030000001C224100004122AB
S11300A01C00082A1C2A0808083E080800503000D2
S11300B00008080808080060600000201008040216
S11300C03E5149453E00427F40004261514946212C
S11300D041454B311814127F1027454545393C4A98
S11300E049493001710905033649494936064949E8
S11300F0291E00363600000056360000000814227F
S11301004114141414144122140800020151090664
S1130110324979413E7E1111117E7F494949363E6B
S1130120414141227F4141221C7F494949417F0984
S11301300901013E414151327F0808087F00417F97
S113014041002040413F017F081422417F4040404C
S1130150407F0204027F7F0408107F3E4141413EFC
S11301607F090909063E4151215E7F091929464646
S11301704949493101017F01013F4040403F1F206F
S113018040201F7F2018207F631408146303047821
S11301900403615149454300007F414102040810B2
S11301A02041417F000004020102044040404040DD
S11301B0000102040020545454787F4844443838E1
S11301C044444420384444487F3854545418087EE6
S11301D0090102081454543C7F0804047800447D47
S11301E040002040443D00007F10284400417F40EF
S11301F0007C041804787C080404783844444438A7
S11302007C14141408081414187C7C08040408488A
S113021054545420043F4440203C4040207C1C2043
S113022040201C3C4030403C44281028440C505092
S1130230503C4464544C44000836410000007F00A4
S113024000004136080002010302010011241FBE10
S1130250CFEFD4E0DEBFCDBF13E0A0E0B1E0E8E42F
S1130260F1E202C005900D92A23CB107D9F723E058
S1130270A2ECB3E001C01D92A93EB207E1F70E94CF
S11302803F090C94A2100C9400000E948F0240E6D7
S113029060E680E60E94C80240E660E680E70E94CD
S11302A0C80244E064E080E60E94C80244E064E0DE
S11302B080E70E94C80240E060EE8FE00E94C8021E
S11302C08EE00E947802807E39F086E392E00E94FC
S11302D07C0C81E090E0089563E08BE20E94A1022F
S11302E085B785BF8BB780648BBF80E090E00895AD
S11302F0EF92FF920F931F93CF93DF937C01FC0146
S11303006081718176956795769567957695679501
S113031081E30E94A102F70160816295660F607E0D
S113032082E30E94A10260E083E30E94A10260E0F4
S113033084E30E94A102F701628185E30E94A10285
S1130340F7018281882399F087010D5F1F4FC0E078
S1130350D0E0F80161918F018C2F8A5C0E94A10288
S11303602196F701228130E0C217D30794F381E884
S11303700E94B902DF91CF911F910F91FF90EF90EE
S11303800895CF92DF92EF92FF920F931F93CF9332
S1130390DF937C01C62F81E0860F0E947802D82F5C
S11303A082E08C0F0E947802482F42954695477050
S11303B02D2F30E0C901880F991F880F991F880FCE
S11303C0991F842BF7019183808385E08C0F0E9411
S11303D078028F70F70182838823F9F00F2EF6E0FC
S11303E0DF2EF02DDC0E87010D5F1F4F0F2EFEE078
S11303F0CF2EF02DCC0EC0E0D0E08D2D0E947802DF
S1130400F80181938F012196F701228130E0C21710
S1130410D3071CF4D394DC10F0CFDF91CF911F915C
S11304200F91FF90EF90DF90CF9008952091C20339
S1130430213041F018F0223059F008952AE0FC01EF
S11304402383089560E60E94C1011092C2030895B7
S113045060E70E94C1011092C20308951F920F9297
S11304600FB60F9211242F933F934F935F936F9383
S11304707F938F939F93AF93BF93EF93FF938CE2FC
S11304800E94780280FF09C081E08093C20340E0AB
S113049061E08CE20E94C8020AC081FF08C082E0C9
S11304A08093C20340E062E08CE20E94C802FF91A4
S11304B0EF91BF91AF919F918F917F916F915F91D8
S11304C04F913F912F910F900FBE0F901F90189551
S11304D080E090E00E94F80280EC0E94ED0282E449
S11304E08A95F1F700C081E090E00E94F802089537
S11304F0CF93C82F80E090E00E94F80283E00E942E
S1130500ED028C2F0E94ED0280E00E94ED02C82FC4
S113051081E090E00E94F8028C2FCF9108950E9410
S1130520E6020E9468028EE00E947802807E803893
S113053031F083E692E00E947C0C81E0089580E033
S11305400895CF93DF93D82FC62F80E090E00E94C8
S1130550F80282E00E94ED028D2F0E94ED028C2FA2
S11305600E94ED0281E090E00E94F802DF91CF91B9
S11305700895CF93C82F80E090E00E94F8028C2F5A
S11305800E94ED0281E090E00E94F802CF9108956C
S11305901F93CF93DF93182FD62FC42F80E090E0C2
S11305A00E94F80285E00E94ED02812F0E94ED0274
S11305B08D2F0E94ED028C2F0E94ED0281E090E0CD
S11305C00E94F802DF91CF911F91089587B3806B49
S11305D087BB81E18DB96E9A08958FB9779BFECF61
S11305E085EF90E00197F1F700C000008FB1089506
S11305F08130910511F4C49A0895892B09F4C498A3
S113060008955D9BFECF8CB908955F9BFECF8CB19E
S1130610089520B5922B90BD99B1892B89B98AB1DF
S113062088618AB980B58E6880BD65E073E081E039
S113063093E00E94310C089585B7806885BF80B728
S1130640806280BF8B9880E090E00895843070F4DD
S11306508460809300148399FECF85EF90E0019726
S1130660F1F700C0000080910014089580E008951F
S1130670F894E199FECF7FBB6EBB8DBBE29AE19A01
S113068078940895E199FECF9FBB8EBBE09A8DB319
S11306900895CF92DF92EF92FF92CF93DF93CDB77D
S11306A0DEB72B970FB6F894DEBF0FBECDBF0E9406
S11306B02B046B017C018091CB039091CC039701B7
S11306C0281B390BC901992324F488279927821BF5
S11306D0930B0697A4F081E090E09A8389831C82AF
S11306E0ED8282E08B83CE0101960E947801C09254
S11306F0C903D092CA03E092CB03F092CC032B96A9
S11307000FB6F894DEBF0FBECDBFDF91CF91FF903F
S1130710EF90DF90CF900895CF92DF92EF92FF9207
S1130720CF93DF93CDB7DEB72B970FB6F894DEBF28
S11307300FBECDBF0E948C066B017C018091C70364
S11307409091C8039701281B390BC901992324F4FC
S113075088279927821B930B0697ACF081E090E0E1
S11307609A83898383E08C83ED8282E08B83CE013C
S113077001960E947801C092C503D092C603E0920C
S1130780C703F092C8032B960FB6F894DEBF0FBED2
S1130790CDBFDF91CF91FF90EF90DF90CF90089580
S11307A00F931F93CF93DF93CDB7DEB72B970FB67D
S11307B0F894DEBF0FBECDBF0E946C068C01813061
S11307C09105A1F48091C3039091C403892B71F422
S11307D081E090E09A83898384E08C8381E08D8337
S11307E082E08B83CE0101960E9478011093C403AA
S11307F00093C3032B960FB6F894DEBF0FBECDBF94
S1130800DF91CF911F910F910895CF93DF93CDB7CF
S1130810DEB72B970FB6F894DEBF0FBECDBF21E035
S113082030E03A83298396E09C838D8382E08B8336
S1130830CE0101960E9478012B960FB6F894DEBF84
S11308400FBECDBFDF91CF91089596B381E0892784
S1130850817090E00895CF9380E00E942603C82F12
S11308608CEC94E00197F1F700C0000081E00E9455
S11308702603282F6C2F70E0822F90E0CF910895EB
S11308800E942B046093D2037093D3038093D40308
S11308909093D50308950E944004B898C09A08958F
S11308A00F931F93CF930E942B048B019C016091A3
S11308B0D2037091D303A801461B570BE4E6E49FCF
S11308C0C001E59F900D11240E94090CC62FF72F3B
S11308D06091D4037091D503261B370BE29FC001AE
S11308E0E39F900D11240E94090C9B016C394FEF7A
S11308F0740714F42CE93FEF8C2F9F2F8C394FEFA2
S1130900940714F48CE99FEFAC018536910514F03B
S113091044E650E0BA012536310514F024E630E00F
S1130920C901CF911F910F9108950E9450049B011A
S1130930AC01FC017D96FB9720F4FB017D96FB97AF
S1130940D8F0DC01552324F4AA27BB27A81BB90B34
S1130950FB01332324F4EE27FF27E61BF70BEA17EA
S1130960FB072CF4141615064CF482E008951216B5
S1130970130634F483E0089580E0089581E0089537
S113098084E0089588238CF0E0911601F09117011A
S113099091E29083E0911601F09117018083E09138
S11309A01601F09117018FE780830895883098F439
S11309B0E0911601F091170192E290838093CF03A6
S11309C0E0911601F09117018083E0911601F091F6
S11309D0170187E080830895CF93C62F0E94D60421
S11309E08C2F0E94C204CF9108958A3039F48091EB
S11309F0CF0360E08F5F0E94EC040895E82FF0E0DD
S1130A00B097CF01880F991F880F991FE80FF91F1E
S1130A10E059FF4F80E090E02491A0911401B0913F
S1130A2015012C930196319685309105A9F7089507
S1130A3060E080E00E94EC04089560E00E94EC0411
S1130A4080E0E0911401F091150110828F5F8038ED
S1130A50C1F70895CF93C0E08C2F0E941D05CF5F8E
S1130A60C830D1F70E941805CF910895E09116017E
S1130A70F09117018EEA8083E0911601F09117013D
S1130A8081EA8083E0911601F09117018AED808359
S1130A90E0911601F091170182E18083E091160143
S1130AA0F091170188EC8083E0911601F091170111
S1130AB088EA8083E0911601F09117018FE3808327
S1130AC0E0911601F091170185ED8083E091160104
S1130AD0F091170180E88083E0911601F0911701ED
S1130AE081E88083E0911601F091170180E580830D
S1130AF0E0911601F091170189ED8083E0911601D0
S1130B00F091170181E28083E0911601F0911701C1
S1130B1080E28083E0911601F09117011082E09148
S1130B201601F09117018BED8083E0911601F0918D
S1130B30170180E38083E0911601F09117018DEA9B
S1130B408083E0911601F09117011082E091160163
S1130B50F091170184EA8083E0911601F091170166
S1130B6086EA8083E0911601F09117018FEA808371
S1130B700E942A05E0911601F091170183ED80830C
S1130B80E0911601F091170110820895E091160189
S1130B90F091170191E89083E0911601F09117010B
S1130BA0808308958091CD039091CE03892B69F4BD
S1130BB0E0911601F091170187EA808381E090E0CB
S1130BC09093CE038093CD030895E0911601F091A4
S1130BD0170186EA80831092CE031092CD03089504
S1130BE0CF93DF93CDB7DEB7FE0135966191719156
S1130BF0AF0186E091E00E94A90CDF91CF910895A6
S1130C00E0911401F091150188E18083E0911401D1
S1130C10F09115018083E0911401F0911501808316
S1130C20E0911401F09115018083E0911401F09199
S1130C3015018083E0911401F09115019FEF9083D9
S1130C40E0911401F09115019EE79083E091140165
S1130C50F09115019CE39083E0911401F09115014A
S1130C608083E0911401F0911501108208958EB5EE
S1130C7088608EBD8EB584608EBD80E09BE49BBD94
S1130C808ABD08951F920F920FB60F9211248F936D
S1130C909F938091D0039091D10301969093D103B7
S1130CA08093D0039F918F910F900FBE0F901F9050
S1130CB0189589B7806489BF1092D1031092D0032C
S1130CC0089589B78F7B89BF8091D0039091D10318
S1130CD00895B998BA980895B19906C086B382FB6D
S1130CE0882780F990E0089581E090E00895CF93FB
S1130CF083E00E942603C82F8CEC94E00197F1F75F
S1130D0000C0000082E00E942603282F6C2F70E0B0
S1130D10822F90E0CF9108950E94770608958F92D4
S1130D209F92AF92BF92CF92DF92EF92FF920F9376
S1130D301F93CF93DF93CDB7DEB72D970FB6F894FB
S1130D40DEBF0FBECDBF5C01660F771F8B01000FA6
S1130D50111F000F111F000F111F061B170B780125
S1130D60C8010E944203882EC80101960E944203D2
S1130D70912C982C8824882A8E010D5F1F4F6E01B8
S1130D808EE0C80ED11CCE010196E81AF90AC701FB
S1130D90800F911F0E944203F80181938F01EC158B
S1130DA0FD05A9F79A8289828DE0FE013196D5016D
S1130DB001900D928A95E1F7C5012D960FB6F8942E
S1130DC0DEBF0FBECDBFDF91CF911F910F91FF907A
S1130DD0EF90DF90CF90BF90AF909F908F90089549
S1130DE0CF92DF92EF92FF920F931F93CF93DF93F3
S1130DF0182FC62ED72E440F551FEA01CC0FDD1F26
S1130E00CC0FDD1FCC0FDD1FC41BD50B7E01BE0133
S1130E10892F0E943803BE016F5F7F4F812F0E948C
S1130E2038030C2D1D2DC0E0D0E082E0E80EF11C4B
S1130E30B7016C0F7D1FF80181918F010E94380367
S1130E402196CB30D105A1F7DF91CF911F910F915E
S1130E50FF90EF90DF90CF9008953F924F925F9272
S1130E606F927F928F929F92AF92BF92CF92DF92B6
S1130E70EF92FF920F931F93CF93DF93CDB7DEB71B
S1130E806A970FB6F894DEBF0FBECDBF6C01362E45
S1130E90472E4A01463051050CF059C08A017A01A7
S1130EA08FEFE81AF80A0F2EFDE05F2EF02D0F2EBB
S1130EB0F4E96F2EF2E07F2EF02D05C00F5F1F4F77
S1130EC08FEFE81AF80AB801CE010E960E948F0639
S1130ED0FE013E96DE011196852D01900D928A95B4
S1130EE0E1F789819A81009739F4A801632D742D63
S1130EF0C6010E94F0062BC08C159D0578F4A8014C
S1130F004F5F5F4FBE016D5F7F4F0E942D07A801A9
S1130F10632D742DC6010E94F00619C0C816D906A7
S1130F2088F48114910471F40430110559F44F923A
S1130F303F927F926F920E94F0050F900F900F9056
S1130F400F90BCCF86E0E816F1040CF4B7CF6A9694
S1130F500FB6F894DEBF0FBECDBFDF91CF911F91C6
S1130F600F91FF90EF90DF90CF90BF90AF909F9044
S1130F708F907F906F905F904F903F900895CF93A4
S1130F80C82F862F60E00E94EC042BEA32E03F93E6
S1130F902F930E94F00560E08C2F0E94EC040E94C5
S1130FA000060F900F90CF910895DF92EF92FF9279
S1130FB00F931F93CF93DF93D82E0E942A052EEA16
S1130FC032E03F932F930E94F005CD2DD0E07E01B7
S1130FD087E0E80EF11C0F900F90CE15DF05ACF4FE
S1130FE009EC12E08BE00E94C204DF93CF931F93BD
S1130FF00F930E94F005D394CD2DD0E00F900F9065
S11310000F900F90CE15DF056CF3DF91CF911F91F8
S11310100F91FF90EF90DF9008958F929F92AF927F
S1131020BF92CF92EF92FF921F93CF93DF937C01F5
S113103081E60E94D50761E070E081E090E00E94C3
S1131040BF0711E6BB24B394C12CC1E0D0E0812CCE
S1131050912C0E942504892B59F00E942504892B88
S1131060E1F7F701E80DF91D10832FEF821A920AB8
S11310700E949504833029F1843009F44AC08230F7
S113108009F055C04BC0123640F01150C130D105A3
S113109021F4812F0E94D50706C0C230D1051CF06F
S11310A0BC2ECD2E21976B2D7C2DCE010E94BF0727
S11310B08FEF9FEFE2E081509040E040E1F700C005
S11310C000C00E9495048330F1F231C01A3768F4ED
S11310D0AA24A394A10EC730D10531F48BEF810F5C
S11310E00E94D5071A2D07C01A2DC730D1051CF44C
S11310F0BC2ECD2E21966B2D7C2DCE010E94BF07D8
S1131100FFEF2FEF82E0F15020408040E1F700C074
S113111000C00E9495048430C9F209C00E9495045D
S11311208230E1F3F701E80DF91D108205C09AE061
S1131130891691040CF48DCFF7011286DF91CF91BB
S11311401F91FF90EF90CF90BF90AF909F908F90A2
S113115008959F92AF92BF92CF92DF92EF92FF9247
S11311600F931F93CF93DF93CDB7DEB76A970FB674
S1131170F894DEBF0FBECDBF0E942A0580E993E03C
S11311809F938F930E94F00560E081E00E94EC043D
S11311908DEC92E09F938F930E94F00587E30E9469
S11311A0C20486ED92E09F938F930E94F0050F9006
S11311B00F900F900F900F900F9000E010E00F2E03
S11311C0FDE09F2EF02D0F2EFCEDAF2EF2E0BF2E92
S11311D0F02D6E0183E0C80ED11C0F2EF3EEEF2E1E
S11311E0F2E0FF2EF02DB801CE010E960E948F067C
S11311F0FE013E96DE011196892D01900D928A958D
S1131200E1F70F5F1F4F8A818F9389818F931F931B
S11312100F93BF92AF920E94F00587E30E94C2042D
S1131220DF92CF92FF92EF920E94F0050FB6F894EE
S1131230DEBF0FBECDBF05301105A9F66A960FB605
S1131240F894DEBF0FBECDBFDF91CF911F910F91F8
S1131250FF90EF90DF90CF90BF90AF909F90089554
S1131260CF93DF93C0E0D0E0BE0180E00E9438035A
S11312702196C435D105C1F7DF91CF910895CF935D
S1131280DF93CDB7DEB766970FB6F894DEBF0FBE17
S1131290CDBFF8948FE190E00E9409030E941C03E3
S11312A00E944B040E9469060E94A10A0E94450103
S11312B00E94370687EE92E00E947C0C80E00E9438
S11312C0F90B7894E12CF12C03E010E00F2EF3E0FD
S11312D0CF2EF02DD12C0E94FC0B823001F128F48A
S11312E0882341F0813059F04BC08330F9F08430C9
S11312F049F146C00E94A10B0E94BC0A44C00E944E
S1131300040C0E9405040E94550B0E94590682E0B9
S11313100E94F90BE12CF12C0C2D1D2D34C00E94E0
S113132049030E948C030E94D0032DC00E9425040F
S1131330892B49F182E00E94F90B0E94550B0E940F
S1131340590621C0C7010E94640B2FEF8FEF9BE366
S1131350215080409040E1F700C00000CE010C967F
S11313600E940D0840E050E0BE01645F7F4FC7015A
S11313700E942D0780E00E94F90B0E94A10A03C07D
S113138080E00E94F90BCE0101960E9416028C8126
S11313908530F9F4023011058CF00E94FC0B823088
S11313A069F40E946106E80EF91E0150110983E0F8
S11313B00E94F90BC8010E94300B0BC00E94FC0B69
S11313C0823039F40E946106E80EF91E84E00E941E
S11313D0F90B80E090EF0197F1F77DCF80E10E9457
S11313E0C605089580E50E94C605089580EF0E9411
S11313F0C605089581E090E00E94FF0B81E00E9401
S1131400F90B089582E090E00E94FF0B81E00E94B6
S1131410F90B089583E090E00E94FF0B81E00E94A5
S1131420F90B08950F931F93CF93DF93E091D803A3
S1131430F091D9038289938901960297CCF0C1E097
S1131440D0E00BEA12E060E08C2F0E94EC041F93C2
S11314500F930E94F0052196E091D803F091D903EF
S11314608289938901960F900F90C817D9075CF36E
S113147060E08091D6030E94EC040E940006DF9194
S1131480CF911F910F9108950F931F93CF93DF93E3
S11314900E942A05E091D803F091D90381818F93AA
S11314A080818F9381EF92E09F938F930E94F00548
S11314B00F900F900F900F908091DA039091DB03BF
S11314C0892B11F00E94120AE091D803F091D903FC
S11314D082899389181619067CF5C0E0D0E001EFE3
S11314E012E06AE08C2F8F5F0E94EC048AE00E9475
S11314F0C2048091D8039091D903FE013296EE0F75
S1131500FF1FE80FF91F0190F081E02D81818F9377
S113151080818F931F930F930E94F0052196E09191
S1131520D803F091D9030F900F900F900F908289F8
S11315309389C817D907ACF2DF91CF911F910F910E
S113154008950E94360580E292E09093D903809337
S1131550D80380912402909125029093DB03809319
S1131560DA0381E090E09093D7038093D6030E943E
S1131570440A0E94120A08950E949504833039F1A6
S1131580843009F447C0813009F069C00E94950491
S11315908130E1F3E091D803F091D9030280F38123
S11315A0E02D309709F45BC081E090E09093D7037D
S11315B08093D603F093D903E093D8038481958173
S11315C09093DB038093DA030E94440A08950E94F7
S11315D095048330E1F38091D6039091D703823050
S11315E09105ECF19C01215031093093D7032093EC
S11315F0D603E091D803F091D903880F991FE80F1F
S1131600F91F808191819093DB038093DA030E9418
S1131610120A08950E9495048430E1F3E091D803FE
S1131620F091D9038091D6039091D703228933890D
S113163082179307A4F49C012F5F3F4F3093D70385
S11316402093D6030296880F991FE80FF91F808113
S113165091819093DB038093DA030E94120A089528
S1131660CF93DF93C82FD92F0E942A0564E183E02A
S11316700E94EC04DF93CF9384EF92E09F938F93C7
S11316800E94F00564E185E00E94EC048BE093E0A5
S11316909F938F930E94F0050F900F900F900F90DF
S11316A00F900F90DF91CF9108950E942A056EE16B
S11316B083E00E94EC048AE193E09F938F930E945D
S11316C0F0050F900F900895CF93DF93C82FD92F73
S11316D00E942A056EE183E00E94EC0427E233E0D5
S11316E03F932F930E94F0056AE084E00E94EC048B
S11316F0DF93CF9384E393E09F938F930E94F0054D
S11317000F900F900F900F900F900F90DF91CF914B
S113171008950E942A056FE083E00E94EC048AE4A5
S113172093E09F938F930E94F0052FEF8FEF9DE13D
S1131730215080409040E1F700C000000F900F90CE
S113174008950E942504892B29F40E94950482306F
S113175009F04EC0E091DA03F091DB03309709F40D
S113176047C084819581009789F0F093D903E09371
S1131770D8039093DB038093DA0381E090E09093A5
S1131780D7038093D6030E94440A2AC00488F589AB
S1131790E02D309729F109958091DA039091DB03CC
S11317A021E08638920729F40E94890B0E94440A9A
S11317B017C0845F9140A1F484EF91E09093D90322
S11317C08093D8038091F8019091F9019093DB0301
S11317D08093DA0381E090E09093D7038093D6035B
S11317E00E942504892BE1F70E9495048230C1F3FD
S11317F008958093DC0308958091DC030895909309
S1131800DE038093DD0308958091DD039091DE0370
S1131810089597FB072E16F4009407D077FD09D09E
S11318200E941D0C07FC05D03EF4909581959F4FB6
S11318300895709561957F4F0895AA1BBB1B51E1D4
S113184007C0AA1FBB1FA617B70710F0A61BB70B2C
S1131850881F991F5A95A9F780959095BC01CD01D1
S113186008950F931F93CF93DF93EC018B0100979F
S113187031F46115710519F480E090E038C06EE030
S113188070E081E090E00E947B0EFC010097A1F3E0
S113189080E883830115110571F01387028781E8BD
S11318A083838091DF039091E003892B21F4F093EB
S11318B0E003E093DF032097C9F0D187C0878381D9
S11318C0826083838091E1039091E203892B71F418
S11318D0F093E203E093E1038091E3039091E40346
S11318E0892B21F4F093E403E093E303CF01DF9128
S11318F0CF911F910F9108950F931F93CF93DF936F
S1131900E091E103F091E203238121FF1BC0EC018C
S113191000E010E089916091E1037091E203DB0142
S11319201896ED91FC911997882331F00995892B2C
S113193089F30FEF1FEFEECF8AE00995892B11F49D
S1131940C80102C08FEF9FEFDF91CF911F910F91DC
S11319500895ACE0B0E0EFEAFCE00C946B107C017D
S11319606B018A01FC0117821682838181FFBDC14C
S1131970CE0101964C01F7019381F60193FD859107
S113198093FF81916F01882309F4ABC1853239F447
S113199093FD859193FF81916F01853229F4B701FD
S11319A090E00E94DB0FE7CF512C312C20E0203255
S11319B0A0F48B3269F030F4803259F0833269F448
S11319C020612CC08D3239F0803339F4216026C077
S11319D02260246023C0286021C027FD27C030ED89
S11319E0380F3A3078F426FF06C0FAE05F9E300DD7
S11319F01124532E13C08AE0389E300D1124332E47
S1131A0020620CC08E3221F426FD6BC1206406C016
S1131A108C3611F4206802C0883641F4F60193FD37
S1131A20859193FF81916F018111C1CF982F9F7D83
S1131A309554933028F40C5F1F4FFFE3F9830DC0D6
S1131A40833631F0833771F0833509F05BC022C0EF
S1131A50F801808189830E5F1F4F44244394512CE5
S1131A60540115C03801F2E06F0E711CF801A0801A
S1131A70B18026FF03C0652D70E002C06FEF7FEFD9
S1131A80C5012C870E94D00F2C0183012C852F7750
S1131A90222E17C03801F2E06F0E711CF801A080ED
S1131AA0B18026FF03C0652D70E002C06FEF7FEFA9
S1131AB0C5012C870E94BE0F2C012C852068222E84
S1131AC0830123FC1BC0832D90E048165906B0F413
S1131AD0B70180E290E00E94DB0F3A94F4CFF50165
S1131AE027FC859127FE81915F01B70190E00E9458
S1131AF0DB0F31103A94F1E04F1A510841145104AC
S1131B0071F7E5C0843611F0893639F5F80127FFFD
S1131B1007C060817181828193810C5F1F4F08C06F
S1131B2060817181882777FD8095982F0E5F1F4F04
S1131B302F76B22E97FF09C0909580957095619588
S1131B407F4F8F4F9F4F2068B22E2AE030E0A401D0
S1131B500E940D10A82EA81844C0853729F42F7EA2
S1131B60B22E2AE030E025C0F22FF97FBF2E8F3647
S1131B70C1F018F4883579F0B4C0803719F088378B
S1131B8021F0AFC02F2F2061B22EB4FE0DC08B2DDB
S1131B908460B82E09C024FF0AC09F2F9660B92E16
S1131BA006C028E030E005C020E130E002C020E1BA
S1131BB032E0F801B7FE07C06081718182819381B0
S1131BC00C5F1F4F06C06081718180E090E00E5F62
S1131BD01F4FA4010E940D10A82EA818FB2DFF77FB
S1131BE0BF2EB6FE0BC02B2D2E7FA51450F4B4FED1
S1131BF00AC0B2FC08C02B2D2E7E05C07A2C2B2DDA
S1131C0003C07A2C01C0752C24FF0DC0FE01EA0D1F
S1131C10F11D8081803311F4297E09C022FF06C0A2
S1131C207394739404C0822F867809F0739423FD0F
S1131C3013C020FF06C05A2C731418F4530C571801
S1131C40732C731468F4B70180E290E02C870E942F
S1131C50DB0F73942C85F5CF731410F4371801C07F
S1131C60312C24FF12C0B70180E390E02C870E943E
S1131C70DB0F2C8522FF17C021FF03C088E590E00D
S1131C8002C088E790E0B7010CC0822F867859F033
S1131C9021FD02C080E201C08BE227FD8DE2B70185
S1131CA090E00E94DB0FA51438F4B70180E390E0C4
S1131CB00E94DB0F5A94F7CFAA94F401EA0DF11DA8
S1131CC08081B70190E00E94DB0FA110F5CF332093
S1131CD009F451CEB70180E290E00E94DB0F3A9400
S1131CE0F6CFF7018681978102C08FEF9FEF2C9684
S1131CF0E2E10C9487100F931F93CF93DF93869F99
S1131D008001879F100D969F100D1124C8010E9419
S1131D10970EEC01009729F0A80160E070E00E94A2
S1131D20C90FCE01DF91CF911F910F910895CF93E9
S1131D30DF938230910510F482E090E0E091E703B4
S1131D40F091E80320E030E0A0E0B0E0309739F112
S1131D504081518148175907B8F04817590771F461
S1131D6082819381109729F013969C938E931297F6
S1131D702CC09093E8038093E70327C02115310515
S1131D8031F04217530718F0A901DB0101C0EF013C
S1131D909A01BD01DF010280F381E02DD7CF211527
S1131DA03105F9F0281B390B2430310580F48A8180
S1131DB09B816115710521F0FB019383828304C02B
S1131DC09093E8038093E703FE01329644C0FE013A
S1131DD0E20FF31F819391932250310939832883B1
S1131DE03AC02091E5033091E603232B41F420917E
S1131DF00201309103013093E6032093E50320911F
S1131E000001309101012115310541F42DB73EB790
S1131E104091040150910501241B350BE091E50329
S1131E20F091E603E217F307A0F42E1B3F0B2817EB
S1131E30390778F0AC014E5F5F4F2417350748F03F
S1131E404E0F5F1F5093E6034093E50381939193F4
S1131E5002C0E0E0F0E0CF01DF91CF910895CF938D
S1131E60DF93009709F487C0FC0132971382128232
S1131E70C091E703D091E803209781F42081318158
S1131E80280F391F8091E5039091E6038217930789
S1131E9079F5F093E603E093E5036DC0DE0120E0FD
S1131EA030E0AE17BF0750F412964D915C91139732
S1131EB09D014115510509F1DA01F3CFB383A283E2
S1131EC040815181840F951F8A179B0771F48D916E
S1131ED09C911197840F951F02969183808312968B
S1131EE08D919C911397938382832115310529F455
S1131EF0F093E803E093E7033EC0D9011396FC9303
S1131F00EE9312974D915D91A40FB51FEA17FB074D
S1131F1079F480819181840F951F0296D9011196DD
S1131F209C938E938281938113969C938E931297A4
S1131F30E0E0F0E08A819B81009719F0FE01EC015A
S1131F40F9CFCE01029628813981820F931F209107
S1131F50E5033091E6032817390769F4309729F42B
S1131F601092E8031092E70302C013821282D09306
S1131F70E603C093E503DF91CF910895FC0105903A
S1131F80615070400110D8F7809590958E0F9F1F77
S1131F900895DC0101C06D9341505040E0F708956D
S1131FA0FC016150704001900110D8F78095909524
S1131FB08E0F9F1F08950F931F93CF93DF93182FB6
S1131FC0092FEB018B8181FD03C08FEF9FEF20C0B0
S1131FD082FF10C04E815F812C813D8142175307DF
S1131FE07CF4E881F9819F012F5F3F4F3983288377
S1131FF0108306C0E885F985812F0995892B29F777
S11320002E813F812F5F3F4F3F832E83812F902F5F
S1132010DF91CF911F910F910895FA01AA272830DB
S113202051F1203181F1E8946F936E7F6E5F7F4FA1
S11320308F4F9F4FAF4FB1E03ED0B4E03CD0670F1D
S1132040781F891F9A1FA11D680F791F8A1F911D70
S1132050A11D6A0F711D811D911DA11D20D009F4C0
S113206068943F912AE0269F11243019305D319302
S1132070DEF6CF010895462F4770405D4193B3E0EB
S11320800FD0C9F7F6CF462F4F70405D4A3318F092
S1132090495D31FD4052419302D0A9F7EACFB4E043
S11320A0A6959795879577956795BA95C9F70097FB
S11320B06105710508959B01AC010A2E069457959C
S11320C0479537952795BA95C9F7620F731F841FF3
S11320D0951FA01D08952F923F924F925F926F9289
S11320E07F928F929F92AF92BF92CF92DF92EF92A4
S11320F0FF920F931F93CF93DF93CDB7DEB7CA1B25
S1132100DB0B0FB6F894DEBF0FBECDBF09942A884F
S1132110398848885F846E847D848C849B84AA84F7
S1132120B984C884DF80EE80FD800C811B81AA8184
S1132130B981CE0FD11D0FB6F894DEBF0FBECDBF4F
S10B2140ED010895F894FFCFAE
S11321480000E90320000000000200000000F5047C
S113215800000000001200105D0370010000000080
S1132168000000000000000000000000F6096203FF
S113217870010000000000000000000000000000E2
S11321880000F2096903700100000000000000006B
S11321980000000000000000EE096D03DE010000ED
S11321A80000000000000000000000000000D2054C
S11321B87B03DE0144012E01180100000000000029
S11321C80000030000008A03DE0100000000000094
S11321D80000000000000000000030099B030A0210
S11321E800000000000000000000000000000000E3
S11321F80A0A62030A02000000000000000000004E
S1132208000000000000020AA0030A020000000007
S1132218000000000000000000000000FA09A50307
S11322282002860170015A0100000000000000002D
S113223803000000900320020000000000000000DA
S11322480000000000000000A908AE032002C80135
S1132258B2019C010000000000000000030000001F
S1132268B80300000A02F401DE01000000000000C7
S11322780000030000004D435032353135206973A6
S1132288204E4F5420696E206E6F726D616C206D04
S11322986F64652061667465722043414E20696EDF
S11322A86974004D435032353135206973204E4FDF
S11322B85420696E20636F6E66696775726174690C
S11322C86F6E206D6F646520616674657220726537
S11322D8736574002573206973206E6F7420696EAA
S11322E82074686520746F702036002020004348ED
S11322F84F4F53452041204E414D4520202046490B
S11323084E495348202D3E0A0025630A0023202005
S113231853636F726500557365720A002564202043
S113232825640025730A00496E697420646F6E651C
S113233800257300596F752068617665202564202F
S11323486C69766573206C65667400507265737386
S1132358206A6F79737469636B00506C61792067C4
S1132368616D65203A440047616D65206F7665723A
S11323782E2E2E00596F75206C61737465642025A8
S113238864207365636F6E64730048696768736378
S11323986F72657320636C65617265640048696770
S11323A868004D656469756D004C6F7700496E76F9
S11323B86572742073637265656E00436F6E747220
S11323C8617374206C6576656C00436C656172207A
S11323D84869676873636F72657300466173740054
S11323E8536C6F770053657474696E677300506C2F
S11323F861792067616D65004D61696E206D656E58
S1052408750059
S9030000FC
