S011000041546D6567613136322E737265634B
S11300000C9438000C9418010C9455000C94550071
S11300100C9455000C9455000C9455000C94550008
S11300200C9455000C9455000C9455000C945500F8
S11300300C9455000C9455000C9455000C945500E8
S11300400C9455000C9455000C9455000C945500D8
S11300500C9455000C9455000C9455000C945500C8
S11300600C9455000C9455000C9455000C945500B8
S113007011241FBECFEFD4E0DEBFCDBF11E0A0E05E
S1130080B1E0ECEFFDE002C005900D92A83BB10792
S1130090D9F721E0A8EBB1E001C01D92A33CB2075F
S11300A0E1F70E9401020C94FC060C94000063E04A
S11300B08BE20E94850185B7826085BF8BB780641F
S11300C08BBF40E460EE8FE00E94AC010895EF9294
S11300D0FF920F931F93CF93DF937C01FC01608108
S11300E0718176956795769567957695679581E3A1
S11300F00E948501F70160816295660F607E82E34C
S11301000E94850160E083E30E94850160E084E34E
S11301100E948501F701628185E30E948501F70150
S11301208281882399F087010D5F1F4FC0E0D0E0E2
S1130130F80161918F018C2F8A5C0E9485012196C0
S1130140F701228130E0C217D30794F381E80E94BB
S11301509D01DF91CF911F910F91FF90EF90089532
S1130160CF92DF92EF92FF920F931F93CF93DF937F
S11301707C01C62F81E0860F0E945E01D82F82E0A9
S11301808C0F0E945E01482F4295469547702D2F93
S113019030E0C901880F991F880F991F880F991F94
S11301A0842BF7019183808385E08C0F0E945E018C
S11301B08F70F70182838823F9F00F2EF6E0DF2E8B
S11301C0F02DDC0E87010D5F1F4F0F2EFEE0CF2EAA
S11301D0F02DCC0EC0E0D0E08D2D0E945E01F80120
S11301E081938F012196F701228130E0C217D30752
S11301F01CF4D394DC10F0CFDF91CF911F910F91B9
S1130200FF90EF90DF90CF9008952091B8012130B6
S113021019F0223039F0089560E60E94B00010927F
S1130220B801089560E70E94B0001092B8010895E3
S11302301F920F920FB60F9211242F933F934F9357
S11302405F936F937F938F939F93AF93BF93EF933A
S1130250FF938CE20E945E0180FF09C081E08093DD
S1130260B80140E061E08CE20E94AC010AC081FF69
S113027008C082E08093B80140E062E08CE20E9412
S1130280AC01FF91EF91BF91AF919F918F917F91BD
S11302906F915F914F913F912F910F900FBE0F90EF
S11302A01F90189580E090E00E94D40180EC0E9499
S11302B0CF0181E090E00E94D4010895CF93C82F2C
S11302C080E090E00E94D40183E00E94CF018C2F53
S11302D00E94CF0180E00E94CF01C82F81E090E00E
S11302E00E94D4018C2FCF9108950E9452018EE078
S11302F00E945E01807E803831F086E091E00E94A9
S1130300D60281E0089580E00895CF93DF93D82F3B
S1130310C62F80E090E00E94D40182E00E94CF01C9
S11303208D2F0E94CF018C2F0E94CF0181E090E09D
S11303300E94D401DF91CF910895CF93C82F80E01C
S113034090E00E94D4018C2F0E94CF0181E090E0C4
S11303500E94D401CF9108951F93CF93DF93182F58
S1130360D62FC42F80E090E00E94D40185E00E9443
S1130370CF01812F0E94CF018D2F0E94CF018C2F9E
S11303800E94CF0181E090E00E94D401DF91CF91DF
S11303901F91089581E58DB980EB87BB08958FB9CE
S11303A0779BFECF8FB108958130910511F4C49AE3
S11303B00895892B09F4C49808955D9BFECF8CB9E8
S11303C008958BB18CB1089520B5922B90BD99B14D
S11303D0892B89B98AB188618AB980B58E6880BD54
S11303E061EE71E08DED91E00E947702089585B78A
S11303F0806885BF80B7806280BF8B9880E090E082
S11304000895CF93DF93CDB7DEB766970FB6F89410
S1130410DEBF0FBECDBFF8948FE190E00E94E401EF
S11304200E94F7010E94CA010E9475010E945700B0
S113043087E391E00E94D6027894FE0131968BE026
S1130440DF011D928A95E9F783E090E09A8389831E
S113045081E08B8388EC8C830F2EF4E4CF2EF1E0C3
S1130460DF2EF02D0F2EF0E7EF2EF1E0FF2EF02D12
S113047000E911E0CE0101960E94670085EF90E04B
S11304800197F1F700C00000CE010C960E9405010F
S11304908F851F928F938C811F928F93DF92CF92BF
S11304A00E94C2028D858F938C858F938A818F934E
S11304B089818F93FF92EF920E94C2028E851F92D0
S11304C08F938B811F928F931F930F930E94C2026D
S11304D09FEFAFEFBDE19150A040B040E1F700C005
S11304E000000FB6F894DEBF0FBECDBFC3CF0F938D
S11304F01F93CF93DF93EC018B01009731F46115C7
S1130500710519F480E090E038C06EE070E081E09D
S113051090E00E94D504FC010097A1F380E8838356
S11305200115110571F01387028781E88383809197
S1130530B9019091BA01892B21F4F093BA01E093A7
S1130540B9012097C9F0D187C087838182608383F2
S11305508091BB019091BC01892B71F4F093BC0193
S1130560E093BB018091BD019091BE01892B21F4E0
S1130570F093BE01E093BD01CF01DF91CF911F91B4
S11305800F910895A0E0B0E0E8ECF2E00C94D506F9
S1130590FE01359661917191AF018091BB019091FB
S11305A0BC010E940303E2E00C94F1060F931F9335
S11305B0CF93DF93E091BB01F091BC01238121FF34
S11305C01BC0EC0100E010E089916091BB017091C7
S11305D0BC01DB011896ED91FC911997882331F049
S11305E00995892B89F30FEF1FEFEECF8AE0099568
S11305F0892B11F4C80102C08FEF9FEFDF91CF91D7
S11306001F910F910895ACE0B0E0E9E0F3E00C94A1
S1130610C5067C016B018A01FC0117821682838165
S113062081FFBDC1CE0101964C01F7019381F60112
S113063093FD859193FF81916F01882309F4ABC1E8
S1130640853239F493FD859193FF81916F01853251
S113065029F4B70190E00E943506E7CF512C312CE4
S113066020E02032A0F48B3269F030F4803259F06B
S1130670833269F420612CC08D3239F0803339F42F
S1130680216026C02260246023C0286021C027FD89
S113069027C030ED380F3A3078F426FF06C0FAE070
S11306A05F9E300D1124532E13C08AE0389E300D06
S11306B01124332E20620CC08E3221F426FD6BC12E
S11306C0206406C08C3611F4206802C0883641F4D8
S11306D0F60193FD859193FF81916F018111C1CF43
S11306E0982F9F7D9554933028F40C5F1F4FFFE3A0
S11306F0F9830DC0833631F0833771F0833509F007
S11307005BC022C0F801808189830E5F1F4F44249F
S11307104394512C540115C03801F2E06F0E711C42
S1130720F801A080B18026FF03C0652D70E002C0EF
S11307306FEF7FEFC5012C870E942A062C018301ED
S11307402C852F77222E17C03801F2E06F0E711C12
S1130750F801A080B18026FF03C0652D70E002C0BF
S11307606FEF7FEFC5012C870E9418062C012C85A2
S11307702068222E830123FC1BC0832D90E04816A1
S11307805906B0F4B70180E290E00E9435063A942D
S1130790F4CFF50127FC859127FE81915F01B70114
S11307A090E00E94350631103A94F1E04F1A510856
S11307B04114510471F7E5C0843611F0893639F5D6
S11307C0F80127FF07C060817181828193810C5FEA
S11307D01F4F08C060817181882777FD8095982F0D
S11307E00E5F1F4F2F76B22E97FF09C0909580950C
S11307F0709561957F4F8F4F9F4F2068B22E2AE0EE
S113080030E0A4010E946706A82EA81844C08537CA
S113081029F42F7EB22E2AE030E025C0F22FF97F92
S1130820BF2E8F36C1F018F4883579F0B4C0803704
S113083019F0883721F0AFC02F2F2061B22EB4FEFB
S11308400DC08B2D8460B82E09C024FF0AC09F2FD1
S11308509660B92E06C028E030E005C020E130E003
S113086002C020E132E0F801B7FE07C06081718167
S1130870828193810C5F1F4F06C06081718180E08B
S113088090E00E5F1F4FA4010E946706A82EA818CF
S1130890FB2DFF77BF2EB6FE0BC02B2D2E7FA5148C
S11308A050F4B4FE0AC0B2FC08C02B2D2E7E05C045
S11308B07A2C2B2D03C07A2C01C0752C24FF0DC07B
S11308C0FE01EA0DF11D8081803311F4297E09C0F7
S11308D022FF06C07394739404C0822F867809F0B3
S11308E0739423FD13C020FF06C05A2C731418F40C
S11308F0530C5718732C731468F4B70180E290E01A
S11309002C870E94350673942C85F5CF731410F44C
S1130910371801C0312C24FF12C0B70180E390E0E6
S11309202C870E9435062C8522FF17C021FF03C0A7
S113093088E590E002C088E790E0B7010CC0822F00
S1130940867859F021FD02C080E201C08BE227FDC8
S11309508DE2B70190E00E943506A51438F4B70182
S113096080E390E00E9435065A94F7CFAA94F401EC
S1130970EA0DF11D8081B70190E00E943506A110B7
S1130980F5CF332009F451CEB70180E290E00E9404
S113099035063A94F6CFF7018681978102C08FEF2E
S11309A09FEF2C96E2E10C94E1060F931F93CF93F3
S11309B0DF93869F8001879F100D969F100D112451
S11309C0C8010E94F104EC01009729F0A80160E03D
S11309D070E00E942306CE01DF91CF911F910F9109
S11309E00895CF93DF938230910510F482E090E074
S11309F0E091C101F091C20120E030E0A0E0B0E05C
S1130A00309739F14081518148175907B8F0481798
S1130A10590771F482819381109729F013969C935E
S1130A208E9312972CC09093C2018093C10127C06A
S1130A302115310531F04217530718F0A901DB01E4
S1130A4001C0EF019A01BD01DF010280F381E02DB5
S1130A50D7CF21153105F9F0281B390B2430310586
S1130A6080F48A819B816115710521F0FB019383D8
S1130A70828304C09093C2018093C101FE01329627
S1130A8044C0FE01E20FF31F819391932250310978
S1130A90398328833AC02091BF013091C001232BB0
S1130AA041F420910201309103013093C00120935D
S1130AB0BF0120910001309101012115310541F45C
S1130AC02DB73EB74091040150910501241B350B0D
S1130AD0E091BF01F091C001E217F307A0F42E1BCF
S1130AE03F0B2817390778F0AC014E5F5F4F24178E
S1130AF0350748F04E0F5F1F5093C0014093BF016C
S1130B008193919302C0E0E0F0E0CF01DF91CF91B7
S1130B100895CF93DF93009709F487C0FC013297BF
S1130B2013821282C091C101D091C201209781F435
S1130B3020813181280F391F8091BF019091C0011C
S1130B408217930779F5F093C001E093BF016DC05C
S1130B50DE0120E030E0AE17BF0750F412964D914D
S1130B605C9113979D014115510509F1DA01F3CF09
S1130B70B383A28340815181840F951F8A179B07F9
S1130B8071F48D919C911197840F951F0296918316
S1130B90808312968D919C91139793838283211560
S1130BA0310529F4F093C201E093C1013EC0D9019B
S1130BB01396FC93EE9312974D915D91A40FB51F7C
S1130BC0EA17FB0779F480819181840F951F0296BF
S1130BD0D90111969C938E938281938113969C9351
S1130BE08E931297E0E0F0E08A819B81009719F0E0
S1130BF0FE01EC01F9CFCE01029628813981820FE2
S1130C00931F2091BF013091C0012817390769F45F
S1130C10309729F41092C2011092C10102C01382CC
S1130C201282D093C001C093BF01DF91CF91089588
S1130C30FC010590615070400110D8F780959095A3
S1130C408E0F9F1F0895DC0101C06D9341505040E9
S1130C50E0F70895FC016150704001900110D8F74D
S1130C60809590958E0F9F1F08950F931F93CF9398
S1130C70DF93182F092FEB018B8181FD03C08FEFC8
S1130C809FEF20C082FF10C04E815F812C813D8187
S1130C90421753077CF4E881F9819F012F5F3F4F8E
S1130CA039832883108306C0E885F985812F099547
S1130CB0892B29F72E813F812F5F3F4F3F832E835E
S1130CC0812F902FDF91CF911F910F910895FA01F9
S1130CD0AA27283051F1203181F1E8946F936E7F77
S1130CE06E5F7F4F8F4F9F4FAF4FB1E03ED0B4E068
S1130CF03CD0670F781F891F9A1FA11D680F791FA9
S1130D008A1F911DA11D6A0F711D811D911DA11DB9
S1130D1020D009F468943F912AE0269F11243019C9
S1130D20305D3193DEF6CF010895462F4770405D64
S1130D304193B3E00FD0C9F7F6CF462F4F70405D13
S1130D404A3318F0495D31FD4052419302D0A9F76E
S1130D50EACFB4E0A6959795879577956795BA9568
S1130D60C9F700976105710508959B01AC010A2E2E
S1130D7006945795479537952795BA95C9F7620F05
S1130D80731F841F951FA01D08952F923F924F92A9
S1130D905F926F927F928F929F92AF92BF92CF9207
S1130DA0DF92EF92FF920F931F93CF93DF93CDB710
S1130DB0DEB7CA1BDB0B0FB6F894DEBF0FBECDBF88
S1130DC009942A88398848885F846E847D848C8459
S1130DD09B84AA84B984C884DF80EE80FD800C8162
S1130DE01B81AA81B981CE0FD11D0FB6F894DEBF45
S10F0DF00FBECDBFED010895F894FFCFB5
S1130DFC0000C30120004D43503235313520697356
S1130E0C204E4F5420696E20636F6E66696775724D
S1130E1C6174696F6E206D6F6465206166746572B0
S1130E2C207265736574000A0A0A496E6974206439
S1130E3C6F6E65000A0A53656E74206D6573736179
S1130E4C67653A20256420092052656365697665D7
S1130E5C64206D6573736167653A202564200A000C
S1130E6C53656E742069643A202564200920526508
S1130E7C6365697665642069643A202564200A00F8
S1130E8C53656E74206C656E6774683A2025642013
S1130E9C09205265636569766564206C656E6774B8
S10B0EAC683A202564200A00C5
S9030000FC
