S011000041546D6567613136322E737265634B
S11300000C9438000C94D2000C9455000C945500B8
S11300100C9455000C9455000C9455000C94550008
S11300200C9455000C9455000C9455000C945500F8
S11300300C9455000C9455000C9455000C945500E8
S11300400C9455000C9455000C9455000C945500D8
S11300500C9455000C9455000C9455000C945500C8
S11300600C9455000C9455000C9455000C945500B8
S113007011241FBECFEFD4E0DEBFCDBF12E0A0E05D
S1130080B1E0E6E6FEE002C005900D92AC31B107A6
S1130090D9F722E0ACE1B2E001C01D92AB32B20765
S11300A0E1F70E9489020C9431070C94000040E6A9
S11300B060E680E60E946A0140E660E680E70E940E
S11300C06A0144E064E080E60E946A0144E064E07E
S11300D080E70E946A0140E060EE8FE00E946A01BE
S11300E08EE00E941C01807E39F086E091E00E943F
S11300F00B0381E090E0089563E08BE20E944301EA
S113010085B7826085BF8BB780648BBF80E090E049
S11301100895EF92FF920F931F93CF93DF937C0187
S1130120FC016081718176956795769567957695E2
S1130130679581E30E944301F70160816295660F30
S1130140607E82E30E94430160E083E30E944301F6
S113015060E084E30E944301F701628185E30E9429
S11301604301F7018281882399F087010D5F1F4FB6
S1130170C0E0D0E0F80161918F018C2F8A5C0E946D
S113018043012196F701228130E0C217D30794F38B
S113019081E80E945B01DF91CF911F910F91FF9045
S11301A0EF9008951F920F920FB60F9211242F9380
S11301B03F934F935F936F937F938F939F93AF93EB
S11301C0BF93EF93FF938CE20E941C0180FF09C050
S11301D081E080931C0240E061E08CE20E946A01AD
S11301E00AC081FF08C082E080931C0240E062E004
S11301F08CE20E946A01FF91EF91BF91AF919F91B0
S11302008F917F916F915F914F913F912F910F90BB
S11302100FBE0F901F90189580E090E00E94980107
S113022080EC0E948F0182E48A95F1F700C081E09E
S113023090E00E9498010895CF93C82F80E090E049
S11302400E94980183E00E948F018C2F0E948F01ED
S113025080E00E948F01C82F81E090E00E94980105
S11302608C2FCF9108950E940C018EE00E941C01F6
S1130270807E803831F089E791E00E940B0381E0B1
S1130280089580E00895CF93DF93D82FC62F80E0A0
S113029090E00E94980182E00E948F018D2F0E94BD
S11302A08F018C2F0E948F0181E090E00E949801C1
S11302B0DF91CF910895CF93C82F80E090E00E9402
S11302C098018C2F0E948F0181E090E00E94980198
S11302D0CF9108951F93CF93DF93182FD62FC42F58
S11302E080E090E00E94980185E00E948F01812FB8
S11302F00E948F018D2F0E948F018C2F0E948F01ED
S113030081E090E00E949801DF91CF911F910895C0
S113031087B3806B87BB81E18DB96E9A08958FB9DD
S1130320779BFECF82E48A95F1F700C08FB10895E0
S11303308130910511F4C49A0895892B09F4C49865
S113034008955D9BFECF8CB908955F9BFECF8CB161
S1130350089520B5922B90BD99B1892B89B98AB1A2
S113036088618AB980B58E6880BD65EA71E081EAEA
S113037091E00E94AC02089585B7806885BF80B77C
S1130380806280BF8B9880E090E00895843070F4A0
S11303908460809300148399FECF85EF90E00197E9
S11303A0F1F700C0000080910014089580E00895E2
S11303B0CF93DF93CDB7DEB72B970FB6F894DEBF9C
S11303C00FBECDBF0E94490221E030E03A83298369
S11303D01C828D8382E08B83CE0101960E9489006A
S11303E08D811F928F938AEA91E09F938F930E944D
S11303F0F7028A818F9389818F938FEC91E09F9389
S11304008F930E94F7028B811F928F938DED91E061
S11304109F938F930E94F7020FB6F894DEBF0FBE2E
S1130420CDBF2B960FB6F894DEBF0FBECDBFDF91C4
S1130430CF910895CF93DF93CDB7DEB72B970FB647
S1130440F894DEBF0FBECDBF0E94860221E030E0EB
S11304503A83298393E09C838D8382E08B83CE014E
S113046001960E9489008D811F928F9380EF91E005
S11304709F938F930E94F7020F900F900F900F900D
S11304802B960FB6F894DEBF0FBECDBFDF91CF9190
S11304900895CF9380E00E94C601C82F8CEC94E0AD
S11304A00197F1F700C0000081E00E94C601282FE7
S11304B06C2F70E0822F90E0CF9108950E94490242
S11304C060931D0270931E0280931F02909320027A
S11304D008950E945E02B898C09A0895B998BA988F
S11304E00895CF9383E00E94C601C82F8CEC94E05A
S11304F00197F1F700C0000082E00E94C601282F96
S11305006C2F70E0822F90E0CF9108950E947102C9
S11305100895F8948FE190E00E94A9010E94BC0123
S11305200E9469020E946E020E9488010E943301A7
S11305300E9457008FE092E00E940B0378940E947F
S1130540D80180E090EF0197F1F70E941A0280E051
S113055090EF0197F1F7F3CF0F931F93CF93DF93AE
S1130560EC018B01009731F46115710519F480E0F9
S113057090E038C06EE070E081E090E00E940A05EF
S1130580FC010097A1F380E883830115110571F044
S11305901387028781E8838380912102909122024C
S11305A0892B21F4F0932202E09321022097C9F0D1
S11305B0D187C08783818260838380912302909155
S11305C02402892B71F4F0932402E0932302809196
S11305D0250290912602892B21F4F0932602E093C0
S11305E02502CF01DF91CF911F910F910895A0E0D3
S11305F0B0E0EDEFF2E00C940A07FE01359661914C
S11306007191AF0180912302909124020E943803DA
S1130610E2E00C9426070F931F93CF93DF93E091AE
S11306202302F0912402238121FF1BC0EC0100E08E
S113063010E089916091230270912402DB011896E5
S1130640ED91FC911997882331F00995892B89F351
S11306500FEF1FEFEECF8AE00995892B11F4C80143
S113066002C08FEF9FEFDF91CF911F910F910895FB
S1130670ACE0B0E0EEE3F3E00C94FA067C016B012D
S11306808A01FC0117821682838181FFBDC1CE01DC
S113069001964C01F7019381F60193FD859193FF37
S11306A081916F01882309F4ABC1853239F493FD3C
S11306B0859193FF81916F01853229F4B70190E010
S11306C00E946A06E7CF512C312C20E02032A0F49E
S11306D08B3269F030F4803259F0833269F420614E
S11306E02CC08D3239F0803339F4216026C0226069
S11306F0246023C0286021C027FD27C030ED380FB7
S11307003A3078F426FF06C0FAE05F9E300D1124DB
S1130710532E13C08AE0389E300D1124332E2062EC
S11307200CC08E3221F426FD6BC1206406C08C36C9
S113073011F4206802C0883641F4F60193FD8591D6
S113074093FF81916F018111C1CF982F9F7D9554A3
S1130750933028F40C5F1F4FFFE3F9830DC08336F9
S113076031F0833771F0833509F05BC022C0F801A2
S1130770808189830E5F1F4F44244394512C54017C
S113078015C03801F2E06F0E711CF801A080B18031
S113079026FF03C0652D70E002C06FEF7FEFC50137
S11307A02C870E945F062C0183012C852F77222E33
S11307B017C03801F2E06F0E711CF801A080B180FF
S11307C026FF03C0652D70E002C06FEF7FEFC50107
S11307D02C870E944D062C012C852068222E830133
S11307E023FC1BC0832D90E048165906B0F4B701D2
S11307F080E290E00E946A063A94F4CFF50127FC67
S1130800859127FE81915F01B70190E00E946A06FD
S113081031103A94F1E04F1A51084114510471F720
S1130820E5C0843611F0893639F5F80127FF07C091
S113083060817181828193810C5F1F4F08C0608148
S11308407181882777FD8095982F0E5F1F4F2F7633
S1130850B22E97FF09C090958095709561957F4F52
S11308608F4F9F4F2068B22E2AE030E0A4010E94EF
S11308709C06A82EA81844C0853729F42F7EB22ED2
S11308802AE030E025C0F22FF97FBF2E8F36C1F069
S113089018F4883579F0B4C0803719F0883721F01E
S11308A0AFC02F2F2061B22EB4FE0DC08B2D8460FB
S11308B0B82E09C024FF0AC09F2F9660B92E06C027
S11308C028E030E005C020E130E002C020E132E061
S11308D0F801B7FE07C060817181828193810C5F4A
S11308E01F4F06C06081718180E090E00E5F1F4F52
S11308F0A4010E949C06A82EA818FB2DFF77BF2EEA
S1130900B6FE0BC02B2D2E7FA51450F4B4FE0AC0E6
S1130910B2FC08C02B2D2E7E05C07A2C2B2D03C0D3
S11309207A2C01C0752C24FF0DC0FE01EA0DF11DC7
S11309308081803311F4297E09C022FF06C073949C
S1130940739404C0822F867809F0739423FD13C036
S113095020FF06C05A2C731418F4530C5718732C28
S1130960731468F4B70180E290E02C870E946A0651
S113097073942C85F5CF731410F4371801C0312CFF
S113098024FF12C0B70180E390E02C870E946A061E
S11309902C8522FF17C021FF03C088E590E002C028
S11309A088E790E0B7010CC0822F867859F021FDCA
S11309B002C080E201C08BE227FD8DE2B70190E026
S11309C00E946A06A51438F4B70180E390E00E94FF
S11309D06A065A94F7CFAA94F401EA0DF11D8081B6
S11309E0B70190E00E946A06A110F5CF332009F404
S11309F051CEB70180E290E00E946A063A94F6CFA5
S1130A00F7018681978102C08FEF9FEF2C96E2E178
S1130A100C9416070F931F93CF93DF93869F800147
S1130A20879F100D969F100D1124C8010E94260562
S1130A30EC01009729F0A80160E070E00E945806DC
S1130A40CE01DF91CF911F910F910895CF93DF9342
S1130A508230910510F482E090E0E0912902F09157
S1130A602A0220E030E0A0E0B0E0309739F1408184
S1130A70518148175907B8F04817590771F4828112
S1130A809381109729F013969C938E9312972CC000
S1130A9090932A028093290227C02115310531F051
S1130AA04217530718F0A901DB0101C0EF019A01B5
S1130AB0BD01DF010280F381E02DD7CF211531057F
S1130AC0F9F0281B390B2430310580F48A819B818D
S1130AD06115710521F0FB019383828304C0909317
S1130AE02A0280932902FE01329644C0FE01E20FDD
S1130AF0F31F8193919322503109398328833AC09B
S1130B002091270230912802232B41F420910201E5
S1130B103091030130932802209327022091000191
S1130B20309101012115310541F42DB73EB74091B3
S1130B30040150910501241B350BE0912702F0912B
S1130B402802E217F307A0F42E1B3F0B28173907DE
S1130B5078F0AC014E5F5F4F2417350748F04E0F15
S1130B605F1F50932802409327028193919302C000
S1130B70E0E0F0E0CF01DF91CF910895CF93DF93D0
S1130B80009709F487C0FC01329713821282C09146
S1130B902902D0912A02209781F420813181280FE3
S1130BA0391F80912702909128028217930779F5C3
S1130BB0F0932802E09327026DC0DE0120E030E0CC
S1130BC0AE17BF0750F412964D915C9113979D0197
S1130BD04115510509F1DA01F3CFB383A2834081B2
S1130BE05181840F951F8A179B0771F48D919C91F5
S1130BF01197840F951F02969183808312968D918D
S1130C009C911397938382832115310529F4F093E2
S1130C102A02E09329023EC0D9011396FC93EE9375
S1130C2012974D915D91A40FB51FEA17FB0779F454
S1130C3080819181840F951F0296D90111969C930E
S1130C408E938281938113969C938E931297E0E006
S1130C50F0E08A819B81009719F0FE01EC01F9CF45
S1130C60CE01029628813981820F931F2091270299
S1130C70309128022817390769F4309729F4109223
S1130C802A021092290202C013821282D0932802EF
S1130C90C0932702DF91CF910895FC010590615024
S1130CA070400110D8F7809590958E0F9F1F08957E
S1130CB0DC0101C06D9341505040E0F70895FC0100
S1130CC06150704001900110D8F7809590958E0F77
S1130CD09F1F08950F931F93CF93DF93182F092F0E
S1130CE0EB018B8181FD03C08FEF9FEF20C082FF5A
S1130CF010C04E815F812C813D81421753077CF4E3
S1130D00E881F9819F012F5F3F4F39832883108346
S1130D1006C0E885F985812F0995892B29F72E814D
S1130D203F812F5F3F4F3F832E83812F902FDF9191
S1130D30CF911F910F910895FA01AA27283051F1FC
S1130D40203181F1E8946F936E7F6E5F7F4F8F4FF8
S1130D509F4FAF4FB1E03ED0B4E03CD0670F781F57
S1130D60891F9A1FA11D680F791F8A1F911DA11D3C
S1130D706A0F711D811D911DA11D20D009F4689475
S1130D803F912AE0269F11243019305D3193DEF61D
S1130D90CF010895462F4770405D4193B3E00FD0D3
S1130DA0C9F7F6CF462F4F70405D4A3318F0495DBE
S1130DB031FD4052419302D0A9F7EACFB4E0A695A1
S1130DC09795879577956795BA95C9F700976105C3
S1130DD0710508959B01AC010A2E06945795479519
S1130DE037952795BA95C9F7620F731F841F951F0E
S1130DF0A01D08952F923F924F925F926F927F921F
S1130E008F929F92AF92BF92CF92DF92EF92FF9216
S1130E100F931F93CF93DF93CDB7DEB7CA1BDB0BC2
S1130E200FB6F894DEBF0FBECDBF09942A88398867
S1130E3048885F846E847D848C849B84AA84B9846E
S1130E40C884DF80EE80FD800C811B81AA81B9817A
S1130E50CE0FD11D0FB6F894DEBF0FBECDBFED018E
S1090E600895F894FFCF91
S1130E6600002B0220004D43503235313520697382
S1130E76204E4F5420696E206E6F726D616C206D2A
S1130E866F64652061667465722043414E20696E05
S1130E966974006E6F20696E746572727570742061
S1130EA63100696E746572727570742068616E645F
S1130EB66C6564203100696E746572727570742095
S1130EC668616E646C65642032006E6F20696E74AE
S1130ED66572727570742032004D43503235313567
S1130EE6206973204E4F5420696E20636F6E6669C5
S1130EF66775726174696F6E206D6F6465206166D3
S1130F06746572207265736574000A0A53656E749B
S1130F16206A6F79737469636B20706F736974697F
S1130F266F6E202878293A2028256429200A005340
S1130F36656E742069643A202564200A0053656E40
S1130F4674206C656E6774683A20256420200A0054
S1130F560A0A53656E7420736C6964657220706F37
S1130F66736974696F6E3A2028256429200A000A79
S10F0F760A0A496E697420646F6E6500FD
S9030000FC
