S011000041546D6567613136322E737265634B
S11300000C9426010C9443010C9443010C94430179
S11300100C9443010C9443010C9443010C9443014C
S11300200C9443010C9443010C9443010C9443013C
S11300300C9443010C9443010C9443010C9443012C
S11300400C9443010C9443010C9443010C9443011C
S11300500C9443010C9443010C9443010C9443010C
S11300600C9443010C9443010C9443010C944301FC
S1130070000000000000005F0000000700070014FB
S11300807F147F14242A7F2A1223130864623649BA
S11300905522500005030000001C224100004122AB
S11300A01C00082A1C2A0808083E080800503000D2
S11300B00008080808080060600000201008040216
S11300C03E5149453E00427F40004261514946212C
S11300D041454B311814127F1027454545393C4A98
S11300E049493001710905033649494936064949E8
S11300F0291E00363600000056360000000814227F
S11301004114141414144122140800020151090664
S1130110324979413E7E1111117E7F494949363E6B
S1130120414141227F4141221C7F494949417F0984
S11301300901013E414151327F0808087F00417F97
S113014041002040413F017F081422417F4040404C
S1130150407F0204027F7F0408107F3E4141413EFC
S11301607F090909063E4151215E7F091929464646
S11301704949493101017F01013F4040403F1F206F
S113018040201F7F2018207F631408146303047821
S11301900403615149454300007F414102040810B2
S11301A02041417F000004020102044040404040DD
S11301B0000102040020545454787F4844443838E1
S11301C044444420384444487F3854545418087EE6
S11301D0090102081454543C7F0804047800447D47
S11301E040002040443D00007F10284400417F40EF
S11301F0007C041804787C080404783844444438A7
S11302007C14141408081414187C7C08040408488A
S113021054545420043F4440203C4040207C1C2043
S113022040201C3C4030403C44281028440C505092
S1130230503C4464544C44000836410000007F00A4
S113024000004136080002010302010011241FBE10
S1130250CFEFD4E0DEBFCDBF11E0A0E0B1E0EEEC23
S1130260F8E002C005900D92A831B107D9F721E05A
S1130270A8E1B1E001C01D92A632B207E1F70E94E5
S1130280A0020C9465040C94000085B7806885BFB7
S113029080B7806280BF8B9880E090E008958430BE
S11302A040F48460809300148399FECF80910014FD
S11302B0089580E00895CF9380E00E944F01C82FF5
S11302C08CEC94E00197F1F700C0000081E00E94FB
S11302D04F01282F6C2F70E0822F90E0CF9108956A
S11302E00E945B01609318017093190180931A01B5
S11302F090931B0108950E947001B898C09A0895C4
S1130300E0910801F09109018EEA8083E0910801EF
S1130310F091090181EA8083E0910801F0910901DB
S11303208AED8083E0910801F091090182E18083E4
S1130330E0910801F091090188EC8083E0910801C3
S1130340F091090188EA8083E0910801F0910901A4
S11303508FE38083E0910801F091090185ED8083AA
S1130360E0910801F091090180E88083E09108019F
S1130370F091090181E88083E0910801F09109017D
S113038080E58083E0910801F091090189ED808383
S1130390E0910801F091090181E28083E091080174
S11303A0F091090180E28083E0910801F091090154
S11303B01082E0910801F09109018BED8083E091B6
S11303C00801F091090180E38083E0910801F09134
S11303D009018DEA8083E0910801F09109011082FE
S11303E0E0910801F091090184EA8083E091080119
S11303F0F091090186EA8083E0910801F0910901F6
S11304008FEA80830895E0910801F091090191E257
S11304109083E0910801F09109018083E091080143
S1130420F09109018FE780830895E0910801F0912C
S1130430090192E29083E0910801F091090180831F
S1130440E0910801F091090187E080830895CF933A
S1130450C62F0E9415028C2F0E940302CF9108958B
S113046060E080E00E942702089560E00E94270275
S113047080E0E0910601F091070110828F5F8038DF
S1130480C1F70895CF93C0E08C2F0E943502CF5F4F
S1130490C830D1F70E943002CF910895CF93DF93F3
S11304A0EC0120E030E0488150E040525109FA016B
S11304B0EE0FFF1FEE0FFF1FE40FF51FE20FF31FF8
S11304C0E059FF4FE491A0910601B0910701EC932C
S11304D02F5F3F4F2530310531F7DF91CF910895DC
S11304E0CF93DF93FC012081222351F0EC0121966C
S11304F00E944E02CE012196FC0120812111F8CFE9
S1130500DF91CF910895B998BA9808955D9BFECF75
S11305108CB908958BB18CB1089520B5922B90BD00
S113052099B1892B89B98AB188618AB980B58E68F5
S113053080BD6AE872E086E892E00E94D0020895E5
S1130540CF93DF93CDB7DEB72E970FB6F894DEBF07
S11305500FBECDBF8FE190E00E948D020E94450145
S11305600E947B010E9483020E9480010E94420239
S11305708EE0EAE0F1E0DE01119601900D928A9599
S1130580E1F7CE0101960E94700280E090E02E9681
S11305900FB6F894DEBF0FBECDBFDF91CF910895A3
S11305A00F931F93CF93DF93EC018B01009731F4EA
S11305B06115710519F480E090E038C06EE070E0D8
S11305C081E090E00E941B03FC010097A1F380E806
S11305D083830115110571F01387028781E88383F2
S11305E080911C0190911D01892B21F4F0931D0130
S11305F0E0931C012097C9F0D187C0878381826072
S1130600838380911E0190911F01892B71F4F093D3
S11306101F01E0931E018091200190912101892BFB
S113062021F4F0932101E0932001CF01DF91CF91D8
S11306301F910F9108950F931F93CF93DF93869F7C
S11306408001879F100D969F100D1124C8010E94F0
S11306503703EC01009729F0A80160E070E00E94E4
S11306605E04CE01DF91CF911F910F910895CF9336
S1130670DF938230910510F482E090E0E091240150
S1130680F091250120E030E0A0E0B0E0309739F1AE
S11306904081518148175907B8F04817590771F438
S11306A082819381109729F013969C938E931297CD
S11306B02CC0909325018093240127C02115310576
S11306C031F04217530718F0A901DB0101C0EF0113
S11306D09A01BD01DF010280F381E02DD7CF2115FE
S11306E03105F9F0281B390B2430310580F48A8157
S11306F09B816115710521F0FB019383828304C002
S11307009093250180932401FE01329644C0FE019A
S1130710E20FF31F81939193225031093983288387
S11307203AC02091220130912301232B41F42091DE
S1130730020130910301309323012093220120917F
S11307400001309101012115310541F42DB73EB767
S11307504091040150910501241B350BE0912201C5
S1130760F0912301E217F307A0F42E1B3F0B281787
S1130770390778F0AC014E5F5F4F2417350748F016
S11307804E0F5F1F50932301409322018193919355
S113079002C0E0E0F0E0CF01DF91CF910895CF9364
S11307A0DF93009709F487C0FC0132971382128209
S11307B0C0912401D0912501209781F420813181B9
S11307C0280F391F809122019091230182179307EA
S11307D079F5F0932301E09322016DC0DE0120E05E
S11307E030E0AE17BF0750F412964D915C91139709
S11307F09D014115510509F1DA01F3CFB383A283B9
S113080040815181840F951F8A179B0771F48D9144
S11308109C911197840F951F029691838083129661
S11308208D919C911397938382832115310529F42B
S1130830F0932501E09324013EC0D9011396FC9363
S1130840EE9312974D915D91A40FB51FEA17FB0724
S113085079F480819181840F951F0296D9011196B4
S11308609C938E938281938113969C938E9312977B
S1130870E0E0F0E08A819B81009719F0FE01EC0131
S1130880F9CFCE01029628813981820F931F2091DE
S11308902201309123012817390769F4309729F48C
S11308A0109225011092240102C013821282D09367
S11308B02301C0932201DF91CF910895DC0101C08F
S11108C06D9341505040E0F70895F894FFCF37
S11308CE0000260120000012001066756E6B657222
S10B08DE2064657474653F0099
S9030000FC
