S011000041546D6567613136322E737265634B
S11300000C9438000C9455000C9455000C94550035
S11300100C9455000C9455000C9455000C94550008
S11300200C9455000C9455000C9455000C945500F8
S11300300C9455000C9455000C9455000C945500E8
S11300400C9455000C9455000C9455000C945500D8
S11300500C9455000C9455000C9455000C945500C8
S11300600C9455000C9455000C9455000C945500B8
S113007011241FBECFEFD4E0DEBFCDBF11E0A0E05E
S1130080B1E0EAE7FAE002C005900D92AC30B107A6
S1130090D9F721E0ACE0B1E001C01D92AA31B2076A
S11300A0E1F70E94CC000C943B050C94000085B74A
S11300B0806885BF80B7806280BF8B9880E090E0C5
S11300C00895843040F48460809300148399FECFB3
S11300D080910014089580E008958130910559F0CD
S11300E08230910569F0892B89F496B381E08927E0
S11300F0817090E0089586B38695817090E00895AC
S113010086B382FB882780F990E0089580E090E030
S11301100895CF9380E00E946100C82F8CEC94E096
S11301200197F1F700C0000081E00E946100282FD0
S11301306C2F70E0822F90E0CF9108950E94890087
S113014060930C0170930D0180930E0190930F0145
S113015008950E9457000E949E00B898B998BA98D2
S1130160C09A08955D9BFECF8CB908958BB18CB174
S1130170089520B5922B90BD99B1892B89B98AB184
S113018088618AB980B58E6880BD66EB70E082EBC9
S113019090E00E94E30008958FE190E00E94B9008E
S11301A00E94A900C6E0D1E080E090E00E946D00CA
S11301B09F938F93DF93CF930E942E010F900F9004
S11301C00F900F90F1CF0F931F93CF93DF93EC0118
S11301D08B01009731F46115710519F480E090E00A
S11301E038C06EE070E081E090E00E941403FC01EE
S11301F00097A1F380E883830115110571F013873B
S1130200028781E883838091100190911101892BE9
S113021021F4F0931101E09310012097C9F0D187E4
S1130220C08783818260838380911201909113013E
S1130230892B71F4F0931301E0931201809114015E
S113024090911501892B21F4F0931501E093140189
S1130250CF01DF91CF911F910F910895A0E0B0E0FD
S1130260E4E3F1E00C941405FE013596619171917B
S1130270AF0180911201909113010E944201E2E0CA
S11302800C943005ACE0B0E0E8E4F1E00C94040533
S11302907C016B018A01FC0117821682838181FF34
S11302A0BDC1CE0101964C01F7019381F60193FD86
S11302B0859193FF81916F01882309F4ABC1853245
S11302C039F493FD859193FF81916F01853229F46F
S11302D0B70190E00E947404E7CF512C312C20E048
S11302E02032A0F48B3269F030F4803259F083323A
S11302F069F420612CC08D3239F0803339F42160E7
S113030026C02260246023C0286021C027FD27C0A6
S113031030ED380F3A3078F426FF06C0FAE05F9EDD
S1130320300D1124532E13C08AE0389E300D112451
S1130330332E20620CC08E3221F426FD6BC1206462
S113034006C08C3611F4206802C0883641F4F601E8
S113035093FD859193FF81916F018111C1CF982FF6
S11303609F7D9554933028F40C5F1F4FFFE3F9836E
S11303700DC0833631F0833771F0833509F05BC0EB
S113038022C0F801808189830E5F1F4F4424439467
S1130390512C540115C03801F2E06F0E711CF801A4
S11303A0A080B18026FF03C0652D70E002C06FEF0E
S11303B07FEFC5012C870E9469042C0183012C85E1
S11303C02F77222E17C03801F2E06F0E711CF8014E
S11303D0A080B18026FF03C0652D70E002C06FEFDE
S11303E07FEFC5012C870E9457042C012C852068BF
S11303F0222E830123FC1BC0832D90E0481659064E
S1130400B0F4B70180E290E00E9474043A94F4CF0F
S1130410F50127FC859127FE81915F01B70190E0EA
S11304200E94740431103A94F1E04F1A51084114B7
S1130430510471F7E5C0843611F0893639F5F801B5
S113044027FF07C060817181828193810C5F1F4FF8
S113045008C060817181882777FD8095982F0E5F91
S11304601F4F2F76B22E97FF09C0909580957095F7
S113047061957F4F8F4F9F4F2068B22E2AE030E066
S1130480A4010E94A604A82EA81844C0853729F404
S11304902F7EB22E2AE030E025C0F22FF97FBF2E46
S11304A08F36C1F018F4883579F0B4C0803719F06C
S11304B0883721F0AFC02F2F2061B22EB4FE0DC0BB
S11304C08B2D8460B82E09C024FF0AC09F2F96602C
S11304D0B92E06C028E030E005C020E130E002C0BB
S11304E020E132E0F801B7FE07C0608171818281AA
S11304F093810C5F1F4F06C06081718180E090E0A2
S11305000E5F1F4FA4010E94A604A82EA818FB2D5D
S1130510FF77BF2EB6FE0BC02B2D2E7FA51450F4F3
S1130520B4FE0AC0B2FC08C02B2D2E7E05C07A2C66
S11305302B2D03C07A2C01C0752C24FF0DC0FE01A5
S1130540EA0DF11D8081803311F4297E09C022FF58
S113055006C07394739404C0822F867809F0739450
S113056023FD13C020FF06C05A2C731418F4530C37
S11305705718732C731468F4B70180E290E02C8749
S11305800E94740473942C85F5CF731410F43718F7
S113059001C0312C24FF12C0B70180E390E02C8706
S11305A00E9474042C8522FF17C021FF03C088E534
S11305B090E002C088E790E0B7010CC0822F8678F3
S11305C059F021FD02C080E201C08BE227FD8DE2DB
S11305D0B70190E00E947404A51438F4B70180E3D5
S11305E090E00E9474045A94F7CFAA94F401EA0D9F
S11305F0F11D8081B70190E00E947404A110F5CF31
S1130600332009F451CEB70180E290E00E947404D3
S11306103A94F6CFF7018681978102C08FEF9FEF5E
S11306202C96E2E10C9420050F931F93CF93DF9354
S1130630869F8001879F100D969F100D1124C8017D
S11306400E943003EC01009729F0A80160E070E0FB
S11306500E946204CE01DF91CF911F910F91089502
S1130660CF93DF938230910510F482E090E0E09123
S11306701801F091190120E030E0A0E0B0E03097DB
S113068039F14081518148175907B8F04817590783
S113069071F482819381109729F013969C938E9321
S11306A012972CC0909319018093180127C021152B
S11306B0310531F04217530718F0A901DB0101C0DD
S11306C0EF019A01BD01DF010280F381E02DD7CF54
S11306D021153105F9F0281B390B2430310580F43C
S11306E08A819B816115710521F0FB0193838283CB
S11306F004C09093190180931801FE01329644C0FE
S1130700FE01E20FF31F8193919322503109398343
S113071028833AC02091160130911701232B41F40C
S113072020910201309103013093170120931601A7
S113073020910001309101012115310541F42DB7BB
S11307403EB74091040150910501241B350BE09103
S11307501601F0911701E217F307A0F42E1B3F0BCB
S11307602817390778F0AC014E5F5F4F241735071F
S113077048F04E0F5F1F5093170140931601819369
S1130780919302C0E0E0F0E0CF01DF91CF910895B2
S1130790CF93DF93009709F487C0FC01329713824B
S11307A01282C0911801D0911901209781F42081FF
S11307B03181280F391F80911601909117018217FA
S11307C0930779F5F0931701E09316016DC0DE01EC
S11307D020E030E0AE17BF0750F412964D915C91C3
S11307E013979D014115510509F1DA01F3CFB38344
S11307F0A28340815181840F951F8A179B0771F44E
S11308008D919C911197840F951F029691838083FB
S113081012968D919C9113979383828321153105B0
S113082029F4F0931901E09318013EC0D9011396FD
S1130830FC93EE9312974D915D91A40FB51FEA17A7
S1130840FB0779F480819181840F951F0296D90169
S113085011969C938E938281938113969C938E938D
S11308601297E0E0F0E08A819B81009719F0FE0185
S1130870EC01F9CFCE01029628813981820F931FB2
S113088020911601309117012817390769F4309720
S113089029F4109219011092180102C013821282D5
S11308A0D0931701C0931601DF91CF910895FC01F5
S11308B00590615070400110D8F7809590958E0F87
S11308C09F1F0895DC0101C06D9341505040E0F733
S11308D00895FC016150704001900110D8F7809593
S11308E090958E0F9F1F08950F931F93CF93DF93BF
S11308F0182F092FEB018B8181FD03C08FEF9FEF30
S113090020C082FF10C04E815F812C813D8142173F
S113091053077CF4E881F9819F012F5F3F4F3983AE
S11309202883108306C0E885F985812F0995892BD2
S113093029F72E813F812F5F3F4F3F832E83812FE5
S1130940902FDF91CF911F910F910895FA01AA275B
S1130950283051F1203181F1E8946F936E7F6E5FFE
S11309607F4F8F4F9F4FAF4FB1E03ED0B4E03CD0AC
S1130970670F781F891F9A1FA11D680F791F8A1F8F
S1130980911DA11D6A0F711D811D911DA11D20D0F6
S113099009F468943F912AE0269F11243019305DB0
S11309A03193DEF6CF010895462F4770405D4193A1
S11309B0B3E00FD0C9F7F6CF462F4F70405D4A33EE
S11309C018F0495D31FD4052419302D0A9F7EACFB6
S11309D0B4E0A6959795879577956795BA95C9F7E5
S11309E000976105710508959B01AC010A2E0694D8
S11309F05795479537952795BA95C9F7620F731F91
S1130A00841F951FA01D08952F923F924F925F92CD
S1130A106F927F928F929F92AF92BF92CF92DF920A
S1130A20EF92FF920F931F93CF93DF93CDB7DEB76F
S1130A30CA1BDB0B0FB6F894DEBF0FBECDBF099403
S1130A402A88398848885F846E847D848C849B845A
S1130A50AA84B984C884DF80EE80FD800C811B8168
S1130A60AA81B981CE0FD11D0FB6F894DEBF0FBE97
S10D0A70CDBFED010895F894FFCF07
S10F0A7A00001A0120002564200A00007E
S9030000FC
