S011000041546D6567613136322E737265634B
S11300000C94B6020C94BA030C94D3020C94D3024D
S11300100C94D3020C94D3020C94D3020C943A059E
S11300200C94D3020C94D3020C9401070C94D302C5
S11300300C94D3020C9430090C94D3020C94D30284
S11300400C94D3020C94D3020C94D3020C94D302D8
S11300500C94D3020C94D3020C94D3020C94D302C8
S11300600C94D3020C94D3020C94D3020C94D302B8
S11300700C0C0C0C0C0C0C0C0C0C0C0C0C0C0C0CBC
S11300800C0C0C0C0C0C0C0C0C0C0C0C0C0C0C0CAC
S11300900909090C0C0C0C0C0C0C0C0C0C0C0C0CA5
S11300A00C0C0C0C0C0C0C0C0C0C0C0C0C0C0C098F
S11300B009090C0C0C0C0C0C0C0C0C0C0C0C00009A
S11300C0323232230F32230F4132323232230F3293
S11300D0230F4132321E0F3220110C0C1920193219
S11300E020110C0C19231932230C32250C41323205
S11300F01E0F3220110C0C1920193220110C0C196E
S1130100231932250C32250C414100000000000067
S113011000C0244400C024440000000000C0244463
S11301200000000000C0024400C02444000000009D
S11301300000444400000000000000000000000033
S11301400000C443000000000000000000000000A4
S113015000C0024400000000000000000000C4438E
S113016000000000000000000000A54300000000A3
S1130170000000000000DC43000000000000F74322
S1130180000000000000E9430000DC430000000020
S11301900000C44300C024440000444400005C4404
S11301A00000000000802E440000444400000000D1
S11301B000C024440000000000C0024400C01244F7
S11301C00000F743000000000000000000C00244EB
S11301D000000000000000000000C4430000000014
S11301E0000000000000A543000000000000000023
S11301F00000DC43000000000000F74300000000A2
S11302000000E9430000DC43000000000000C44398
S113021000C024440000444400005C44000000008A
S113022000802E44000044440000000000C0244428
S11302300000000000C0024400C012440000F74364
S113024000000000000000000000000000000000AA
S11302500000DC430000DC430000DC430080AE43CC
S113026000C002440000DC430080AE4300C00244EE
S11302700000DC430000000000C0244400C024440B
S113028000C0244400802E4400C002440080CF43B8
S11302900080AE4300C002440000DC4300000000C4
S11302A000005C440000DC430000DC4300005C44CC
S11302B000C04F44000044440000394400802E44F0
S11302C000003944000000000000E94300801B44A2
S11302D000C0124400800A4400C002440000F743F6
S11302E000C00244000000000080AE430080CF4301
S11302F00080AE430000DC4300C002440000DC4345
S113030000C0024400C024440000000000005C441B
S11303100000DC430000DC4300005C4400C04F44A8
S1130320000044440000394400802E440000394455
S1130330000000000000E94300801B4400C0124498
S113034000800A4400C002440000F74300C0024495
S1130350000000000080AE430080CF430080AE4325
S113036000C002440000DC430080AE4300C00244ED
S11303700000DC430000000000000000000000005A
S11303800000000000000000000000000000000069
S1130390000000000000005F0000000700070014D8
S11303A07F147F14242A7F2A122313086462364997
S11303B05522500005030000001C22410000412288
S11303C01C00082A1C2A0808083E080800503000AF
S11303D000080808080800606000002010080402F3
S11303E03E5149453E00427F400042615149462109
S11303F041454B311814127F1027454545393C4A75
S113040049493001710905033649494936064949C4
S1130410291E00363600000056360000000814225B
S11304204114141414144122140800020151090641
S1130430324979413E7E1111117E7F494949363E48
S1130440414141227F4141221C7F494949417F0961
S11304500901013E414151327F0808087F00417F74
S113046041002040413F017F081422417F40404029
S1130470407F0204027F7F0408107F3E4141413ED9
S11304807F090909063E4151215E7F091929464623
S11304904949493101017F01013F4040403F1F204C
S11304A040201F7F2018207F6314081463030478FE
S11304B00403615149454300007F4141020408108F
S11304C02041417F000004020102044040404040BA
S11304D0000102040020545454787F4844443838BE
S11304E044444420384444487F3854545418087EC3
S11304F0090102081454543C7F0804047800447D24
S113050040002040443D00007F10284400417F40CB
S1130510007C041804787C08040478384444443883
S11305207C14141408081414187C7C080404084867
S113053054545420043F4440203C4040207C1C2020
S113054040201C3C4030403C44281028440C50506F
S1130550503C4464544C44000836410000007F0081
S113056000004136080002010302010011241FBEED
S1130570CFEFD4E0DEBFCDBF13E0A0E0B1E0E8E50B
S1130580FAE202C005900D92AA3CB107D9F723E024
S1130590AAECB3E001C01D92A63FB207E1F70E94A6
S11305A0230C0C942A150C9400000E941D0440E6B0
S11305B060E680E60E94520440E660E680E70E941E
S11305C0520444E064E080E60E94520444E064E0A3
S11305D080E70E94520440E060EE8FE00E945204E3
S11305E08EE00E940604807E61F463E08BE20E9448
S11305F02B0485B785BF8BB780648BBF80E090E008
S1130600089581E090E00895EF92FF920F931F9375
S1130610CF93DF937C01FC016081718176956795AE
S1130620769567957695679581E30E942B04F7018B
S113063060816295660F607E82E30E942B0460E015
S113064083E30E942B0460E084E30E942B04F701FF
S1130650628185E30E942B04F7018281882399F04B
S113066087010D5F1F4FC0E0D0E0F80161918F0159
S11306708C2F8A5C0E942B042196F701228130E0A2
S1130680C217D30794F381E80E944304DF91CF910A
S11306901F910F91FF90EF900895CF92DF92EF9208
S11306A0FF920F931F93CF93DF937C01C62F81E0BA
S11306B0860F0E940604D82F82E08C0F0E94060445
S11306C0482F4295469547702D2F30E0C901880F79
S11306D0991F880F991F880F991F842BF701918305
S11306E0808385E08C0F0E9406048F70F70182835B
S11306F08823F9F00F2EF6E0DF2EF02DDC0E8701B3
S11307000D5F1F4F0F2EFEE0CF2EF02DCC0EC0E05C
S1130710D0E08D2D0E940604F80181938F0121966B
S1130720F701228130E0C217D3071CF4D394DC1004
S1130730F0CFDF91CF911F910F91FF90EF90DF9059
S1130740CF9008952091CA03213041F018F022304F
S113075059F008952AE0FC012383089560E60E947D
S11307604D031092CA03089560E70E944D0310924E
S1130770CA0308951F920F920FB60F9211242F935C
S11307803F934F935F936F937F938F939F93AF9315
S1130790BF93EF93FF938CE20E94060480FF09C08D
S11307A081E08093CA0340E061E08CE20E9452043D
S11307B00AC081FF08C082E08093CA0340E062E07F
S11307C08CE20E945204FF91EF91BF91AF919F91EF
S11307D08F917F916F915F914F913F912F910F90E6
S11307E00FBE0F901F90189580E090E00E94820445
S11307F080EC0E94770485EF90E00197F1F700C048
S1130800000081E090E00E9482040895CF93C82FF5
S113081080E090E00E94820483E00E9477048C2FA1
S11308200E94770480E00E947704C82F81E090E062
S11308300E9482048C2FCF9108950E9470040E941C
S1130840F4038EE00E940604982F907E81E0903895
S113085009F480E00895CF93DF93D82FC62F80E06A
S113086090E00E94820482E00E9477048D2F0E940F
S113087077048C2F0E94770481E090E00E94820428
S1130880DF91CF910895CF93C82F80E090E00E942C
S113089082048C2F0E94770481E090E00E948204FD
S11308A0CF9108951F93CF93DF93182FD62FC42F82
S11308B080E090E00E94820485E00E947704812F0A
S11308C00E9477048D2F0E9477048C2F0E94770456
S11308D081E090E00E948204DF91CF911F910895FE
S11308E087B3806B87BB81E18DB96E9A08958FB908
S11308F0779BFECF85EF90E00197F1F700C00000F1
S11309008FB108958130910511F4C49A0895892B0B
S113091009F4C49808955D9BFECF8CB908955F9B3C
S1130920FECF8CB1089520B5922B90BD99B1892B3F
S113093089B98AB188618AB980B58E6880BD6FE84B
S113094074E08BE894E00E94E6100895EBE8F0E090
S113095080818C738083EAE8F0E080818F7E8083DD
S1130960808188608083EDE7F0E08081806180830E
S11309700E94AE050895EAE8F0E08081887F8083D4
S113098080E00E94BC0582E090E09093DF038093B6
S1130990DE030895CF92DF92EF92FF926B017C0108
S11309A0A42FB0E020E030E04EEE52E00E9496101A
S11309B020E03AEF40E050E00E9477103093870047
S11309C02093860020E030E0A901C701B6010E940F
S11309D0F30E8823A1F020E030E040E053E4C701A7
S11309E0B6010E9400109B01AC0160E070E086E952
S11309F09AE40E94F70E0E945F0F862F01C080E0E8
S1130A000E94CA05FF90EF90DF90CF900895CF9396
S1130A10DF93EC011092CC031092CB0381E00E948F
S1130A20BC05EAE8F0E080818B7F8083808183606D
S1130A308083D093DF03C093DE0380E58C9FF001B5
S1130A408D9FF00D1124E059FF4F449180E491E013
S1130A50C89FF001C99FF00DD89FF00D1124E05FED
S1130A60FE4F65917591859194910E94CA04DF911E
S1130A70CF9108951F920F920FB60F9211242F93C6
S1130A803F934F935F936F937F938F939F93AF9312
S1130A90BF93EF93FF938091DE039091DF03823045
S1130AA0910509F444C02091CB033091CC032F5F0E
S1130AB03F4F3093CC032093CB03009721F0813038
S1130AC0910549F00FC02F34310561F41092CC0325
S1130AD01092CB0307C02B34310521F41092CC03C0
S1130AE01092CB032091CB033091CC0340E5489F77
S1130AF0F001499FF00D1124E20FF31FE059FF4F5D
S1130B00449150E5589FF001599FF00D11242E0F88
S1130B103F1FF901EE0FFF1FEE0FFF1FE05FFE4FB7
S1130B2065917591859194910E94CA0406C042E32F
S1130B3060E070E0CB010E94CA04FF91EF91BF9185
S1130B40AF919F918F917F916F915F914F913F9161
S1130B502F910F900FBE0F901F90189583B7886048
S1130B6083BF83B78F7B83BF83B7806183BF83B722
S1130B708F7D83BFB89A0895882339F083B7836043
S1130B8083BF83B78B7F83BF089583B7887F83BF79
S1130B9012BE0895CF93C82F882369F080E00E9485
S1130BA0BC0589E999E00197F1F700C0C1BF81E074
S1130BB00E94BC0503C080E00E94BC05CF9108954B
S1130BC085B7806885BF80B7806280BF8B9880E0DE
S1130BD090E00895843070F48460809300148399C5
S1130BE0FECF85EF90E00197F1F700C000008091FF
S1130BF00014089580E00895F894E199FECF7FBB36
S1130C006EBB8DBBE29AE19A78940895E199FECF88
S1130C109FBB8EBBE09A8DB3089587B58F6087BD67
S1130C2086B5877F86BD89B7806189BF80EF82BD25
S1130C300895CF92DF92EF92FF92CF93DF93CDB7D7
S1130C40DEB72B970FB6F894DEBF0FBECDBF0E9460
S1130C5019076B017C018091D5039091D60397010C
S1130C60281B390BC901992324F488279927821B4F
S1130C70930B0697A4F084E090E09A8389831C8206
S1130C80ED8282E08B83CE0101960E940403C09220
S1130C90D303D092D403E092D503F092D6032B96DB
S1130CA00FB6F894DEBF0FBECDBFDF91CF91FF909A
S1130CB0EF90DF90CF900895CF92DF92EF92FF9262
S1130CC0CF93DF93CDB7DEB72B970FB6F894DEBF83
S1130CD00FBECDBF0E947A096B017C018091D103C4
S1130CE09091D2039701281B390BC901992324F44D
S1130CF088279927821B930B0697A4F083E090E042
S1130D009A8389838C83ED8282E08B83CE01019662
S1130D100E940403C092CF03D092D003E092D10387
S1130D20F092D2032B960FB6F894DEBF0FBECDBF60
S1130D30DF91CF91FF90EF90DF90CF9008950F93C4
S1130D401F93CF93DF93CDB7DEB72B970FB6F894ED
S1130D50DEBF0FBECDBF0E945A098C0181309105C0
S1130D60A1F48091CD039091CE03892B71F482E09C
S1130D7090E09A83898384E08C8381E08D8382E090
S1130D808B83CE0101960E9404031093CE0300933B
S1130D90CD032B960FB6F894DEBF0FBECDBFDF9107
S1130DA0CF911F910F9108958091D703882341F02B
S1130DB00E9419060E945C060E949F061092D703A7
S1130DC00895CF93DF93CDB7DEB72B970FB6F89482
S1130DD0DEBF0FBECDBF25E030E03A83298396E025
S1130DE09C838D8382E08B83CE0101960E94040351
S1130DF02B960FB6F894DEBF0FBECDBFDF91CF9117
S1130E0008951F920F920FB60F9211248F9381E0D1
S1130E108093D7038F910F900FBE0F901F9018955A
S1130E2086B386958695869591E08927817090E0B2
S1130E300895CF9380E00E94EA05C82F8CEC94E0DB
S1130E400197F1F700C0000081E00E94EA05282F15
S1130E506C2F70E0822F90E0CF9108950E941907C3
S1130E606093E0037093E1038093E2039093E303C0
S1130E7008950E942E07BB98C39A08950F931F9359
S1130E80CF930E9419078B019C016091E00370913C
S1130E90E103A801461B570BE4E6E49FC001E59F6C
S1130EA0900D11240E946310C62FF72F6091E20366
S1130EB07091E303261B370BE29FC001E39F900D63
S1130EC011240E9463109B016C394FEF740714F4D2
S1130ED02CE93FEF8C2F9F2F8C394FEF940714F49C
S1130EE08CE99FEFAC018536910514F044E650E09F
S1130EF0BA012536310514F024E630E0C901CF915A
S1130F001F910F9108950E943E079B01AC01FC01C3
S1130F107D96FB9720F4FB017D96FB97D8F0DC01CE
S1130F20552324F4AA27BB27A81BB90BFB013323A1
S1130F3024F4EE27FF27E61BF70BEA17FB072CF434
S1130F40141615064CF482E008951216130634F4B0
S1130F5083E0089580E0089581E0089584E0089591
S1130F6088238CF0E0911601F091170191E29083AF
S1130F70E0911601F09117018083E0911601F09140
S1130F8017018FE780830895883098F4E091160163
S1130F90F091170192E290838093DA03E0911601B5
S1130FA0F09117018083E0911601F091170187E019
S1130FB080830895CF93C62F0E94C4078C2F0E946C
S1130FC0B007CF9108958A3039F48091DA0360E054
S1130FD08F5F0E94DA070895E82FF0E0B097CF0101
S1130FE0880F991F880F991FE80FF91FE057FC4FCE
S1130FF080E090E02491A0911401B09115012C930C
S11310000196319685309105A9F7089560E080E056
S11310100E94DA07089560E00E94DA0780E0E09118
S11310201401F091150110828F5F8038C1F7089583
S1131030CF93C0E08C2F0E940B08CF5FC830D1F74C
S11310400E940608CF910895E0911601F0911701CE
S11310508EEA8083E0911601F091170181EA808382
S1131060E0911601F09117018AED8083E091160159
S1131070F091170182E18083E0911601F09117014C
S113108088EC8083E0911601F091170188EA80834F
S1131090E0911601F09117018FE38083E09116012E
S11310A0F091170185ED8083E0911601F09117010D
S11310B080E88083E0911601F091170181E8808334
S11310C0E0911601F091170180E58083E09116010B
S11310D0F091170189ED8083E0911601F0911701D9
S11310E081E28083E0911601F091170180E2808310
S11310F0E0911601F09117011082E0911601F09130
S113110017018BED8083E0911601F091170180E3C4
S11311108083E0911601F09117018DEA8083E091BC
S11311201601F09117011082E0911601F091170158
S113113084EA8083E0911601F091170186EA8083A6
S1131140E0911601F09117018FEA80830E9418083C
S1131150E0911601F091170183ED8083E09116016F
S1131160F091170110820895E0911601F091170192
S113117091E89083E0911601F0911701808308951E
S11311808091D8039091D903892B69F4E0911601D9
S1131190F091170187EA808381E090E09093D9036E
S11311A08093D8030895E0911601F091170186EA1F
S11311B080831092D9031092D8030895CF93DF93BC
S11311C0CDB7DEB7FE01359661917191AF0186E02E
S11311D091E00E943111DF91CF910895E0911401C3
S11311E0F091150188E18083E0911401F0911501DB
S11311F08083E0911401F09115018083E091140142
S1131200F09115018083E0911401F0911501808320
S1131210E0911401F09115019FEF9083E091140186
S1131220F09115019EE79083E0911401F09115016E
S11312309CE39083E0911401F09115018083E09187
S11312401401F0911501108208958EB588608EBD49
S11312508EB584608EBD80E09BE49BBD8ABD0895FD
S11312601F920F920FB60F9211248F939F93809128
S1131270DB039091DC0301969093DC038093DB0302
S11312809F918F910F900FBE0F901F90189589B763
S1131290806489BF1092DC031092DB03089589B740
S11312A08F7B89BF8091DB039091DC030895B9980B
S11312B0BA980895B19906C086B382FB882780F94D
S11312C090E0089581E090E00895CF9383E00E9438
S11312D0EA05C82F8CEC94E00197F1F700C00000F8
S11312E082E00E94EA05282F6C2F70E0822F90E0A4
S11312F0CF9108950E94650908958F929F92AF92AD
S1131300BF92CF92DF92EF92FF920F931F93CF93EE
S1131310DF93CDB7DEB72D970FB6F894DEBF0FBEBF
S1131320CDBF5C01660F771F8B01000F111F000FEB
S1131330111F000F111F061B170B7801C8010E9413
S11313400606882EC80101960E940606912C982C48
S11313508824882A8E010D5F1F4F6E018EE0C80E0F
S1131360D11CCE010196E81AF90AC701800F911F1A
S11313700E940606F80181938F01EC15FD05A9F77B
S11313809A8289828DE0FE013196D50101900D92F9
S11313908A95E1F7C5012D960FB6F894DEBF0FBE0E
S11313A0CDBFDF91CF911F910F91FF90EF90DF9010
S11313B0CF90BF90AF909F908F900895CF92DF927F
S11313C0EF92FF920F931F93CF93DF93182FC62EA4
S11313D0D72E440F551FEA01CC0FDD1FCC0FDD1FA4
S11313E0CC0FDD1FC41BD50B7E01BE01892F0E94CB
S11313F0FC05BE016F5F7F4F812F0E94FC050C2D01
S11314001D2DC0E0D0E082E0E80EF11CB7016C0FA6
S11314107D1FF80181918F010E94FC052196CB303C
S1131420D105A1F7DF91CF911F910F91FF90EF901C
S1131430DF90CF9008959F92AF92BF92CF92DF92A8
S1131440EF92FF920F931F93CF93DF93CDB7DEB745
S11314506A970FB6F894DEBF0FBECDBF7C01A62EEF
S1131460972E6A01463051050CF05BC08A010F2E9D
S1131470FDE0BF2EF02DB801CE010E960E947D092D
S1131480FE013E96DE0111968B2D01900D928A95F8
S1131490E1F789819A81009739F4A8016A2D792DA1
S11314A0C7010E94DE093DC08E159F0578F4A8018E
S11314B04F5F5F4FBE016D5F7F4F0E941B0AA80103
S11314C06A2D792DC7010E94DE092BC0E816F906A2
S11314D010F5C114D104F9F405301105E1F40E94AA
S11314E0180860E084E00E94DA079F92AF9288E7D0
S11314F092E09F938F930E94DE088FEF9FEF2CE280
S1131500815090402040E1F700C000C00F900F9040
S11315100F900F9006C00F5F1F4F0630110509F0A2
S1131520AACF6A960FB6F894DEBF0FBECDBFDF9187
S1131530CF911F910F91FF90EF90DF90CF90BF90CC
S1131540AF909F900895CF93C82F862F60E00E949C
S1131550DA0722E932E03F932F930E94DE0860E02D
S11315608C2F0E94DA070E94EE080F900F90CF9103
S11315700895DF92EF92FF920F931F93CF93DF931F
S1131580D82E0E94180825E932E03F932F930E9439
S1131590DE08CD2DD0E07E0187E0E80EF11C0F902F
S11315A00F90CE15DF05ACF400EB12E08BE00E9447
S11315B0B007DF93CF931F930F930E94DE08D39459
S11315C0CD2DD0E00F900F900F900F90CE15DF052A
S11315D06CF3DF91CF911F910F91FF90EF90DF900B
S11315E008958F929F92AF92BF92CF92EF92FF9203
S11315F01F93CF93DF937C0181E60E94B90A61E0D7
S113160070E081E090E00E94A30A11E6BB24B39449
S1131610C12CC1E0D0E0812C912C0E941007892BB1
S113162059F00E941007892BE1F7F701E80DF91D25
S113163010832FEF821A920A0E948307833029F1C4
S1131640843009F44AC0823009F055C04BC01236C8
S113165040F01150C130D10521F4812F0E94B90A04
S113166006C0C230D1051CF0BC2ECD2E21976B2DA7
S11316707C2DCE010E94A30A8FEF9FEFE2E0815000
S11316809040E040E1F700C000C00E94830783302F
S1131690F1F231C01A3768F4AA24A394A10EC7301A
S11316A0D10531F48BEF810F0E94B90A1A2D07C0BE
S11316B01A2DC730D1051CF4BC2ECD2E21966B2DCE
S11316C07C2DCE010E94A30AFFEF2FEF82E0F150A0
S11316D020408040E1F700C000C00E9483078430AE
S11316E0C9F209C00E9483078230E1F3F701E80DD3
S11316F0F91D108205C09AE0891691040CF48DCF6F
S1131700F7011286DF91CF911F91FF90EF90CF9058
S1131710BF90AF909F908F9008959F92AF92BF9289
S1131720CF92DF92EF92FF920F931F93CF93DF93A9
S1131730CDB7DEB76A970FB6F894DEBF0FBECDBF44
S11317400E9418088DE693E09F938F930E94DE0811
S113175060E081E00E94DA0784EB92E09F938F932C
S11317600E94DE0887E30E94B0078DEB92E09F930E
S11317708F930E94DE080F900F900F900F900F90A0
S11317800F9000E010E00F2EFDE09F2EF02D0F2EA5
S1131790F3ECAF2EF2E0BF2EF02D6E0183E0C80E05
S11317A0D11C0F2EFAECEF2EF2E0FF2EF02DB80133
S11317B0CE010E960E947D09FE013E96DE01119631
S11317C0892D01900D928A95E1F70F5F1F4F8A8151
S11317D08F9389818F931F930F93BF92AF920E942F
S11317E0DE0887E30E94B007DF92CF92FF92EF9268
S11317F00E94DE080FB6F894DEBF0FBECDBF0530E1
S11318001105A9F66A960FB6F894DEBF0FBECDBFD8
S1131810DF91CF911F910F91FF90EF90DF90CF90C8
S1131820BF90AF909F900895CF93DF93C0E0D0E036
S1131830BE0180E00E94FC052196C435D105C1F7A4
S1131840DF91CF910895CF93DF93CDB7DEB766973D
S11318500FB6F894DEBF0FBECDBFF8948FE190E0D1
S11318600E9493040E94E0050E9439070E945709D0
S11318700E949F0D0E94D5020E9425090E940D0618
S1131880789480E00E94E30EE12CF12C03E010E058
S11318900F2EF3E0CF2EF02DD12C0E94E60E8230D5
S11318A001F128F4882341F0813059F047C0833096
S11318B0D9F0843029F142C00E948B0E0E94A60DFB
S11318C040C00E94EE0E0E94E1060E943F0E0E945C
S11318D0470982E00E94E30EE12CF12C0C2D1D2D12
S11318E030C00E94D4062DC00E941007892B49F1F4
S11318F082E00E94E30E0E943F0E0E94470921C02D
S1131900C7010E944E0E2FEF8FEF9BE321508040C2
S11319109040E1F700C00000CE010C960E94F10A4D
S113192040E050E0BE01645F7F4FC7010E941B0A84
S113193080E00E94E30E0E94860D03C080E00E94B6
S1131940E30ECE0101960E94A2038C818530F9F446
S1131950023011058CF00E94E60E823069F40E9478
S11319604F09E80EF91E0150110983E00E94E30EAD
S1131970C8010E941A0E0BC00E94E60E823039F490
S11319800E944F09E80EF91E84E00E94E30E8FEFD7
S113199097E10197F1F700C000007FCF80E10E943A
S11319A0B408089580E50E94B408089580EF0E9469
S11319B0B408089581E090E00E94E90E81E00E945D
S11319C0E30E089582E090E00E94E90E81E00E9417
S11319D0E30E089580E090E00E940705089581E0F9
S11319E090E00E94070508950E94BB0408950F9398
S11319F01F93CF93DF93E091E603F091E70382898D
S1131A00938901960297CCF0C1E0D0E002E912E09C
S1131A1060E08C2F0E94DA071F930F930E94DE0868
S1131A202196E091E603F091E70382899389019678
S1131A300F900F90C817D9075CF360E08091E4031E
S1131A400E94DA070E94EE08DF91CF911F910F9157
S1131A5008950F931F93CF93DF930E941808E0918A
S1131A60E603F091E70381818F9380818F938EEC5D
S1131A7092E09F938F930E94DE080F900F900F9037
S1131A800F908091E8039091E903892B11F00E9453
S1131A90F70CE091E603F091E70382899389181625
S1131AA019067CF5C0E0D0E00EEC12E06AE08C2F61
S1131AB08F5F0E94DA078AE00E94B0078091E603F4
S1131AC09091E703FE013296EE0FFF1FE80FF91F16
S1131AD00190F081E02D81818F9380818F931F93FA
S1131AE00F930E94DE082196E091E603F091E7034C
S1131AF00F900F900F900F9082899389C817D90780
S1131B00ACF2DF91CF911F910F91089582E692E09C
S1131B109093E7038093E6038091660290916702B5
S1131B209093E9038093E80381E090E09093E503C8
S1131B308093E4030E94290D0E94F70C08950E94EB
S1131B4024080E94A6040E94860D08950E9483071B
S1131B50833039F1843009F447C0813009F069C019
S1131B600E9483078130E1F3E091E603F091E703FB
S1131B700280F381E02D309709F45BC081E090E0AE
S1131B809093E5038093E403F093E703E093E60383
S1131B90848195819093E9038093E8030E94290D41
S1131BA008950E9483078330E1F38091E4039091C8
S1131BB0E50382309105ECF19C0121503109309309
S1131BC0E5032093E403E091E603F091E703880F33
S1131BD0991FE80FF91F808191819093E903809305
S1131BE0E8030E94F70C08950E9483078430E1F310
S1131BF0E091E603F091E7038091E4039091E5031B
S1131C002289338982179307A4F49C012F5F3F4FE5
S1131C103093E5032093E4030296880F991FE80F9D
S1131C20F91F808191819093E9038093E8030E94D6
S1131C30F70C0895CF93DF93C82FD92F0E9418086B
S1131C4064E183E00E94DA07DF93CF9381ED92E0B1
S1131C509F938F930E94DE0864E185E00E94DA0777
S1131C6088EE92E09F938F930E94DE080F900F906E
S1131C700F900F900F900F90DF91CF9108950E94D5
S1131C8018086EE183E00E94DA0787EF92E09F93E1
S1131C908F930E94DE080F900F900895CF93DF93E7
S1131CA0C82FD92F0E9418086EE183E00E94DA073A
S1131CB024E033E03F932F930E94DE086AE084E03F
S1131CC00E94DA07DF93CF9381E193E09F938F9390
S1131CD00E94DE080F900F900F900F900F900F90BE
S1131CE0DF91CF9108950E9418086FE083E00E946D
S1131CF0DA0787E293E09F938F930E94DE082FEF29
S1131D008FEF9DE1215080409040E1F700C000003A
S1131D100F900F9008950E941007892B29F40E94B8
S1131D208307823009F04EC0E091E803F091E903A3
S1131D30309709F447C084819581009789F0F09326
S1131D40E703E093E6039093E9038093E80381E0DB
S1131D5090E09093E5038093E4030E94290D2AC048
S1131D600488F589E02D309729F109958091E803DD
S1131D709091E90321E08638920729F40E94730EBA
S1131D800E94290D17C086539240A1F486E392E085
S1131D909093E7038093E60380913A0290913B028B
S1131DA09093E9038093E80381E090E09093E50346
S1131DB08093E4030E941007892BE1F70E948307B4
S1131DC08230C1F308958093DD0308958091DD038B
S1131DD008959093EB038093EA0308958091EA03B6
S1131DE09091EB03089597D008F481E008950CD006
S1131DF0CDC0C5D040F0BCD030F021F45F3F19F025
S1131E00AEC05111F7C0B1C0D2D098F39923C9F331
S1131E105523B1F3951B550BBB27AA2762177307EC
S1131E20840738F09F5F5F4F220F331F441FAA1FA0
S1131E30A9F333D00E2E3AF0E0E830D09150504060
S1131E40E695001CCAF729D0FE2F27D0660F771F0E
S1131E50881FBB1F261737074807AB07B0E809F0F0
S1131E60BB0B802DBF01FF2793585F4F2AF09E3F85
S1131E70510568F074C0BEC05F3FECF3983EDCF3DC
S1131E80869577956795B795F7959F5FC9F7880FFE
S1131E90911D9695879597F90895E1E0660F771F50
S1131EA0881FBB1F621773078407BA0720F0621BE1
S1131EB0730B840BBA0BEE1F88F7E09508957FD05F
S1131EC088F09F5790F0B92F9927B751A0F0D1F01F
S1131ED0660F771F881F991F1AF0BA95C9F712C0A9
S1131EE0B13081F086D0B1E0089583C0672F782F98
S1131EF08827B85F39F0B93FCCF386957795679515
S1131F00B395D9F73EF490958095709561957F4F80
S1131F108F4F9F4F0895990F0008550FAA0BE0E8C3
S1131F20FEEF16161706E807F907C0F01216130697
S1131F30E407F50798F0621B730B840B950B39F4D7
S1131F400A2661F0232B242B252B21F408950A263D
S1131F5009F4A140A6958FEF811D811D089597F97D
S1131F609F6780E870E060E008959FEF80EC08953B
S1131F7000240A9416161706180609060895002464
S1131F800A9412161306140605060895092E0394DE
S1131F90000C11F4882352F0BB0F40F4BF2B11F452
S1131FA060FF04C06F5F7F4F8F4F9F4F089557FDB1
S1131FB09058440F551F59F05F3F71F04795880FB3
S1131FC097FB991F61F09F3F79F08795089512164A
S1131FD013061406551FF2CF4695F1DF08C01616F6
S1131FE017061806991FF1CF8695710561050894A7
S1131FF00895E894BB2766277727CB0197F90895BE
S11320000BD0C4CFB5DF28F0BADF18F0952309F060
S1132010A6CFABCF1124EECFCADFA0F3959FD1F3A7
S1132020950F50E0551F629FF001729FBB27F00D82
S1132030B11D639FAA27F00DB11DAA1F649F6627D7
S1132040B00DA11D661F829F2227B00DA11D621F26
S1132050739FB00DA11D621F839FA00D611D221FE0
S1132060749F3327A00D611D231F849F600D211DC4
S1132070822F762F6A2F11249F5750408AF0E1F067
S113208088234AF0EE0FFF1FBB1F661F771F881FB0
S113209091505040A9F79E3F510570F060CFAACFF0
S11320A05F3FECF3983EDCF3869577956795B7959B
S11320B0F795E7959F5FC1F7FE2B880F911D9695C5
S11320C0879597F9089597FB072E16F4009407D087
S11320D077FD09D00E94A11007FC05D03EF490952D
S11320E081959F4F0895709561957F4F0895052EB2
S11320F097FB1EF400940E948E1057FD07D00E9497
S1132100B51007FC03D04EF40C948E1050954095F6
S1132110309521953F4F4F4F5F4F0895909580958F
S1132120709561957F4F8F4F9F4F08950E94D710F0
S1132130A59F900DB49F900DA49F800D911D112417
S11321400895AA1BBB1B51E107C0AA1FBB1FA617FA
S1132150B70710F0A61BB70B881F991F5A95A9F74C
S113216080959095BC01CD010895A1E21A2EAA1B79
S1132170BB1BFD010DC0AA1FBB1FEE1FFF1FA21733
S1132180B307E407F50720F0A21BB30BE40BF50B30
S1132190661F771F881F991F1A9469F760957095B9
S11321A0809590959B01AC01BD01CF010895A29F3C
S11321B0B001B39FC001A39F700D811D1124911D17
S11321C0B29F700D811D1124911D08950F931F93CB
S11321D0CF93DF93EC018B01009731F46115710506
S11321E019F480E090E038C06EE070E081E090E0A7
S11321F00E940313FC010097A1F380E88383011577
S1132200110571F01387028781E883838091EC03C1
S11322109091ED03892B21F4F093ED03E093EC030B
S11322202097C9F0D187C08783818260838380919E
S1132230EE039091EF03892B71F4F093EF03E09395
S1132240EE038091F0039091F103892B21F4F09334
S1132250F103E093F003CF01DF91CF911F910F9130
S11322600895ACE0B0E0E7E3F1E10C94F3147C01F1
S11322706B018A01FC0117821682838181FFBDC133
S1132280CE0101964C01F7019381F60193FD8591EE
S113229093FF81916F01882309F4ABC1853239F42E
S11322A093FD859193FF81916F01853229F4B701E4
S11322B090E00E946314E7CF512C312C20E02032AF
S11322C0A0F48B3269F030F4803259F0833269F42F
S11322D020612CC08D3239F0803339F4216026C05E
S11322E02260246023C0286021C027FD27C030ED70
S11322F0380F3A3078F426FF06C0FAE05F9E300DBE
S11323001124532E13C08AE0389E300D1124332E2D
S113231020620CC08E3221F426FD6BC1206406C0FD
S11323208C3611F4206802C0883641F4F60193FD1E
S1132330859193FF81916F018111C1CF982F9F7D6A
S11323409554933028F40C5F1F4FFFE3F9830DC0BD
S1132350833631F0833771F0833509F05BC022C0D6
S1132360F801808189830E5F1F4F44244394512CCC
S1132370540115C03801F2E06F0E711CF801A08001
S1132380B18026FF03C0652D70E002C06FEF7FEFC0
S1132390C5012C870E9458142C0183012C852F77AA
S11323A0222E17C03801F2E06F0E711CF801A080D4
S11323B0B18026FF03C0652D70E002C06FEF7FEF90
S11323C0C5012C870E9446142C012C852068222EDE
S11323D0830123FC1BC0832D90E048165906B0F4FA
S11323E0B70180E290E00E9463143A94F4CFF501BF
S11323F027FC859127FE81915F01B70190E00E943F
S1132400631431103A94F1E04F1A51084114510405
S113241071F7E5C0843611F0893639F5F80127FFE4
S113242007C060817181828193810C5F1F4F08C056
S113243060817181882777FD8095982F0E5F1F4FEB
S11324402F76B22E97FF09C090958095709561956F
S11324507F4F8F4F9F4F2068B22E2AE030E0A401B7
S11324600E949514A82EA81844C0853729F42F7EFD
S1132470B22E2AE030E025C0F22FF97FBF2E8F362E
S1132480C1F018F4883579F0B4C0803719F0883772
S113249021F0AFC02F2F2061B22EB4FE0DC08B2DC2
S11324A08460B82E09C024FF0AC09F2F9660B92EFD
S11324B006C028E030E005C020E130E002C020E1A1
S11324C032E0F801B7FE07C0608171818281938197
S11324D00C5F1F4F06C06081718180E090E00E5F49
S11324E01F4FA4010E949514A82EA818FB2DFF7756
S11324F0BF2EB6FE0BC02B2D2E7FA51450F4B4FEB8
S11325000AC0B2FC08C02B2D2E7E05C07A2C2B2DC0
S113251003C07A2C01C0752C24FF0DC0FE01EA0D06
S1132520F11D8081803311F4297E09C022FF06C089
S11325307394739404C0822F867809F0739423FDF6
S113254013C020FF06C05A2C731418F4530C5718E8
S1132550732C731468F4B70180E290E02C870E9416
S1132560631473942C85F5CF731410F4371801C0D9
S1132570312C24FF12C0B70180E390E02C870E9425
S113258063142C8522FF17C021FF03C088E590E067
S113259002C088E790E0B7010CC0822F867859F01A
S11325A021FD02C080E201C08BE227FD8DE2B7016C
S11325B090E00E946314A51438F4B70180E390E01E
S11325C00E9463145A94F7CFAA94F401EA0DF11D02
S11325D08081B70190E00E946314A110F5CF3320ED
S11325E009F451CEB70180E290E00E9463143A945A
S11325F0F6CFF7018681978102C08FEF9FEF2C966B
S1132600E2E10C940F150F931F93CF93DF93869FF2
S11326108001879F100D969F100D1124C8010E9400
S11326201F13EC01009729F0A80160E070E00E94FC
S11326305114CE01DF91CF911F910F910895CF9343
S1132640DF938230910510F482E090E0E091F4038E
S1132650F091F50320E030E0A0E0B0E0309739F1EC
S11326604081518148175907B8F04817590771F448
S113267082819381109729F013969C938E931297DD
S11326802CC09093F5038093F40327C021153105E2
S113269031F04217530718F0A901DB0101C0EF0123
S11326A09A01BD01DF010280F381E02DD7CF21150E
S11326B03105F9F0281B390B2430310580F48A8167
S11326C09B816115710521F0FB019383828304C012
S11326D09093F5038093F403FE01329644C0FE0107
S11326E0E20FF31F81939193225031093983288398
S11326F03AC02091F2033091F303232B41F420914B
S11327000201309103013093F3032093F2032091EB
S11327100001309101012115310541F42DB73EB777
S11327204091040150910501241B350BE091F20303
S1132730F091F303E217F307A0F42E1B3F0B2817C5
S1132740390778F0AC014E5F5F4F2417350748F026
S11327504E0F5F1F5093F3034093F20381939193C1
S113276002C0E0E0F0E0CF01DF91CF910895CF9374
S1132770DF93009709F487C0FC0132971382128219
S1132780C091F403D091F503209781F42081318125
S1132790280F391F8091F2039091F3038217930756
S11327A079F5F093F303E093F2036DC0DE0120E0CA
S11327B030E0AE17BF0750F412964D915C91139719
S11327C09D014115510509F1DA01F3CFB383A283C9
S11327D040815181840F951F8A179B0771F48D9155
S11327E09C911197840F951F029691838083129672
S11327F08D919C911397938382832115310529F43C
S1132800F093F503E093F4033EC0D9011396FC93CF
S1132810EE9312974D915D91A40FB51FEA17FB0734
S113282079F480819181840F951F0296D9011196C4
S11328309C938E938281938113969C938E9312978B
S1132840E0E0F0E08A819B81009719F0FE01EC0141
S1132850F9CFCE01029628813981820F931F2091EE
S1132860F2033091F3032817390769F4309729F4F8
S11328701092F5031092F40302C013821282D093D3
S1132880F303C093F203DF91CF910895FC01059007
S1132890615070400110D8F7809590958E0F9F1F5E
S11328A00895DC0101C06D9341505040E0F7089554
S11328B0FC016150704001900110D8F7809590950B
S11328C08E0F9F1F08950F931F93CF93DF93182F9D
S11328D0092FEB018B8181FD03C08FEF9FEF20C097
S11328E082FF10C04E815F812C813D8142175307C6
S11328F07CF4E881F9819F012F5F3F4F398328835E
S1132900108306C0E885F985812F0995892B29F75D
S11329102E813F812F5F3F4F3F832E83812F902F46
S1132920DF91CF911F910F910895FA01AA272830C2
S113293051F1203181F1E8946F936E7F6E5F7F4F88
S11329408F4F9F4FAF4FB1E03ED0B4E03CD0670F04
S1132950781F891F9A1FA11D680F791F8A1F911D57
S1132960A11D6A0F711D811D911DA11D20D009F4A7
S113297068943F912AE0269F11243019305D3193E9
S1132980DEF6CF010895462F4770405D4193B3E0D2
S11329900FD0C9F7F6CF462F4F70405D4A3318F079
S11329A0495D31FD4052419302D0A9F7EACFB4E02A
S11329B0A6959795879577956795BA95C9F70097E2
S11329C06105710508959B01AC010A2E0694579583
S11329D0479537952795BA95C9F7620F731F841FDA
S11329E0951FA01D08952F923F924F925F926F9270
S11329F07F928F929F92AF92BF92CF92DF92EF928B
S1132A00FF920F931F93CF93DF93CDB7DEB7CA1B0B
S1132A10DB0B0FB6F894DEBF0FBECDBF09942A8836
S1132A20398848885F846E847D848C849B84AA84DE
S1132A30B984C884DF80EE80FD800C811B81AA816B
S1132A40B981CE0FD11D0FB6F894DEBF0FBECDBF36
S10B2A50ED010895F894FFCF95
S1132A580000F60320000000000200000000E30765
S1132A6800000000001200103A037001000000008A
S1132A78000000000000000000000000D60C3F0326
S1132A8870010000000000000000000000000000C9
S1132A980000D20C46037001000000000000000092
S1132AA80000000000000000CE0C4A0320020000D1
S1132AB80000000000000000000000000000C00842
S1132AC85803200244012E011801000000000000F0
S1132AD8000003000000670320020000000000005B
S1132AE800000000000000000000140C78034C02F1
S1132AF800000000000000000000000000000000CA
S1132B08E20C7D034C0200000000000000000000FD
S1132B18000000000000DA0C84030A020000000030
S1132B28000000000000000000000000F40C8F0307
S1132B380A0200000000000000000000000000007D
S1132B480000EF0C99030A020000000000000000D6
S1132B580000000000000000EA0CA5036202F40172
S1132B68DE01C801000000000000000003000000AE
S1132B78AD036202860170015A01000000000000E2
S1132B880000030000006D03620200000000000062
S1132B98000000000000000000008D0BB603620274
S1132BA8B2019C01000000000000000000000200C7
S1132BB80000C00300004C02360220020A02000092
S1132BC80000000004000000202573206973200A17
S1132BD8206E6F7420696E2074686520746F70208D
S1132BE8360020200043484F4F53452041204E4192
S1132BF84D4520202046494E495348202D3E0A0081
S1132C0825630A0023202053636F7265005573659A
S1132C18720A002564202025640025730A002573A0
S1132C2800596F752068617665202564206C697683
S1132C386573206C656674005072657373206A6FDF
S1132C4879737469636B00506C61792067616D6591
S1132C58203A440047616D65206F7665722E2E2EEA
S1132C6800596F75206C6173746564202564207342
S1132C7865636F6E6473004869676873636F726530
S1132C887320636C65617265640048696768004D08
S1132C98656469756D004C6F7700496E766572746A
S1132CA82073637265656E00436F6E74726173742A
S1132CB8206C6576656C00436C65617220486967B1
S1132CC86873636F7265730046617374004E6F7244
S1132CD86D616C0053746F70206D75736963005374
S1132CE87461722057617273005375706572204D58
S1132CF86172696F0042757A7A69667900536574FE
S1132D0874696E677300506C61792067616D650042
S10D2D184D61696E206D656E750053
S9030000FC
