S012000041546D656761323536302E7372656316
S1130000C2C00000E0C00000DEC00000ADC10000BE
S1130010DAC00000D8C00000D6C00000D4C0000080
S1130020D2C00000D0C00000CEC00000CCC0000090
S1130030CAC00000C8C00000C6C00000C4C00000A0
S1130040C2C00000C0C00000BEC00000BCC00000B0
S1130050BAC00000B8C00000B6C00000B4C00000C0
S1130060B2C00000B0C00000AEC00000ACC00000D0
S1130070AAC00000A8C00000A6C00000A4C00000E0
S113008050C30000A0C000009EC000009CC000003F
S11300909AC0000098C0000096C0000045C500004A
S11300A092C0000090C00000ACC400008CC00000EE
S11300B08AC0000088C0000086C0000084C0000020
S11300C082C0000080C000007EC000007CC0000030
S11300D07AC0000078C0000076C0000074C0000040
S11300E072C00000AF050106010601060106010603
S11300F001060106AF050106010601060106010617
S113010001060106B1050106010601060106010604
S113011001060106010601060106010601060106A3
S113012001060106B10501060106010601060106E4
S11301300106010601060106010601060106010683
S113014001060106FD050106010601060106010678
S113015001060106DA05010601060106010601068B
S11301600106010601060106010601060106010653
S113017001060106CE050106010601060106010677
S113018001060106EC0511241FBECFEFD1E2DEBF4C
S1130190CDBF00E00CBF12E0A0E0B2E0E8E6F8E179
S11301A000E00BBF02C007900D92AE35B107D9F73E
S11301B022E0AEE5B2E001C01D92AE37B207E1F72E
S11301C0B9D10C94320C1CCF2BD140E660E680E60A
S11301D051D140E660E680E74DD144E064E080E63A
S11301E049D144E064E080E745D140E060EE8FE02F
S11301F041D18EE003D1807E59F463E08BE21BD1C0
S1130200E9E6F0E080818083EA9A80E090E0089556
S113021081E090E00895EF92FF920F931F93CF93A4
S1130220DF937C01FC0160817181769567957695F9
S113023067957695679581E3FED0F70160816295B5
S1130240660F607E82E3F7D060E083E3F4D060E081
S113025084E3F1D0F701628185E3EDD0F701828177
S1130260882391F087010D5F1F4FC0E0D0E0F801B3
S113027061918F018C2F8A5CDED02196F701228157
S113028030E0C217D3079CF381E8E8D0DF91CF9127
S11302901F910F91FF90EF900895CF92DF92EF920C
S11302A0FF920F931F93CF93DF937C01C62F81E0BE
S11302B0860FA4D0D82F82E08C0FA0D0482F42956F
S11302C0469547702D2F30E0C901880F991F880F7C
S11302D0991F880F991F842BF7019183808385E0F0
S11302E08C0F8CD08F70F70182838823F1F00F2E4E
S11302F0F6E0DF2EF02DDC0E87010D5F1F4F0F2E71
S1130300FEE0CF2EF02DCC0EC0E0D0E08D2D76D0C7
S1130310F80181938F012196F701228130E0C21701
S1130320D3071CF4D394DC10F1CFDF91CF911F914C
S11303300F91FF90EF90DF90CF90089520915E028F
S1130340213041F018F0223051F008952AE0FC01E8
S11303502383089560E6A1DF10925E02089560E7AA
S11303609CDF10925E0208951F920F920FB60F92B7
S113037011240BB60F922F933F934F935F936F9378
S11303807F938F939F93AF93BF93EF93FF938CE2ED
S113039035D080FF08C081E080935E0240E061E0D8
S11303A08CE268D009C081FF07C082E080935E02BE
S11303B040E062E08CE25ED0FF91EF91BF91AF919B
S11303C09F918F917F916F915F914F913F912F9169
S11303D00F900BBE0F900FBE0F901F90189580E0EA
S11303E090E075D080EC67D08FE193E00197F1F74E
S11303F000C0000081E090E06AC00895CF93C82F48
S113040080E090E064D083E056D08C2F54D080E01C
S113041052D0C82F81E090E05AD08C2FCF9108950C
S113042041D0DDDF8EE0EADF982F907E81E09038C6
S113043009F480E00895CF93DF93D82FC62F80E08E
S113044090E045D082E037D08D2F35D08C2F33D03B
S113045081E090E03CD0DF91CF910895CF93C82FF5
S113046080E090E034D08C2F26D081E090E02FD033
S1130470CF9108951F93CF93DF93182FD62FC42FB6
S113048080E090E024D085E016D0812F14D08D2F09
S113049012D08C2F10D081E090E019D0DF91CF9151
S11304A01F91089584B1876884B981E18CBD8CB5AE
S11304B080648CBD08958EBD0DB407FEFDCF8FE121
S11304C093E00197F1F700C000008EB508958130E4
S11304D0910511F42F9A0895892B09F42F98089502
S11304E0E0ECF0E0908195FFFDCF8093C600089585
S11304F0E0ECF0E080818823ECF78091C600089559
S1130500E5ECF0E02081922B9083E4ECF0E0908124
S1130510892B8083E1ECF0E0808188618083E2ECC8
S1130520F0E080818E60808368E772E080E792E08B
S113053035C50895CF93DF93CDB7DEB766970FB671
S1130540F894DEBF0FBECDBFF89487E690E0D8DF05
S11305508EE092E07ED538DE27D1FBD05DD14DD23E
S113056062D08EE192E075D57894CAD18FE76CD0D1
S1130570E12CF12C0F2EFFE7CF2ED12CF02DAA2445
S1130580A394B12C0F2EF5E05F2EF02D612C712C6D
S113059088248A94912CCE010196D0DE8C818330FC
S11305A061F018F4882331F013C0843051F08630A0
S11305B059F00EC08D8160D20BC08D8145D06C0185
S11305C007C081E003D204C09BD18D8190E046D165
S11305D006D1082F10E00E151F0571F00115110545
S11305E051F4BD86AC865F8681E08E87CE010C9681
S11305F012DE780101C07801C2D1992314F4862D4A
S1130600972D8F3F910519F014F0882D992DB6017F
S113061027D0182F991F9927991F892F90E00DD162
S1130620812F2ED1B8CFE1E9F0E08081836080830F
S113063084ED90E39093990080939800E1E7F0E0D3
S11306408081826080830895282F30E02F5F3109F4
S1130650C901992324F488279927821B930B0895B1
S113066020916502309166022130310509F050C0B5
S1130670681B790BCB0122F488279927861B970BDB
S11306800B9754F08091630290916402860F971F38
S1130690909364028093630280910A0290910B020A
S11306A0689F9001699F300D789F300D1124E0916F
S11306B00802F09109024091630250916402E49FA0
S11306C0C001E59F900DF49F900D1124820F931F9C
S11306D02091610230916202FB01E21BF30B409115
S11306E0060250910702E49F9001E59F300DF49FAC
S11306F0300D1124820F931F9093600280935F0248
S11307007093620260936102109266021092650215
S113071080915F029091600264E670E012D4CB0194
S113072008951F920F920FB60F9211248F939F93E7
S1130730109295001092940081E090E090936602EC
S1130740809365029F918F910F900FBE0F901F9021
S11307501895EAE7F0E08081876880830895ECE7E4
S1130760F0E0808180668083EAE7F0E08081806445
S11307708083808186FDFDCF809179000895CF9399
S1130780DF93EC01DF93CF938BE292E09F938F93FF
S11307904FD4D0938900C09388000F900F900F908E
S11307A00F90DF91CF910895A0E8B0E08C9180681C
S11307B08C93E1E8F0E08081886180838C91826091
S11307C08C9380818360808388E893E19093870091
S11307D080938600259A87E791E0D1CF0895BFDF03
S11307E080936702EAE6F2E09081A9E6B2E02C91F8
S11307F0208330E0290F311DE8E6F2E090819C93DC
S1130800290F311D8083A901480F511DCA019595F7
S1130810879595958795089541D1E1E0F1E0808130
S113082082618083A2E0B1E08C9182618C9310920A
S1130830070180818866808308958130910531F4B1
S1130840E2E0F1E08081826080830895892B29F4BD
S1130850E2E0F1E080818D7F80830895813091050D
S113086019F0029729F008C080E680930C020895DD
S113087080E880930C02089580E680930C0208952A
S1130880CF93DF931F92CDB7DEB790910C028917F7
S113089010F4898303C080910C02898361E070E0C5
S11308A0CE010196CAD004D1811109C080916C0295
S11308B080FD05C08CE392E0CCD3FED0ADD00F9088
S11308C0DF91CF910895E2E0F1E080818F7D808314
S11308D08081877F80838AE68A95F1F700C0209122
S11308E006018081886080838AE68A95F1F700C0DA
S11308F08091060190819062908390E0922B0895FC
S113090081E090E09ADF80E680930C02B9DF2FEF5C
S113091087EA91E6215080409040E1F700C0000052
S113092080E0AEDFE2E0F1E080818F7B80832AE625
S11309302A95F1F700C080818064808380E090E094
S11309407CDF80E69DDF8FEF97EA21E681509040BF
S11309502040E1F700C0000080E092DFB4DF809324
S11309607202909373029F938F9386E492E09F9315
S11309708F935ED30F900F900F900F900895CF92A6
S1130980DF92EF92FF929FDFBC01882777FD80956D
S1130990982FE8D16B017C0160917202709173020F
S11309A0882777FD8095982FDDD19B01AC01C70185
S11309B0B6013DD120E030E04FE753E45FD29FD150
S11309C0CB01FF90EF90DF90CF900895811189982B
S11309D00895E1EAF0E0808188608083808184600A
S11309E0808382E691E59093A9008093A800E2E7D2
S11309F0F0E08081826080830895819A899AE9CFAA
S1130A0008951F920F920FB60F921124899A0F9096
S1130A100FBE0F901F901895CF93C82F81E0C83454
S1130A2009F080E0811105C081E0C03209F080E066
S1130A3081116CD08C2FCF910895CF93DF9300D088
S1130A401F92CDB7DEB720E529831A821616170642
S1130A5044F4FC0120812B836230710514F0818100
S1130A608C836E5FCE0101962FD00F900F900F9064
S1130A700F90DF91CF91089590E086509F4F853F6E
S1130A8021E0920720F48A3F910520F005C084EF0D
S1130A9091E002C08AEF90E072CE08958CE08093DA
S1130AA0B8008FEF8093BB0084E08093BC0008956E
S1130AB08091BC0081700895ECEBF0E0808180FDB2
S1130AC0FDCF80910D020895ECEBF0E0208120FD34
S1130AD0FDCF60936D02FC01208120936E0220FD06
S1130AE00CC0623050F0DC011196EFE6F2E081E0D8
S1130AF09D9191938F5F8613FBCF10926C0288EFC8
S1130B0080930D0285EA8093BC000895ECEBF0E03D
S1130B10808180FDFDCF10926C0288EF80930D02DE
S1130B2085EA8093BC0008951F920F920FB60F922E
S1130B3011240BB60F922F933F938F939F93AF93F0
S1130B40BF93EF93FF938091B90090E0FC01389735
S1130B50E135F10508F055C0EE58FF4F05C210927B
S1130B606B02E0916B0280916D02E81770F481E0F2
S1130B708E0F80936B02F0E0E259FD4F80818093E9
S1130B80BB0085E88093BC0043C080916C02816007
S1130B9080936C0284E98093BC003AC0E0916B02BC
S1130BA081E08E0F80936B028091BB00F0E0E259EC
S1130BB0FD4F808320916B0230E080916D0290E0C4
S1130BC001972817390724F485EC8093BC0020C0D2
S1130BD085E88093BC001CC08091BB00E0916B024F
S1130BE0F0E0E259FD4F808380916C028160809334
S1130BF06C0284E98093BC000BC085EA8093BC003E
S1130C0007C08091B90080930D0284E08093BC00FA
S1130C10FF91EF91BF91AF919F918F913F912F9150
S1130C200F900BBE0F900FBE0F901F9018950CD015
S1130C30EBC0E3D040F0DAD030F021F45F3F19F09C
S1130C40CCC0511115C1CFC0F0D098F39923C9F38A
S1130C505523B1F3951B550BBB27AA2762177307BE
S1130C60840738F09F5F5F4F220F331F441FAA1F72
S1130C70A9F333D00E2E3AF0E0E830D09150504032
S1130C80E695001CCAF729D0FE2F27D0660F771FE0
S1130C90881FBB1F261737074807AB07B0E809F0C2
S1130CA0BB0B802DBF01FF2793585F4F2AF09E3F57
S1130CB0510568F092C0DCC05F3FECF3983EDCF372
S1130CC0869577956795B795F7959F5FC9F7880FD0
S1130CD0911D9695879597F90895E1E0660F771F22
S1130CE0881FBB1F621773078407BA0720F0621BB3
S1130CF0730B840BBA0BEE1F88F7E095089504D0AC
S1130D006894B111B5C0089598D088F09F5790F0B9
S1130D10B92F9927B751A0F0D1F0660F771F881F1C
S1130D20991F1AF0BA95C9F712C0B13081F09FD05B
S1130D30B1E008959CC0672F782F8827B85F39F0F9
S1130D40B93FCCF3869577956795B395D9F73EF47B
S1130D5090958095709561957F4F8F4F9F4F089523
S1130D60E89409C097FB3EF4909580957095619541
S1130D707F4F8F4F9F4F9923A9F0F92F96E9BB27F7
S1130D809395F695879577956795B795F111F8CF73
S1130D90FAF4BB0F11F460FF1BC06F5F7F4F8F4FDE
S1130DA09F4F16C0882311F096E911C0772321F0D4
S1130DB09EE8872F762F05C0662371F096E8862F6C
S1130DC070E060E02AF09A95660F771F881FDAF7C3
S1130DD0880F9695879597F9089597F99F6780E806
S1130DE070E060E008959FEF80EC089500240A9479
S1130DF01616170618060906089500240A941216F2
S1130E001306140605060895092E0394000C11F424
S1130E10882352F0BB0F40F4BF2B11F460FF04C0D1
S1130E206F5F7F4F8F4F9F4F089557FD9058440F2A
S1130E30551F59F05F3F71F04795880F97FB991F35
S1130E4061F09F3F79F087950895121613061406F2
S1130E50551FF2CF4695F1DF08C01616170618067F
S1130E60991FF1CF86957105610508940895E8945A
S1130E70BB2766277727CB0197F908950BD0C4CFFA
S1130E80B5DF28F0BADF18F0952309F0A6CFABCF71
S1130E901124EECFCADFA0F3959FD1F3950F50E054
S1130EA0551F629FF001729FBB27F00DB11D639F18
S1130EB0AA27F00DB11DAA1F649F6627B00DA11DBE
S1130EC0661F829F2227B00DA11D621F739FB00D64
S1130ED0A11D621F839FA00D611D221F749F3327D4
S1130EE0A00D611D231F849F600D211D822F762F6D
S1130EF06A2F11249F5750408AF0E1F088234AF06A
S1130F00EE0FFF1FBB1F661F771F881F91505040B5
S1130F10A9F79E3F510570F060CFAACF5F3FECF375
S1130F20983EDCF3869577956795B795F795E795A1
S1130F309F5FC1F7FE2B880F911D9695879597F9B2
S1130F40089597FB072E16F4009406D077FD08D079
S1130F5011D007FC05D03EF4909581959F4F0895DC
S1130F60709561957F4F0895EE0FFF1F0590F491E2
S1130F70E02D1994AA1BBB1B51E107C0AA1FBB1F7C
S1130F80A617B70710F0A61BB70B881F991F5A9511
S1130F90A9F780959095BC01CD0108950F931F93F7
S1130FA0CF93DF93EC018B01009731F46115710548
S1130FB019F480E090E037C06EE070E081E090E0EA
S1130FC063D2FC010097A9F380E88383011511051E
S1130FD071F01387028781E8838380917402909172
S1130FE07502892B21F4F0937502E0937402209723
S1130FF0C9F0D187C0878381826083838091760220
S113100090917702892B71F4F0937702E093760242
S11310108091780290917902892B21F4F0937902DE
S1131020E0937802CF01DF91CF911F910F91089542
S1131030CF93DF93CDB7DEB7FE0136966191719100
S1131040AF01809176029091770230D0DF91CF91F9
S113105008950F931F93CF93DF93E0917602F0915D
S11310607702238121FF1BC0EC0100E010E089918D
S11310706091760270917702DB011896ED91FC91F4
S11310801997882331F01995892B89F30FEF1FEFF6
S1131090EECF8AE01995892B11F4C80102C08FEFB5
S11310A09FEFDF91CF911F910F9108952F923F925F
S11310B04F925F926F927F928F929F92AF92BF9264
S11310C0CF92DF92EF92FF920F931F93CF93DF9310
S11310D0CDB7DEB72C970FB6F894DEBF0FBECDBFE9
S11310E07C016B018A01FC0117821682838181FFD6
S11310F0B0C1CE0101964C01F7019381F60193FD35
S1131100859193FF81916F01882309F49EC18532F3
S113111039F493FD859193FF81916F01853221F418
S1131120B70190E00FD3E8CF512C312C20E02032CE
S1131130A0F48B3269F030F4803259F0833269F4D0
S113114020612CC08D3239F0803339F4216026C0FF
S11311502260246023C0286021C027FD27C030ED11
S1131160380F3A3078F426FF06C0FAE05F9E300D5F
S11311701124532E13C08AE0389E300D1124332ECF
S113118020620CC08E3221F426FD5FC1206406C0AB
S11311908C3611F4206802C0883641F4F60193FDC0
S11311A0859193FF81916F018111C1CF982F9F7D0C
S11311B09554933028F40C5F1F4FFFE3F9830DC05F
S11311C0833631F0833771F0833509F057C021C07D
S11311D0F801808189830E5F1F4F44244394512C6E
S11311E0540114C03801F2E06F0E711CF801A080A4
S11311F0B18026FF03C0652D70E002C06FEF7FEF62
S1131200C5012C8794D22C0183012C852F77222EA3
S113121016C03801F2E06F0E711CF801A080B18095
S113122026FF03C0652D70E002C06FEF7FEFC5019C
S11312302C876BD22C012C852068222E830123FC61
S113124019C0832D90E048165906A0F4B70180E236
S113125090E078D23A94F5CFF50127FC859127FEEA
S113126081915F01B70190E06DD231103A94F1E0C1
S11312704F1A51084114510479F7DEC0843611F035
S1131280893631F5F80127FF07C0608171818281B9
S113129093810C5F1F4F08C060817181882777FD9F
S11312A08095982F0E5F1F4F2F76B22E97FF09C09F
S11312B090958095709561957F4F8F4F9F4F2068D3
S11312C0B22E2AE030E0A4016FD2A82EA81843C0A1
S11312D0853729F42F7EB22E2AE030E025C0F22F84
S11312E0F97FBF2E8F36C1F018F4883579F0ADC080
S11312F0803719F0883721F0A8C02F2F2061B22E33
S1131300B4FE0DC08B2D8460B82E09C024FF0AC022
S11313109F2F9660B92E06C028E030E005C020E17A
S113132030E002C020E132E0F801B7FE07C060817E
S11313307181828193810C5F1F4F06C0608171812E
S113134080E090E00E5F1F4FA4012ED2A82EA818B3
S1131350FB2DFF77BF2EB6FE0BC02B2D2E7FA514C1
S113136050F4B4FE0AC0B2FC08C02B2D2E7E05C07A
S11313707A2C2B2D03C07A2C01C0752C24FF0DC0B0
S1131380FE01EA0DF11D8081803311F4297E09C02C
S113139022FF06C07394739404C0822F867809F0E8
S11313A0739423FD12C020FF06C05A2C731418F442
S11313B0530C5718732C731460F4B70180E290E057
S11313C02C87C0D173942C85F6CF731410F437187E
S11313D001C0312C24FF11C0B70180E390E02C87B9
S11313E0B1D12C8522FF16C021FF03C088E590E00F
S11313F002C088E790E0B7010CC0822F867851F0D4
S113140021FD02C080E201C08BE227FD8DE2B7011D
S113141090E098D1A51430F4B70180E390E092D124
S11314205A94F8CFAA94F401EA0DF11D8081B70112
S113143090E088D1A110F6CF332009F45DCEB70136
S113144080E290E07FD13A94F7CFF70186819781CB
S113145002C08FEF9FEF2C960FB6F894DEBF0FBE3D
S1131460CDBFDF91CF911F910F91FF90EF90DF904F
S1131470CF90BF90AF909F908F907F906F905F9030
S11314804F903F902F9008950F931F93CF93DF9326
S1131490869F8001879F100D969F100D1124C8010F
S11314A00DD0EC01009721F0A80160E070E038D184
S11314B0CE01DF91CF911F910F910895CF93DF93C8
S11314C08230910510F482E090E0E0917C02F0918A
S11314D07D0220E030E0A0E0B0E0309739F14081B7
S11314E0518148175907B8F04817590771F4828198
S11314F09381109729F013969C938E9312972CC086
S113150090937D0280937C0227C02115310531F030
S11315104217530718F0A901DB0101C0EF019A013A
S1131520BD01DF010280F381E02DD7CF2115310504
S1131530F9F0281B390B2430310580F48A819B8112
S11315406115710521F0FB019383828304C090939C
S11315507D0280937C02FE01329644C0FE01E20FBC
S1131560F31F8193919322503109398328833AC020
S113157020917A0230917B02232B41F420910202C4
S11315803091030230937B0220937A02209100026F
S1131590309101022115310541F42DB73EB7409138
S11315A0040250910502241B350BE0917A02F0915C
S11315B07B02E217F307A0F42E1B3F0B2817390711
S11315C078F0AC014E5F5F4F2417350748F04E0F9B
S11315D05F1F50937B0240937A028193919302C0E0
S11315E0E0E0F0E0CF01DF91CF910895CF93DF9356
S11315F0009709F487C0FC01329713821282C091CC
S11316007C02D0917D02209781F420813181280FC2
S1131610391F80917A0290917B028217930779F5A2
S1131620F0937B02E0937A026DC0DE0120E030E0AB
S1131630AE17BF0750F412964D915C9113979D011C
S11316404115510509F1DA01F3CFB383A283408137
S11316505181840F951F8A179B0771F48D919C917A
S11316601197840F951F02969183808312968D9112
S11316709C911397938382832115310529F4F09368
S11316807D02E0937C023EC0D9011396FC93EE9355
S113169012974D915D91A40FB51FEA17FB0779F4DA
S11316A080819181840F951F0296D90111969C9394
S11316B08E938281938113969C938E931297E0E08C
S11316C0F0E08A819B81009719F0FE01EC01F9CFCB
S11316D0CE01029628813981820F931F20917A02CC
S11316E030917B022817390769F4309729F4109256
S11316F07D0210927C0202C013821282D0937B027C
S1131700C0937A02DF91CF910895FC010590615056
S113171070400110D8F7809590958E0F9F1F089503
S1131720DC0101C06D9341505040E0F70895FC0185
S11317306150704001900110D8F7809590958E0FFC
S11317409F1F08950F931F93CF93DF93182F092F93
S1131750EB018B8181FD03C08FEF9FEF20C082FFDF
S113176010C04E815F812C813D81421753077CF468
S1131770E881F9819F012F5F3F4F398328831083CC
S113178006C0E885F985812F1995892B29F72E81C3
S11317903F812F5F3F4F3F832E83812F902FDF9117
S11317A0CF911F910F910895FA01AA27283051F182
S11317B0203181F1E8946F936E7F6E5F7F4F8F4F7E
S11317C09F4FAF4FB1E03ED0B4E03CD0670F781FDD
S11317D0891F9A1FA11D680F791F8A1F911DA11DC2
S11317E06A0F711D811D911DA11D20D009F46894FB
S11317F03F912AE0269F11243019305D3193DEF6A3
S1131800CF010895462F4770405D4193B3E00FD058
S1131810C9F7F6CF462F4F70405D4A3318F0495D43
S113182031FD4052419302D0A9F7EACFB4E0A69526
S11318309795879577956795BA95C9F70097610548
S1131840710508959B01AC010A2E0694579547959E
S113185037952795BA95C9F7620F731F841F951F93
S10B1860A01D0895F894FFCFC8
S113186800007E02200064000A006E0060F8496EE1
S1131878697469616C697A6174696F6E73000A0AC4
S11318880A496E697420646F6E650050756C7365DF
S11318982077696474683A2025640A0054574920FB
S11318A86572726F72004D617820656E636F64654E
S11118B8722076616C75653A2025640A000082
S9030000FC
