S012000041546D656761323536302E7372656316
S113000071C000008FC000008DC0000027C1000037
S113001089C0000087C0000085C0000083C00000C4
S113002081C000007FC000007DC000007BC00000D4
S113003079C0000077C0000075C0000073C00000E4
S113004071C000006FC000006DC000006BC00000F4
S113005069C0000067C0000065C0000063C0000004
S113006061C000005FC000005DC000005BC0000014
S113007059C0000057C0000055C0000053C0000024
S113008051C000004FC000004DC000004BC0000034
S113009049C0000047C0000045C0000043C0000044
S11300A041C000003FC000003DC000003BC0000054
S11300B039C0000037C0000035C0000033C0000064
S11300C031C000002FC000002DC000002BC0000074
S11300D029C0000027C0000025C0000023C0000084
S11300E021C0000011241FBECFEFD1E2DEBFCDBF7F
S11300F000E00CBF13E0A0E0B2E0ECE8F2E100E0C5
S11301000BBF02C007900D92A231B107D9F723E0CB
S1130110A2E1B3E001C01D92AD31B207E1F784D191
S11301200C9444096DCF40E660E680E61FD140E6BA
S113013060E680E71BD144E064E080E617D144E048
S113014064E080E713D140E060EE8FE00FD18EE0F1
S1130150CDD0807E31F086E092E08DD481E090E0D5
S1130160089563E08BE2EFD0E9E6F0E080818062FD
S11301708083EA9A80E090E00895CF92DF92EF9234
S1130180FF920F931F93CF93DF937C01C62F81E0DF
S1130190860FACD0D82F82E08C0FA8D0482F429580
S11301A0469547702D2F30E0C901880F991F880F9D
S11301B0991F880F991F842BF7019183808385E011
S11301C08C0F94D08F70F70182838823F1F00F2E67
S11301D0F6E0DF2EF02DDC0E87010D5F1F4F0F2E92
S11301E0FEE0CF2EF02DCC0EC0E0D0E08D2D7ED0E1
S11301F0F80181938F012196F701228130E0C21723
S1130200D3071CF4D394DC10F1CFDF91CF911F916D
S11302100F91FF90EF90DF90CF90089520911203FB
S1130220213041F018F0223069F014C083E392E0E9
S113023022C4089560E6A1DF1092120382E492E0E2
S11302401AC4089560E799DF1092120386E592E0DC
S113025012C408958AE692E00EC408951F920F9284
S11302600FB60F9211240BB60F922F933F934F9317
S11302705F936F937F938F939F93AF93BF93EF930A
S1130280FF938CE233D080FF08C081E08093120397
S113029040E061E08CE26AD009C081FF07C082E0DF
S11302A08093120340E062E08CE260D0FF91EF9112
S11302B0BF91AF919F918F917F916F915F914F917A
S11302C03F912F910F900BBE0F900FBE0F901F9078
S11302D0189580E090E075D080EC69D082E48A952E
S11302E0F1F700C081E090E06CC00895CF93C82F6F
S11302F080E090E066D083E05AD08C2F58D080E024
S113030056D0C82F81E090E05CD08C2FCF91089517
S1130310CF93DFDF8EE0EADFC82F1F928F9329E7A8
S113032032E03F932F9396D3C07E0F900F900F909F
S11303300F90C03829F085E892E09DD381E001C098
S113034080E0CF910895CF93DF93D82FC62F80E01C
S113035090E037D082E02BD08D2F29D08C2F27D05E
S113036081E090E02ED0DF91CF9108951F93CF9339
S1130370DF93182FD62FC42F80E090E022D085E0A1
S113038016D0812F14D08D2F12D08C2F10D081E055
S113039090E017D0DF91CF911F91089584B18768C1
S11303A084B981E18CBD8CB580648CBD08958EBD0B
S11303B00DB407FEFDCF82E48A95F1F700C08EB537
S11303C008958130910511F42F9A0895892B09F429
S11303D02F980895E0ECF0E0908195FFFDCF809395
S11303E0C6000895E0ECF0E080818823ECF780916A
S11303F0C6000895E5ECF0E02081922B9083E4ECB4
S1130400F0E09081892B8083E1ECF0E080818861C9
S11304108083E2ECF0E080818E60808362EF71E0A3
S11304208AEE91E0CDC20895CF93DF93CDB7DEB7C6
S11304302B970FB6F894DEBF0FBECDBFF89487E6B6
S113044090E0D8DFABDF64DF6EDE3CD086EB92E079
S113045012D378940F2EF3ECCF2EF2E0DF2EF02D92
S11304600F2EF9EEEF2EF2E0FF2EF02D0BEF12E03F
S1130470CE010196D3DE8D811F928F938C811F92C2
S11304808F93DF92CF92E6D28A818F9389818F9363
S1130490FF92EF92DFD28B811F928F931F930F9362
S11304A0D9D28C8132D02FEF80E792E02150804066
S11304B09040E1F700C000000FB6F894DEBF0FBE15
S11304C0CDBFD6CFA0E8B0E08C9180688C93E1E8F2
S11304D0F0E08081886180838C9182608C9380813C
S11304E08360808388E893E19093870080938600FB
S11304F0259A089520E030E04AE753E4FED11BD169
S113050070938900609388000895CF92DF92EF92F0
S1130510FF92682F70E080E090E039D120E030E075
S11305204FE753E4A0D029E939E949E95FE3E5D18C
S113053026E636E646E65FE32ED06B017C0126E62E
S113054036E646E050E4D5D1181654F026E636E6F1
S113055046E65FE3C701B60182D088235CF012C08F
S11305600F2EF6E6CF2EDC2CF6E0EF2EF0E4FF2E75
S1130570F02D08C00F2EF6E6CF2EDC2CEC2CFFE37A
S1130580FF2EF02DC701B601B5DFFF90EF90DF908D
S1130590CF9008955058BB27AA270ED070C161D1BF
S11305A030F066D120F031F49F3F11F41EF456C1AF
S11305B00EF4E095E7FB4CC1E92F72D180F3BA1732
S11305C0620773078407950718F071F49EF58AC1D2
S11305D00EF4E0950B2EBA2FA02D0B01B90190015A
S11305E00C01CA01A0011124FF27591B99F0593F9E
S11305F050F4503E68F11A16F040A22F232F342FE6
S11306004427585FF3CF469537952795A795F04033
S11306105395C9F77EF41F16BA0B620B730B840B48
S1130620BAF09150A1F0FF0FBB1F661F771F881F00
S1130630C2F70EC0BA0F621F731F841F48F4879558
S113064077956795B795F7959E3F08F0B3CF939547
S1130650880F08F09927EE0F979587950895D4D0C1
S113066008F481E008950CD00AC102D140F0F9D019
S113067030F021F45F3F19F0EBC0511134C1EEC0EA
S11306800FD198F39923C9F35523B1F3951B550B57
S1130690BB27AA2762177307840738F09F5F5F4F51
S11306A0220F331F441FAA1FA9F333D00E2E3AF092
S11306B0E0E830D091505040E695001CCAF729D0AC
S11306C0FE2F27D0660F771F881FBB1F26173707FB
S11306D04807AB07B0E809F0BB0B802DBF01FF272B
S11306E093585F4F2AF09E3F510568F0B1C0FBC09C
S11306F05F3FECF3983EDCF3869577956795B79565
S1130700F7959F5FC9F7880F911D9695879597F97F
S11307100895E1E0660F771F881FBB1F62177307F8
S11307208407BA0720F0621B730B840BBA0BEE1F0D
S113073088F7E0950895BCD088F09F5790F0B92FC2
S11307409927B751A0F0D1F0660F771F881F991F22
S11307501AF0BA95C9F712C0B13081F0C3D0B1E034
S11307600895C0C0672F782F8827B85F39F0B93F44
S1130770CCF3869577956795B395D9F73EF4909524
S11307808095709561957F4F8F4F9F4F0895E894A2
S113079009C097FB3EF490958095709561957F4FC5
S11307A08F4F9F4F9923A9F0F92F96E9BB27939573
S11307B0F695879577956795B795F111F8CFFAF483
S11307C0BB0F11F460FF1BC06F5F7F4F8F4F9F4FB4
S11307D016C0882311F096E911C0772321F09EE812
S11307E0872F762F05C0662371F096E8862F70E078
S11307F060E02AF09A95660F771F881FDAF7880F52
S11308009695879597F90895990F0008550FAA0BA7
S1130810E0E8FEEF16161706E807F907C0F012160F
S11308201306E407F50798F0621B730B840B950B12
S113083039F40A2661F0232B242B252B21F4089567
S11308400A2609F4A140A6958FEF811D811D089504
S113085097F99F6780E870E060E008959FEF80EC6F
S1130860089500240A941616170618060906089512
S113087000240A9412161306140605060895092E78
S11308800394000C11F4882352F0BB0F40F4BF2BE7
S113089011F460FF04C06F5F7F4F8F4F9F4F089527
S11308A057FD9058440F551F59F05F3F71F047951D
S11308B0880F97FB991F61F09F3F79F08795089502
S11308C0121613061406551FF2CF4695F1DF08C021
S11308D0161617061806991FF1CF8695710561053E
S11308E008940895E894BB2766277727CB0197F9E6
S11308F008958ADF08F48FEF08950BD0C0CFB1DFDD
S113090028F0B6DF18F0952309F0A2CFA7CF112461
S1130910EACFC6DFA0F3959FD1F3950F50E0551FA2
S1130920629FF001729FBB27F00DB11D639FAA2740
S1130930F00DB11DAA1F649F6627B00DA11D661F8F
S1130940829F2227B00DA11D621F739FB00DA11DB0
S1130950621F839FA00D611D221F749F3327A00D6A
S1130960611D231F849F600D211D822F762F6A2F06
S113097011249F5750408AF0E1F088234AF0EE0F8B
S1130980FF1FBB1F661F771F881F91505040A9F798
S11309909E3F510570F05CCFA6CF5F3FECF3983ECD
S11309A0DCF3869577956795B795F795E7959F5FFF
S11309B0C1F7FE2B880F911D9695879597F9089599
S11309C00F931F93CF93DF93EC018B01009731F4C6
S11309D06115710519F480E090E037C06EE070E0B5
S11309E081E090E063D2FC010097A9F380E883835F
S11309F00115110571F01387028781E883838091C3
S1130A00130390911403892B21F4F0931403E093BE
S1130A1013032097C9F0D187C087838182608383C1
S1130A208091150390911603892B71F4F0931603AA
S1130A30E09315038091170390911803892B21F4F7
S1130A40F0931803E0931703CF01DF91CF911F9127
S1130A500F910895CF93DF93CDB7DEB7FE0136969D
S1130A6061917191AF01809115039091160330D07B
S1130A70DF91CF9108950F931F93CF93DF93E0916C
S1130A801503F0911603238121FF1BC0EC0100E044
S1130A9010E089916091150370911603DB0118969B
S1130AA0ED91FC911997882331F01995892B89F3DD
S1130AB00FEF1FEFEECF8AE01995892B11F4C801CF
S1130AC002C08FEF9FEFDF91CF911F910F91089597
S1130AD02F923F924F925F926F927F928F929F924A
S1130AE0AF92BF92CF92DF92EF92FF920F931F9338
S1130AF0CF93DF93CDB7DEB72C970FB6F894DEBF54
S1130B000FBECDBF7C016B018A01FC0117821682E6
S1130B10838181FFB0C1CE0101964C01F70193811D
S1130B20F60193FD859193FF81916F01882309F468
S1130B309EC1853239F493FD859193FF81916F01B4
S1130B40853221F4B70190E00FD3E8CF512C312C3A
S1130B5020E02032A0F48B3269F030F4803259F076
S1130B60833269F420612CC08D3239F0803339F43A
S1130B70216026C02260246023C0286021C027FD94
S1130B8027C030ED380F3A3078F426FF06C0FAE07B
S1130B905F9E300D1124532E13C08AE0389E300D11
S1130BA01124332E20620CC08E3221F426FD5FC145
S1130BB0206406C08C3611F4206802C0883641F4E3
S1130BC0F60193FD859193FF81916F018111C1CF4E
S1130BD0982F9F7D9554933028F40C5F1F4FFFE3AB
S1130BE0F9830DC0833631F0833771F0833509F012
S1130BF057C021C0F801808189830E5F1F4F4424B0
S1130C004394512C540114C03801F2E06F0E711C4E
S1130C10F801A080B18026FF03C0652D70E002C0FA
S1130C206FEF7FEFC5012C8794D22C0183012C85B3
S1130C302F77222E16C03801F2E06F0E711CF801D6
S1130C40A080B18026FF03C0652D70E002C06FEF65
S1130C507FEFC5012C876BD22C012C852068222EB6
S1130C60830123FC19C0832D90E048165906A0F493
S1130C70B70180E290E078D23A94F5CFF50127FCF1
S1130C80859127FE81915F01B70190E06DD231100B
S1130C903A94F1E04F1A51084114510479F7DEC037
S1130CA0843611F0893631F5F80127FF07C06081D9
S1130CB07181828193810C5F1F4F08C060817181B3
S1130CC0882777FD8095982F0E5F1F4F2F76B22EC1
S1130CD097FF09C090958095709561957F4F8F4FD0
S1130CE09F4F2068B22E2AE030E0A4016FD2A82ED4
S1130CF0A81843C0853729F42F7EB22E2AE030E0AD
S1130D0025C0F22FF97FBF2E8F36C1F018F4883535
S1130D1079F0ADC0803719F0883721F0A8C02F2FA3
S1130D202061B22EB4FE0DC08B2D8460B82E09C094
S1130D3024FF0AC09F2F9660B92E06C028E030E039
S1130D4005C020E130E002C020E132E0F801B7FE46
S1130D5007C060817181828193810C5F1F4F06C03F
S1130D606081718180E090E00E5F1F4FA4012ED25C
S1130D70A82EA818FB2DFF77BF2EB6FE0BC02B2D77
S1130D802E7FA51450F4B4FE0AC0B2FC08C02B2D6B
S1130D902E7E05C07A2C2B2D03C07A2C01C0752C15
S1130DA024FF0DC0FE01EA0DF11D8081803311F492
S1130DB0297E09C022FF06C07394739404C0822F55
S1130DC0867809F0739423FD12C020FF06C05A2CC4
S1130DD0731418F4530C5718732C731460F4B7017C
S1130DE080E290E02C87C0D173942C85F6CF7314E5
S1130DF010F4371801C0312C24FF11C0B70180E36F
S1130E0090E02C87B1D12C8522FF16C021FF03C0AE
S1130E1088E590E002C088E790E0B7010CC0822F1B
S1130E20867851F021FD02C080E201C08BE227FDEB
S1130E308DE2B70190E098D1A51430F4B70180E3B6
S1130E4090E092D15A94F8CFAA94F401EA0DF11DDE
S1130E508081B70190E088D1A110F6CF332009F446
S1130E605DCEB70180E290E07FD13A94F7CFF701ED
S1130E708681978102C08FEF9FEF2C960FB6F8946E
S1130E80DEBF0FBECDBFDF91CF911F910F91FF90B9
S1130E90EF90DF90CF90BF90AF909F908F907F9016
S1130EA06F905F904F903F902F9008950F931F93F2
S1130EB0CF93DF93869F8001879F100D969F100D1F
S1130EC01124C8010DD0EC01009721F0A80160E0C5
S1130ED070E038D1CE01DF91CF911F910F91089529
S1130EE0CF93DF938230910510F482E090E0E0919B
S1130EF01B03F0911C0320E030E0A0E0B0E0309749
S1130F0039F14081518148175907B8F048175907FA
S1130F1071F482819381109729F013969C938E9398
S1130F2012972CC090931C0380931B0327C0211598
S1130F30310531F04217530718F0A901DB0101C054
S1130F40EF019A01BD01DF010280F381E02DD7CFCB
S1130F5021153105F9F0281B390B2430310580F4B3
S1130F608A819B816115710521F0FB019383828342
S1130F7004C090931C0380931B03FE01329644C06B
S1130F80FE01E20FF31F81939193225031093983BB
S1130F9028833AC02091190330911A03232B41F47A
S1130FA0209102023091030230931A032093190313
S1130FB020910002309101022115310541F42DB731
S1130FC03EB74091040250910502241B350BE09179
S1130FD01903F0911A03E217F307A0F42E1B3F0B39
S1130FE02817390778F0AC014E5F5F4F2417350797
S1130FF048F04E0F5F1F50931A03409319038193D7
S1131000919302C0E0E0F0E0CF01DF91CF91089529
S1131010CF93DF93009709F487C0FC0132971382C2
S11310201282C0911B03D0911C03209781F420816C
S11310303181280F391F8091190390911A03821767
S1131040930779F5F0931A03E09319036DC0DE0159
S113105020E030E0AE17BF0750F412964D915C913A
S113106013979D014115510509F1DA01F3CFB383BB
S1131070A28340815181840F951F8A179B0771F4C5
S11310808D919C911197840F951F02969183808373
S113109012968D919C911397938382832115310528
S11310A029F4F0931C03E0931B033EC0D90113966B
S11310B0FC93EE9312974D915D91A40FB51FEA171F
S11310C0FB0779F480819181840F951F0296D901E1
S11310D011969C938E938281938113969C938E9305
S11310E01297E0E0F0E08A819B81009719F0FE01FD
S11310F0EC01F9CFCE01029628813981820F931F2A
S11311002091190330911A032817390769F430978D
S113111029F410921C0310921B0302C01382128242
S1131120D0931A03C0931903DF91CF910895FC0162
S11311300590615070400110D8F7809590958E0FFE
S11311409F1F0895DC0101C06D9341505040E0F7AA
S11311500895FC016150704001900110D8F780950A
S113116090958E0F9F1F08950F931F93CF93DF9336
S1131170182F092FEB018B8181FD03C08FEF9FEFA7
S113118020C082FF10C04E815F812C813D814217B7
S113119053077CF4E881F9819F012F5F3F4F398326
S11311A02883108306C0E885F985812F1995892B3A
S11311B029F72E813F812F5F3F4F3F832E83812F5D
S11311C0902FDF91CF911F910F910895FA01AA27D3
S11311D0283051F1203181F1E8946F936E7F6E5F76
S11311E07F4F8F4F9F4FAF4FB1E03ED0B4E03CD024
S11311F0670F781F891F9A1FA11D680F791F8A1F07
S1131200911DA11D6A0F711D811D911DA11D20D06D
S113121009F468943F912AE0269F11243019305D27
S11312203193DEF6CF010895462F4770405D419318
S1131230B3E00FD0C9F7F6CF462F4F70405D4A3365
S113124018F0495D31FD4052419302D0A9F7EACF2D
S1131250B4E0A6959795879577956795BA95C9F75C
S113126000976105710508959B01AC010A2E06944F
S11312705795479537952795BA95C9F7620F731F08
S10F1280841F951FA01D0895F894FFCF53
S113128C00001D0320004D43503235313520697365
S113129C204E4F5420696E206E6F726D616C206D00
S11312AC6F64652061667465722043414E20696EDB
S11312BC6974006E6F20696E746572727570742037
S11312CC3100696E746572727570742068616E6435
S11312DC6C6564203100696E74657272757074206B
S11312EC68616E646C65642032006E6F20696E7484
S11312FC65727275707420320056616C7565203D90
S113130C2025580A004D435032353135206973205D
S113131C4E4F5420696E20636F6E666967757261F7
S113132C74696F6E206D6F646520616674657220DC
S113133C7265736574000A0A0A496E697420646FD5
S113134C6E65000A0A5265636569766564206D658D
S113135C73736167652028782C2079293A20282515
S113136C642C20256429200A00526563656976651E
S113137C642069643A202564200A00526563656917
S113138C766564206C656E6774683A202564202049
S105139C0A0041
S9030000FC
