S012000041546D656761323536302E7372656316
S1130000C2C00000E0C00000DEC0000069C1000002
S1130010DAC00000D8C00000D6C00000D4C0000080
S1130020D2C00000D0C00000CEC00000CCC0000090
S1130030CAC00000C8C00000C6C00000C4C00000A0
S1130040C2C00000C0C00000BEC00000BCC00000B0
S1130050BAC00000B8C00000B6C00000B4C00000C0
S1130060B2C00000B0C00000AEC00000ACC00000D0
S1130070AAC00000A8C00000A6C00000A4C00000E0
S1130080A2C00000A0C000009EC000009CC00000F0
S11300909AC0000098C0000096C0000097C40000F9
S11300A092C0000090C000008EC000008CC0000010
S11300B08AC0000088C0000086C0000084C0000020
S11300C082C0000080C000007EC000007CC0000030
S11300D07AC0000078C0000076C0000074C0000040
S11300E072C000000105530553055305530553051C
S11300F0530553050105530553055305530553058E
S1130100530553050305530553055305530553057B
S1130110530553055305530553055305530553051B
S1130120530553050305530553055305530553055B
S113013053055305530553055305530553055305FB
S1130140530553054F0553055305530553055305EF
S1130150530553052C055305530553055305530502
S113016053055305530553055305530553055305CB
S113017053055305200553055305530553055305EE
S1130180530553053E0511241FBECFEFD1E2DEBF58
S1130190CDBF00E00CBF12E0A0E0B2E0E6EDF7E175
S11301A000E00BBF02C007900D92A23CB107D9F743
S11301B022E0A2ECB2E001C01D92AA3DB207E1F731
S11301C067D10C94E90B1CCF40E660E680E602D1CF
S11301D040E660E680E7FED044E064E080E6FAD0E2
S11301E044E064E080E7F6D040E060EE8FE0F2D0D7
S11301F08EE0BED0807E31F082E192E0E1D681E0F3
S113020090E0089563E08BE2D2D0E9E6F0E08081EB
S113021080628083EA9A80E090E00895CF92DF9232
S1130220EF92FF920F931F93CF93DF937C01C62F1E
S113023081E0860F9DD0D82F82E08C0F99D0482F73
S11302404295469547702D2F30E0C901880F991FBC
S1130250880F991F880F991F842BF701918380833E
S113026085E08C0F85D08F70F70182838823F1F0AD
S11302700F2EF6E0DF2EF02DDC0E87010D5F1F4FF1
S11302800F2EFEE0CF2EF02DCC0EC0E0D0E08D2D51
S11302906FD0F80181938F012196F701228130E01C
S11302A0C217D3071CF4D394DC10F1CFDF91CF91A4
S11302B01F910F91FF90EF90DF90CF9008952091C0
S11302C0C202213019F0223031F0089560E6A6DF31
S11302D01092C202089560E7A1DF1092C20208954D
S11302E01F920F920FB60F9211240BB60F922F93F9
S11302F03F934F935F936F937F938F939F93AF93AA
S1130300BF93EF93FF938CE233D080FF08C081E06A
S11303108093C20240E061E08CE25CD009C081FFBE
S113032007C082E08093C20240E062E08CE252D0D7
S1130330FF91EF91BF91AF919F918F917F916F91B9
S11303405F914F913F912F910F900BBE0F900FBE75
S11303500F901F90189580E090E067D080EC5BD000
S113036082E48A95F1F700C081E090E05EC00895D0
S1130370CF93C82F80E090E058D083E04CD08C2FEE
S11303804AD080E048D0C82F81E090E04ED08C2F36
S1130390CF910895E0DF8EE0EBDF807E803829F096
S11303A08FE392E00DD681E0089580E00895CF9325
S11303B0DF93D82FC62F80E090E037D082E02BD097
S11303C08D2F29D08C2F27D081E090E02ED0DF9183
S11303D0CF9108951F93CF93DF93182FD62FC42F57
S11303E080E090E022D085E016D0812F14D08D2FAC
S11303F012D08C2F10D081E090E017D0DF91CF91F4
S11304001F91089584B1876884B981E18CBD8CB54E
S113041080648CBD08958EBD0DB407FEFDCF82E4CB
S11304208A95F1F700C08EB508958130910511F4D5
S11304302F9A0895892B09F42F980895E0ECF0E0A1
S1130440908195FFFDCF8093C6000895E0ECF0E025
S113045080818823ECF78091C6000895E5ECF0E0F4
S11304602081922B9083E4ECF0E09081892B8083AF
S1130470E1ECF0E0808188618083E2ECF0E080814F
S11304808E60808366E272E08EE192E03EC508955C
S1130490CF93DF93CDB7DEB72B970FB6F894DEBFBB
S11304A00FBECDBFF89480E792E08AD587E690E04E
S11304B0D5DFA8DF6FDF88DED6D0CFD0F7D0BAD1B2
S11304C080E892E07DD5789451D1512C66246394D0
S11304D0712C312C412CCE010196F1DE8C818330BC
S11304E051F0843069F081110DC08D81851551F072
S11304F0E2D15D8007C08D812ED04B015C0102C02A
S113050081E09BD172D16B017C0120E030E0A90134
S113051045D388231CF4C12CD12C7601A501940168
S1130520C701B60138D0282E062D172DA501940138
S1130530C701B6017DD4181614F0032D142D802F95
S1130540912FC5D0822DD4D08FEC97E00197F1F78D
S113055000C00000C0CFCF93DF9390E08F5F91097C
S1130560EC01992324F4CC27DD27C81BD90BDF9396
S1130570CF938DE892E09F938F9311D5BE01882786
S113058077FD8095982FA4D30F900F900F900F9024
S1130590DF91CF9108958F929F92AF92BF92CF92A5
S11305A0DF92EF92FF924B015C01CA01B901E09125
S11305B00602F0910702E080F18011821082A50109
S11305C0940187D24B015C01B70180E090E07ED3B7
S11305D020E034E244E75BE4E5D29B01AC01C501D1
S11305E0B4012AD42091C3023091C4024091C502BF
S11305F05091C6026FD26B017C016093C302709369
S1130600C4028093C5029093C60220910C023091DB
S11306100D0240910E0250910F02C501B4010CD499
S11306204B015C01209108023091090240910A02B9
S113063050910B02C701B601FFD39B01AC01C50168
S1130640B40148D217D3862FFF90EF90DF90CF905C
S1130650BF90AF909F908F900895EAE7F0E080817B
S1130660876880830895A0E8B0E08C9180688C93BB
S1130670E1E8F0E08081886180838C9182608C93D2
S113068080818360808388E893E1909387008093DE
S11306908600259A089520E030E04AE753E4CCD35D
S11306A0E9D27093890060938800089549D1E1E00C
S11306B0F1E0808182618083A2E0B1E08C9182616B
S11306C08C9310920701808188668083089581301D
S11306D0910531F4E2E0F1E0808182608083089545
S11306E0892B29F4E2E0F1E080818D7F80830895F5
S11306F0CF93DF931F92CDB7DEB790911002891785
S113070010F4898301C0998361E070E0CE01019601
S1130710B3D020D1811109C08091C80280FD05C0E9
S113072081EA92E04DD41AD196D00F90DF91CF9107
S11307300895E2E0F1E080818F7D80838081877F6E
S113074080838AE68A95F1F700C0209106018081B2
S1130750886080838AE68A95F1F700C0809106015B
S113076090819062908390E0922B089581E090E0D4
S1130770AEDF80911002BCDF2FEF87EA91E62150B3
S113078080409040E1F700C0000081E0B1DFE2E08A
S1130790F1E080818F7B80832AE62A95F1F700C0FF
S11307A080818064808380E090E091DF80911002FA
S11307B09FDF8FEF97EA21E6815090402040E1F7D8
S11307C000C0000080E094DFB4DF8093CE029093F9
S11307D0CF029F938F938BEA92E09F938F93DFD303
S11307E00F900F900F900F900895CF92DF92EF9299
S11307F0FF929FDFBC01882777FD8095982F68D2F0
S11308006B017C016091CE027091CF02882777FD45
S11308108095982F5DD29B01AC01C701B601C2D16E
S113082020E030E04FE753E407D3FF90EF90DF90F0
S1130830CF900895819A899A0895882359F08998C8
S11308402FEF89E698E1215080409040E1F700C005
S11308500000899A0895CF93C82F81E0C83409F025
S113086080E0811105C081E0C03209F080E081118F
S11308709FD08C2FCF910895CF93DF9300D01F92F8
S1130880CDB7DEB720E529831A821616170644F47D
S1130890FC0120812B836230710514F081818C83EB
S11308A06E5FCE01019662D00F900F900F900F9063
S11308B0DF91CF910895CF92DF92EF92FF92682F4C
S11308C070E080E090E002D220E030E04FE753E4B3
S11308D069D129E939E949E95FE3AED226E636E68A
S11308E046E65FE3F7D06B017C0126E636E646E098
S11308F050E49ED2181654F026E636E646E65FE348
S1130900C701B6014BD188235CF012C00F2EF6E666
S1130910CF2EDC2CF6E0EF2EF0E4FF2EF02D08C0F5
S11309200F2EF6E6CF2EDC2CEC2CFFE3FF2EF02D61
S1130930C701B601B0DEFF90EF90DF90CF9008952D
S11309408CE08093B8008FEF8093BB0084E08093A9
S1130950BC0008958091BC0081700895ECEBF0E038
S1130960808180FDFDCF809111020895ECEBF0E0D1
S1130970208120FDFDCF6093C902FC0120812093DA
S1130980CA0220FD0CC0623050F0DC011196EBEC81
S1130990F2E081E09D9191938F5F8613FBCF1092DB
S11309A0C80288EF8093110285EA8093BC00089501
S11309B0ECEBF0E0808180FDFDCF1092C80288EF5F
S11309C08093110285EA8093BC0008951F920F92D0
S11309D00FB60F9211240BB60F922F933F938F9360
S11309E09F93AF93BF93EF93FF938091B90090E0EF
S11309F0FC013897E135F10508F055C0EE58FF4F7A
S1130A007EC21092C702E091C7028091C902E81722
S1130A1070F481E08E0F8093C702F0E0E653FD4F3F
S1130A2080818093BB0085E88093BC0043C08091A3
S1130A30C80281608093C80284E98093BC003AC0F4
S1130A40E091C70281E08E0F8093C7028091BB00C2
S1130A50F0E0E653FD4F80832091C70230E080919F
S1130A60C90290E001972817390724F485EC809394
S1130A70BC0020C085E88093BC001CC08091BB00F2
S1130A80E091C702F0E0E653FD4F80838091C802F5
S1130A9081608093C80284E98093BC000BC085EA1E
S1130AA08093BC0007C08091B9008093110284E058
S1130AB08093BC00FF91EF91BF91AF919F918F9173
S1130AC03F912F910F900BBE0F900FBE0F901F9070
S1130AD018955058BB27AA270ED070C161D130F0A9
S1130AE066D120F031F49F3F11F41EF456C10EF488
S1130AF0E095E7FB4CC1E92F72D180F3BA17620786
S1130B0073078407950718F071F49EF58AC10EF4F3
S1130B10E0950B2EBA2FA02D0B01B90190010C0109
S1130B20CA01A0011124FF27591B99F0593F50F421
S1130B30503E68F11A16F040A22F232F342F442779
S1130B40585FF3CF469537952795A795F040539571
S1130B50C9F77EF41F16BA0B620B730B840BBAF041
S1130B609150A1F0FF0FBB1F661F771F881FC2F7AC
S1130B700EC0BA0F621F731F841F48F487957795C0
S1130B806795B795F7959E3F08F0B3CF9395880F77
S1130B9008F09927EE0F979587950895D4D008F417
S1130BA081E008950CD00AC102D140F0F9D030F0B0
S1130BB021F45F3F19F0EBC0511134C1EEC00FD1E5
S1130BC098F39923C9F35523B1F3951B550BBB2710
S1130BD0AA2762177307840738F09F5F5F4F220FBD
S1130BE0331F441FAA1FA9F333D00E2E3AF0E0E8B6
S1130BF030D091505040E695001CCAF729D0FE2F02
S1130C0027D0660F771F881FBB1F26173707480793
S1130C10AB07B0E809F0BB0B802DBF01FF27935849
S1130C205F4F2AF09E3F510568F0B1C0FBC05F3FA3
S1130C30ECF3983EDCF3869577956795B795F79531
S1130C409F5FC9F7880F911D9695879597F9089529
S1130C50E1E0660F771F881FBB1F621773078407C5
S1130C60BA0720F0621B730B840BBA0BEE1F88F7D4
S1130C70E0950895BCD088F09F5790F0B92F99273C
S1130C80B751A0F0D1F0660F771F881F991F1AF093
S1130C90BA95C9F712C0B13081F0C3D0B1E008955C
S1130CA0C0C0672F782F8827B85F39F0B93FCCF3DD
S1130CB0869577956795B395D9F73EF49095809589
S1130CC0709561957F4F8F4F9F4F0895E89409C0A9
S1130CD097FB3EF490958095709561957F4F8F4F6B
S1130CE09F4F9923A9F0F92F96E9BB279395F69581
S1130CF0879577956795B795F111F8CFFAF4BB0FFF
S1130D0011F460FF1BC06F5F7F4F8F4F9F4F16C062
S1130D10882311F096E911C0772321F09EE8872FEC
S1130D20762F05C0662371F096E8862F70E060E0A8
S1130D302AF09A95660F771F881FDAF7880F969521
S1130D40879597F90895990F0008550FAA0BE0E8C5
S1130D50FEEF16161706E807F907C0F01216130679
S1130D60E407F50798F0621B730B840B950B39F4B9
S1130D700A2661F0232B242B252B21F408950A261F
S1130D8009F4A140A6958FEF811D811D089597F95F
S1130D909F6780E870E060E008959FEF80EC08951D
S1130DA000240A9416161706180609060895002446
S1130DB00A9412161306140605060895092E0394C0
S1130DC0000C11F4882352F0BB0F40F4BF2B11F434
S1130DD060FF04C06F5F7F4F8F4F9F4F089557FD93
S1130DE09058440F551F59F05F3F71F04795880F95
S1130DF097FB991F61F09F3F79F08795089512162C
S1130E0013061406551FF2CF4695F1DF08C01616D7
S1130E1017061806991FF1CF869571056105089488
S1130E200895E894BB2766277727CB0197F908959F
S1130E308ADF08F48FEF08950BD0C0CFB1DF28F01C
S1130E40B6DF18F0952309F0A2CFA7CF1124EACF7B
S1130E50C6DFA0F3959FD1F3950F50E0551F629F15
S1130E60F001729FBB27F00DB11D639FAA27F00DFF
S1130E70B11DAA1F649F6627B00DA11D661F829F26
S1130E802227B00DA11D621F739FB00DA11D621F0B
S1130E90839FA00D611D221F749F3327A00D611D28
S1130EA0231F849F600D211D822F762F6A2F11240A
S1130EB09F5750408AF0E1F088234AF0EE0FFF1F5D
S1130EC0BB1F661F771F881F91505040A9F79E3F94
S1130ED0510570F05CCFA6CF5F3FECF3983EDCF396
S1130EE0869577956795B795F795E7959F5FC1F7D1
S1130EF0FE2B880F911D9695879597F90895EE0F0F
S1130F00FF1F0590F491E02D19940F931F93CF9335
S1130F10DF93EC018B01009731F46115710519F42D
S1130F2080E090E037C06EE070E081E090E063D252
S1130F30FC010097A9F380E883830115110571F082
S1130F401387028781E883838091D0029091D10234
S1130F50892B21F4F093D102E093D0022097C9F0B9
S1130F60D187C0878381826083838091D2029091EC
S1130F70D302892B71F4F093D302E093D2028091CF
S1130F80D4029091D502892B21F4F093D502E093F9
S1130F90D402CF01DF91CF911F910F910895CF9388
S1130FA0DF93CDB7DEB7FE01369661917191AF0143
S1130FB08091D2029091D30230D0DF91CF910895E5
S1130FC00F931F93CF93DF93E091D202F091D3025A
S1130FD0238121FF1BC0EC0100E010E089916091A6
S1130FE0D2027091D302DB011896ED91FC9119970E
S1130FF0882331F01995892B89F30FEF1FEFEECF7A
S11310008AE01995892B11F4C80102C08FEF9FEF74
S1131010DF91CF911F910F9108952F923F924F929C
S11310205F926F927F928F929F92AF92BF92CF9274
S1131030DF92EF92FF920F931F93CF93DF93CDB77D
S1131040DEB72C970FB6F894DEBF0FBECDBF7C0180
S11310506B018A01FC0117821682838181FFB0C172
S1131060CE0101964C01F7019381F60193FD859120
S113107093FF81916F01882309F49EC1853239F46D
S113108093FD859193FF81916F01853221F4B7011E
S113109090E00FD3E8CF512C312C20E02032A0F483
S11310A08B3269F030F4803259F0833269F4206174
S11310B02CC08D3239F0803339F4216026C022608F
S11310C0246023C0286021C027FD27C030ED380FDD
S11310D03A3078F426FF06C0FAE05F9E300D112402
S11310E0532E13C08AE0389E300D1124332E206213
S11310F00CC08E3221F426FD5FC1206406C08C36FC
S113110011F4206802C0883641F4F60193FD8591FC
S113111093FF81916F018111C1CF982F9F7D9554C9
S1131120933028F40C5F1F4FFFE3F9830DC083361F
S113113031F0833771F0833509F057C021C0F801CD
S1131140808189830E5F1F4F44244394512C5401A2
S113115014C03801F2E06F0E711CF801A080B18058
S113116026FF03C0652D70E002C06FEF7FEFC5015D
S11311702C8794D22C0183012C852F77222E16C024
S11311803801F2E06F0E711CF801A080B18026FFD7
S113119003C0652D70E002C06FEF7FEFC5012C879F
S11311A06BD22C012C852068222E830123FC19C0CC
S11311B0832D90E048165906A0F4B70180E290E030
S11311C078D23A94F5CFF50127FC859127FE8191D9
S11311D05F01B70190E06DD231103A94F1E04F1AFB
S11311E051084114510479F7DEC0843611F0893670
S11311F031F5F80127FF07C06081718182819381F5
S11312000C5F1F4F08C060817181882777FD80952E
S1131210982F0E5F1F4F2F76B22E97FF09C090951F
S11312208095709561957F4F8F4F9F4F2068B22EA8
S11312302AE030E0A4016FD2A82EA81843C0853755
S113124029F42F7EB22E2AE030E025C0F22FF97F58
S1131250BF2E8F36C1F018F4883579F0ADC08037D1
S113126019F0883721F0A8C02F2F2061B22EB4FEC8
S11312700DC08B2D8460B82E09C024FF0AC09F2F97
S11312809660B92E06C028E030E005C020E130E0C9
S113129002C020E132E0F801B7FE07C0608171812D
S11312A0828193810C5F1F4F06C06081718180E051
S11312B090E00E5F1F4FA4012ED2A82EA818FB2D7C
S11312C0FF77BF2EB6FE0BC02B2D2E7FA51450F436
S11312D0B4FE0AC0B2FC08C02B2D2E7E05C07A2CA9
S11312E02B2D03C07A2C01C0752C24FF0DC0FE01E8
S11312F0EA0DF11D8081803311F4297E09C022FF9B
S113130006C07394739404C0822F867809F0739492
S113131023FD12C020FF06C05A2C731418F4530C7A
S11313205718732C731460F4B70180E290E02C8793
S1131330C0D173942C85F6CF731410F4371801C000
S1131340312C24FF11C0B70180E390E02C87B1D188
S11313502C8522FF16C021FF03C088E590E002C05F
S113136088E790E0B7010CC0822F867851F021FD08
S113137002C080E201C08BE227FD8DE2B70190E05C
S113138098D1A51430F4B70180E390E092D15A9437
S1131390F8CFAA94F401EA0DF11D8081B70190E021
S11313A088D1A110F6CF332009F45DCEB70180E2D5
S11313B090E07FD13A94F7CFF7018681978102C0FC
S11313C08FEF9FEF2C960FB6F894DEBF0FBECDBF04
S11313D0DF91CF911F910F91FF90EF90DF90CF900D
S11313E0BF90AF909F908F907F906F905F904F9041
S11313F03F902F9008950F931F93CF93DF93869F71
S11314008001879F100D969F100D1124C8010DD0E7
S1131410EC01009721F0A80160E070E038D1CE0122
S1131420DF91CF911F910F910895CF93DF93823075
S1131430910510F482E090E0E091D802F091D90295
S113144020E030E0A0E0B0E0309739F140815181F4
S113145048175907B8F04817590771F482819381E6
S1131460109729F013969C938E9312972CC0909307
S1131470D9028093D80227C02115310531F04217D3
S1131480530718F0A901DB0101C0EF019A01BD0166
S1131490DF010280F381E02DD7CF21153105F9F06A
S11314A0281B390B2430310580F48A819B81611516
S11314B0710521F0FB019383828304C09093D902C8
S11314C08093D802FE01329644C0FE01E20FF31F5E
S11314D08193919322503109398328833AC0209112
S11314E0D6023091D702232B41F42091020230918D
S11314F003023093D7022093D60220910002309148
S113150001022115310541F42DB73EB74091040283
S113151050910502241B350BE091D602F091D702BD
S1131520E217F307A0F42E1B3F0B2817390778F0B6
S1131530AC014E5F5F4F2417350748F04E0F5F1F15
S11315405093D7024093D6028193919302C0E0E076
S1131550F0E0CF01DF91CF910895CF93DF9300970F
S113156009F487C0FC01329713821282C091D80219
S1131570D091D902209781F420813181280F391F1D
S11315808091D6029091D7028217930779F5F09350
S1131590D702E093D6026DC0DE0120E030E0AE1742
S11315A0BF0750F412964D915C9113979D0141151C
S11315B0510509F1DA01F3CFB383A283408151814C
S11315C0840F951F8A179B0771F48D919C91119735
S11315D0840F951F02969183808312968D919C911E
S11315E01397938382832115310529F4F093D9024B
S11315F0E093D8023EC0D9011396FC93EE93129760
S11316004D915D91A40FB51FEA17FB0779F4808112
S11316109181840F951F0296D90111969C938E9304
S11316208281938113969C938E931297E0E0F0E06D
S11316308A819B81009719F0FE01EC01F9CFCE015C
S1131640029628813981820F931F2091D60230910E
S1131650D7022817390769F4309729F41092D90270
S11316601092D80202C013821282D093D702C09380
S1131670D602DF91CF910895FC010590615070402E
S11316800110D8F7809590958E0F9F1F0895DC0167
S113169001C06D9341505040E0F70895FC01615042
S11316A0704001900110D8F7809590958E0F9F1F80
S11316B008950F931F93CF93DF93182F092FEB01F6
S11316C08B8181FD03C08FEF9FEF20C082FF10C08C
S11316D04E815F812C813D81421753077CF4E88160
S11316E0F9819F012F5F3F4F39832883108306C000
S11316F0E885F985812F1995892B29F72E813F815A
S11317002F5F3F4F3F832E83812F902FDF91CF9107
S11317101F910F910895FA01AA27283051F1203121
S113172081F1E8946F936E7F6E5F7F4F8F4F9F4F71
S1131730AF4FB1E03ED0B4E03CD0670F781F891FB3
S11317409A1FA11D680F791F8A1F911DA11D6A0F81
S1131750711D811D911DA11D20D009F468943F9134
S11317602AE0269F11243019305D3193DEF6CF0133
S11317700895462F4770405D4193B3E00FD0C9F7F9
S1131780F6CF462F4F70405D4A3318F0495D31FD66
S11317904052419302D0A9F7EACFB4E0A6959795B9
S11317A0879577956795BA95C9F70097610571058F
S11317B008959B01AC010A2E0694579547953795D9
S11317C02795BA95C9F7620F731F841F951FA01D33
S10917D00895F894FFCF18
S11317D60000DA0220008400CDCC4C3F3333333F83
S11317E650F84D435032353135206973204E4F54ED
S11317F620696E206E6F726D616C206D6F6465205A
S113180661667465722043414E20696E6974004DA9
S1131816435032353135206973204E4F5420696E5A
S113182620636F6E66696775726174696F6E206D89
S11318366F646520616674657220726573657400F1
S1131846496E697469616C697A6174696F6E730053
S11318560A0A0A496E697420646F6E65000A0A52A0
S113186665666572656E63653A2028256429200AD3
S113187600545749206572726F72004D6178206575
S11318866E636F6465722076616C75653A202564B3
S10518960A0042
S9030000FC
